{
  "_format": "hh-sol-artifact-1",
  "contractName": "VaxNFT",
  "sourceName": "contracts/vaxNFT.sol",
  "abi": [
    {
      "inputs": [],
      "stateMutability": "nonpayable",
      "type": "constructor"
    },
    {
      "anonymous": false,
      "inputs": [
        {
          "indexed": true,
          "internalType": "address",
          "name": "owner",
          "type": "address"
        },
        {
          "indexed": true,
          "internalType": "address",
          "name": "approved",
          "type": "address"
        },
        {
          "indexed": true,
          "internalType": "uint256",
          "name": "tokenId",
          "type": "uint256"
        }
      ],
      "name": "Approval",
      "type": "event"
    },
    {
      "anonymous": false,
      "inputs": [
        {
          "indexed": true,
          "internalType": "address",
          "name": "owner",
          "type": "address"
        },
        {
          "indexed": true,
          "internalType": "address",
          "name": "operator",
          "type": "address"
        },
        {
          "indexed": false,
          "internalType": "bool",
          "name": "approved",
          "type": "bool"
        }
      ],
      "name": "ApprovalForAll",
      "type": "event"
    },
    {
      "anonymous": false,
      "inputs": [
        {
          "indexed": true,
          "internalType": "address",
          "name": "previousOwner",
          "type": "address"
        },
        {
          "indexed": true,
          "internalType": "address",
          "name": "newOwner",
          "type": "address"
        }
      ],
      "name": "OwnershipTransferred",
      "type": "event"
    },
    {
      "anonymous": false,
      "inputs": [
        {
          "indexed": true,
          "internalType": "address",
          "name": "from",
          "type": "address"
        },
        {
          "indexed": true,
          "internalType": "address",
          "name": "to",
          "type": "address"
        },
        {
          "indexed": true,
          "internalType": "uint256",
          "name": "tokenId",
          "type": "uint256"
        }
      ],
      "name": "Transfer",
      "type": "event"
    },
    {
      "inputs": [
        {
          "internalType": "address",
          "name": "to",
          "type": "address"
        },
        {
          "internalType": "uint256",
          "name": "tokenId",
          "type": "uint256"
        }
      ],
      "name": "approve",
      "outputs": [],
      "stateMutability": "nonpayable",
      "type": "function"
    },
    {
      "inputs": [
        {
          "internalType": "address",
          "name": "owner",
          "type": "address"
        }
      ],
      "name": "balanceOf",
      "outputs": [
        {
          "internalType": "uint256",
          "name": "",
          "type": "uint256"
        }
      ],
      "stateMutability": "view",
      "type": "function"
    },
    {
      "inputs": [
        {
          "internalType": "string",
          "name": "_name",
          "type": "string"
        },
        {
          "internalType": "string",
          "name": "_p_address",
          "type": "string"
        },
        {
          "internalType": "string",
          "name": "_email",
          "type": "string"
        }
      ],
      "name": "clinicSignup",
      "outputs": [
        {
          "components": [
            {
              "internalType": "string",
              "name": "name",
              "type": "string"
            },
            {
              "internalType": "string",
              "name": "p_address",
              "type": "string"
            },
            {
              "internalType": "string",
              "name": "email",
              "type": "string"
            }
          ],
          "internalType": "struct VaxNFT.Clinic",
          "name": "",
          "type": "tuple"
        }
      ],
      "stateMutability": "nonpayable",
      "type": "function"
    },
    {
      "inputs": [
        {
          "internalType": "uint256",
          "name": "tokenId",
          "type": "uint256"
        }
      ],
      "name": "getApproved",
      "outputs": [
        {
          "internalType": "address",
          "name": "",
          "type": "address"
        }
      ],
      "stateMutability": "view",
      "type": "function"
    },
    {
      "inputs": [
        {
          "internalType": "address",
          "name": "owner",
          "type": "address"
        },
        {
          "internalType": "address",
          "name": "operator",
          "type": "address"
        }
      ],
      "name": "isApprovedForAll",
      "outputs": [
        {
          "internalType": "bool",
          "name": "",
          "type": "bool"
        }
      ],
      "stateMutability": "view",
      "type": "function"
    },
    {
      "inputs": [
        {
          "internalType": "string",
          "name": "_product",
          "type": "string"
        },
        {
          "internalType": "string",
          "name": "_lot",
          "type": "string"
        },
        {
          "internalType": "uint256",
          "name": "_phase",
          "type": "uint256"
        },
        {
          "internalType": "string",
          "name": "_date",
          "type": "string"
        }
      ],
      "name": "mintNFT",
      "outputs": [
        {
          "internalType": "uint256",
          "name": "",
          "type": "uint256"
        }
      ],
      "stateMutability": "nonpayable",
      "type": "function"
    },
    {
      "inputs": [],
      "name": "name",
      "outputs": [
        {
          "internalType": "string",
          "name": "",
          "type": "string"
        }
      ],
      "stateMutability": "view",
      "type": "function"
    },
    {
      "inputs": [],
      "name": "owner",
      "outputs": [
        {
          "internalType": "address",
          "name": "",
          "type": "address"
        }
      ],
      "stateMutability": "view",
      "type": "function"
    },
    {
      "inputs": [
        {
          "internalType": "uint256",
          "name": "tokenId",
          "type": "uint256"
        }
      ],
      "name": "ownerOf",
      "outputs": [
        {
          "internalType": "address",
          "name": "",
          "type": "address"
        }
      ],
      "stateMutability": "view",
      "type": "function"
    },
    {
      "inputs": [
        {
          "internalType": "string",
          "name": "_hash",
          "type": "string"
        }
      ],
      "name": "patientSignup",
      "outputs": [
        {
          "internalType": "string",
          "name": "",
          "type": "string"
        }
      ],
      "stateMutability": "nonpayable",
      "type": "function"
    },
    {
      "inputs": [],
      "name": "renounceOwnership",
      "outputs": [],
      "stateMutability": "nonpayable",
      "type": "function"
    },
    {
      "inputs": [
        {
          "internalType": "address",
          "name": "from",
          "type": "address"
        },
        {
          "internalType": "address",
          "name": "to",
          "type": "address"
        },
        {
          "internalType": "uint256",
          "name": "tokenId",
          "type": "uint256"
        }
      ],
      "name": "safeTransferFrom",
      "outputs": [],
      "stateMutability": "nonpayable",
      "type": "function"
    },
    {
      "inputs": [
        {
          "internalType": "address",
          "name": "from",
          "type": "address"
        },
        {
          "internalType": "address",
          "name": "to",
          "type": "address"
        },
        {
          "internalType": "uint256",
          "name": "tokenId",
          "type": "uint256"
        },
        {
          "internalType": "bytes",
          "name": "_data",
          "type": "bytes"
        }
      ],
      "name": "safeTransferFrom",
      "outputs": [],
      "stateMutability": "nonpayable",
      "type": "function"
    },
    {
      "inputs": [
        {
          "internalType": "address",
          "name": "operator",
          "type": "address"
        },
        {
          "internalType": "bool",
          "name": "approved",
          "type": "bool"
        }
      ],
      "name": "setApprovalForAll",
      "outputs": [],
      "stateMutability": "nonpayable",
      "type": "function"
    },
    {
      "inputs": [
        {
          "internalType": "bytes4",
          "name": "interfaceId",
          "type": "bytes4"
        }
      ],
      "name": "supportsInterface",
      "outputs": [
        {
          "internalType": "bool",
          "name": "",
          "type": "bool"
        }
      ],
      "stateMutability": "view",
      "type": "function"
    },
    {
      "inputs": [],
      "name": "symbol",
      "outputs": [
        {
          "internalType": "string",
          "name": "",
          "type": "string"
        }
      ],
      "stateMutability": "view",
      "type": "function"
    },
    {
      "inputs": [
        {
          "internalType": "uint256",
          "name": "",
          "type": "uint256"
        }
      ],
      "name": "tokenIdToTokenInfo",
      "outputs": [
        {
          "internalType": "address",
          "name": "issuer",
          "type": "address"
        },
        {
          "internalType": "string",
          "name": "product",
          "type": "string"
        },
        {
          "internalType": "string",
          "name": "lot",
          "type": "string"
        },
        {
          "internalType": "uint256",
          "name": "phase",
          "type": "uint256"
        },
        {
          "internalType": "string",
          "name": "date",
          "type": "string"
        }
      ],
      "stateMutability": "view",
      "type": "function"
    },
    {
      "inputs": [
        {
          "internalType": "uint256",
          "name": "tokenId",
          "type": "uint256"
        }
      ],
      "name": "tokenURI",
      "outputs": [
        {
          "internalType": "string",
          "name": "",
          "type": "string"
        }
      ],
      "stateMutability": "view",
      "type": "function"
    },
    {
      "inputs": [
        {
          "internalType": "address",
          "name": "_owner",
          "type": "address"
        }
      ],
      "name": "tokensOfOwner",
      "outputs": [
        {
          "components": [
            {
              "internalType": "address",
              "name": "issuer",
              "type": "address"
            },
            {
              "internalType": "string",
              "name": "product",
              "type": "string"
            },
            {
              "internalType": "string",
              "name": "lot",
              "type": "string"
            },
            {
              "internalType": "uint256",
              "name": "phase",
              "type": "uint256"
            },
            {
              "internalType": "string",
              "name": "date",
              "type": "string"
            }
          ],
          "internalType": "struct VaxNFT.TokenInfo[]",
          "name": "",
          "type": "tuple[]"
        }
      ],
      "stateMutability": "nonpayable",
      "type": "function"
    },
    {
      "inputs": [
        {
          "internalType": "address",
          "name": "from",
          "type": "address"
        },
        {
          "internalType": "address",
          "name": "to",
          "type": "address"
        },
        {
          "internalType": "uint256",
          "name": "tokenId",
          "type": "uint256"
        }
      ],
      "name": "transferFrom",
      "outputs": [],
      "stateMutability": "nonpayable",
      "type": "function"
    },
    {
      "inputs": [
        {
          "internalType": "address",
          "name": "newOwner",
          "type": "address"
        }
      ],
      "name": "transferOwnership",
      "outputs": [],
      "stateMutability": "nonpayable",
      "type": "function"
    },
    {
      "inputs": [
        {
          "internalType": "address",
          "name": "",
          "type": "address"
        }
      ],
      "name": "walletIdToClinic",
      "outputs": [
        {
          "internalType": "string",
          "name": "name",
          "type": "string"
        },
        {
          "internalType": "string",
          "name": "p_address",
          "type": "string"
        },
        {
          "internalType": "string",
          "name": "email",
          "type": "string"
        }
      ],
      "stateMutability": "view",
      "type": "function"
    },
    {
      "inputs": [
        {
          "internalType": "address",
          "name": "",
          "type": "address"
        }
      ],
      "name": "walletIdToPatientHash",
      "outputs": [
        {
          "internalType": "string",
          "name": "",
          "type": "string"
        }
      ],
      "stateMutability": "view",
      "type": "function"
    }
  ],
  "bytecode": "0x60806040523480156200001157600080fd5b506040518060400160405280600681526020017f5661784e465400000000000000000000000000000000000000000000000000008152506040518060400160405280600381526020017f4e46540000000000000000000000000000000000000000000000000000000000815250816000908051906020019062000096929190620001a6565b508060019080519060200190620000af929190620001a6565b505050620000d2620000c6620000d860201b60201c565b620000e060201b60201c565b620002bb565b600033905090565b6000600660009054906101000a900473ffffffffffffffffffffffffffffffffffffffff16905081600660006101000a81548173ffffffffffffffffffffffffffffffffffffffff021916908373ffffffffffffffffffffffffffffffffffffffff1602179055508173ffffffffffffffffffffffffffffffffffffffff168173ffffffffffffffffffffffffffffffffffffffff167f8be0079c531659141344cd1fd0a4f28419497f9722a3daafe3b4186f6b6457e060405160405180910390a35050565b828054620001b49062000256565b90600052602060002090601f016020900481019282620001d8576000855562000224565b82601f10620001f357805160ff191683800117855562000224565b8280016001018555821562000224579182015b828111156200022357825182559160200191906001019062000206565b5b50905062000233919062000237565b5090565b5b808211156200025257600081600090555060010162000238565b5090565b600060028204905060018216806200026f57607f821691505b602082108114156200028657620002856200028c565b5b50919050565b7f4e487b7100000000000000000000000000000000000000000000000000000000600052602260045260246000fd5b613ee280620002cb6000396000f3fe608060405234801561001057600080fd5b506004361061014d5760003560e01c806370a08231116100c3578063a22cb4651161007c578063a22cb465146103f0578063a570c3aa1461040c578063b88d4fde1461043c578063c87b56dd14610458578063e985e9c514610488578063f2fde38b146104b85761014d565b806370a0823114610318578063715018a6146103485780638462151c146103525780638da5cb5b146103825780639347200c146103a057806395d89b41146103d25761014d565b806323b872dd1161011557806323b872dd1461021c5780632bc01145146102385780632ffd0d821461026857806342842e0e146102985780635fb8bcd5146102b45780636352211e146102e85761014d565b806301ffc9a71461015257806306fdde0314610182578063081812fc146101a0578063095ea7b3146101d057806310b6977e146101ec575b600080fd5b61016c60048036038101906101679190612c15565b6104d4565b6040516101799190613782565b60405180910390f35b61018a6105b6565b604051610197919061379d565b60405180910390f35b6101ba60048036038101906101b59190612dea565b610648565b6040516101c79190613691565b60405180910390f35b6101ea60048036038101906101e59190612bd9565b6106cd565b005b61020660048036038101906102019190612c67565b6107e5565b604051610213919061379d565b60405180910390f35b61023660048036038101906102319190612ad3565b610918565b005b610252600480360381019061024d9190612ca8565b610978565b60405161025f9190613a0b565b60405180910390f35b610282600480360381019061027d9190612a6e565b610c4b565b60405161028f919061379d565b60405180910390f35b6102b260048036038101906102ad9190612ad3565b610ceb565b005b6102ce60048036038101906102c99190612dea565b610d0b565b6040516102df9594939291906136f8565b60405180910390f35b61030260048036038101906102fd9190612dea565b610ef9565b60405161030f9190613691565b60405180910390f35b610332600480360381019061032d9190612a6e565b610fab565b60405161033f9190613a2d565b60405180910390f35b610350611063565b005b61036c60048036038101906103679190612a6e565b6110eb565b6040516103799190613760565b60405180910390f35b61038a611505565b6040516103979190613691565b60405180910390f35b6103ba60048036038101906103b59190612a6e565b61152f565b6040516103c9939291906137bf565b60405180910390f35b6103da6116f1565b6040516103e7919061379d565b60405180910390f35b61040a60048036038101906104059190612b9d565b611783565b005b61042660048036038101906104219190612d3f565b611799565b6040516104339190613a2d565b60405180910390f35b61045660048036038101906104519190612b22565b6118d2565b005b610472600480360381019061046d9190612dea565b611934565b60405161047f919061379d565b60405180910390f35b6104a2600480360381019061049d9190612a97565b6119db565b6040516104af9190613782565b60405180910390f35b6104d260048036038101906104cd9190612a6e565b611a6f565b005b60007f80ac58cd000000000000000000000000000000000000000000000000000000007bffffffffffffffffffffffffffffffffffffffffffffffffffffffff1916827bffffffffffffffffffffffffffffffffffffffffffffffffffffffff1916148061059f57507f5b5e139f000000000000000000000000000000000000000000000000000000007bffffffffffffffffffffffffffffffffffffffffffffffffffffffff1916827bffffffffffffffffffffffffffffffffffffffffffffffffffffffff1916145b806105af57506105ae82611b67565b5b9050919050565b6060600080546105c590613cd7565b80601f01602080910402602001604051908101604052809291908181526020018280546105f190613cd7565b801561063e5780601f106106135761010080835404028352916020019161063e565b820191906000526020600020905b81548152906001019060200180831161062157829003601f168201915b5050505050905090565b600061065382611bd1565b610692576040517f08c379a00000000000000000000000000000000000000000000000000000000081526004016106899061394b565b60405180910390fd5b6004600083815260200190815260200160002060009054906101000a900473ffffffffffffffffffffffffffffffffffffffff169050919050565b60006106d882610ef9565b90508073ffffffffffffffffffffffffffffffffffffffff168373ffffffffffffffffffffffffffffffffffffffff161415610749576040517f08c379a0000000000000000000000000000000000000000000000000000000008152600401610740906139cb565b60405180910390fd5b8073ffffffffffffffffffffffffffffffffffffffff16610768611c3d565b73ffffffffffffffffffffffffffffffffffffffff161480610797575061079681610791611c3d565b6119db565b5b6107d6576040517f08c379a00000000000000000000000000000000000000000000000000000000081526004016107cd906138cb565b60405180910390fd5b6107e08383611c45565b505050565b606081600960006107f4611c3d565b73ffffffffffffffffffffffffffffffffffffffff1673ffffffffffffffffffffffffffffffffffffffff168152602001908152602001600020908051906020019061084192919061282c565b506009600061084e611c3d565b73ffffffffffffffffffffffffffffffffffffffff1673ffffffffffffffffffffffffffffffffffffffff168152602001908152602001600020805461089390613cd7565b80601f01602080910402602001604051908101604052809291908181526020018280546108bf90613cd7565b801561090c5780601f106108e15761010080835404028352916020019161090c565b820191906000526020600020905b8154815290600101906020018083116108ef57829003601f168201915b50505050509050919050565b610929610923611c3d565b82611cfe565b610968576040517f08c379a000000000000000000000000000000000000000000000000000000000815260040161095f906139eb565b60405180910390fd5b610973838383611ddc565b505050565b6109806128b2565b604051806060016040528085815260200184815260200183815250600a60006109a7611c3d565b73ffffffffffffffffffffffffffffffffffffffff1673ffffffffffffffffffffffffffffffffffffffff16815260200190815260200160002060008201518160000190805190602001906109fd92919061282c565b506020820151816001019080519060200190610a1a92919061282c565b506040820151816002019080519060200190610a3792919061282c565b50905050600a6000610a47611c3d565b73ffffffffffffffffffffffffffffffffffffffff1673ffffffffffffffffffffffffffffffffffffffff168152602001908152602001600020604051806060016040529081600082018054610a9c90613cd7565b80601f0160208091040260200160405190810160405280929190818152602001828054610ac890613cd7565b8015610b155780601f10610aea57610100808354040283529160200191610b15565b820191906000526020600020905b815481529060010190602001808311610af857829003601f168201915b50505050508152602001600182018054610b2e90613cd7565b80601f0160208091040260200160405190810160405280929190818152602001828054610b5a90613cd7565b8015610ba75780601f10610b7c57610100808354040283529160200191610ba7565b820191906000526020600020905b815481529060010190602001808311610b8a57829003601f168201915b50505050508152602001600282018054610bc090613cd7565b80601f0160208091040260200160405190810160405280929190818152602001828054610bec90613cd7565b8015610c395780601f10610c0e57610100808354040283529160200191610c39565b820191906000526020600020905b815481529060010190602001808311610c1c57829003601f168201915b50505050508152505090509392505050565b60096020528060005260406000206000915090508054610c6a90613cd7565b80601f0160208091040260200160405190810160405280929190818152602001828054610c9690613cd7565b8015610ce35780601f10610cb857610100808354040283529160200191610ce3565b820191906000526020600020905b815481529060010190602001808311610cc657829003601f168201915b505050505081565b610d06838383604051806020016040528060008152506118d2565b505050565b60086020528060005260406000206000915090508060000160009054906101000a900473ffffffffffffffffffffffffffffffffffffffff1690806001018054610d5490613cd7565b80601f0160208091040260200160405190810160405280929190818152602001828054610d8090613cd7565b8015610dcd5780601f10610da257610100808354040283529160200191610dcd565b820191906000526020600020905b815481529060010190602001808311610db057829003601f168201915b505050505090806002018054610de290613cd7565b80601f0160208091040260200160405190810160405280929190818152602001828054610e0e90613cd7565b8015610e5b5780601f10610e3057610100808354040283529160200191610e5b565b820191906000526020600020905b815481529060010190602001808311610e3e57829003601f168201915b505050505090806003015490806004018054610e7690613cd7565b80601f0160208091040260200160405190810160405280929190818152602001828054610ea290613cd7565b8015610eef5780601f10610ec457610100808354040283529160200191610eef565b820191906000526020600020905b815481529060010190602001808311610ed257829003601f168201915b5050505050905085565b6000806002600084815260200190815260200160002060009054906101000a900473ffffffffffffffffffffffffffffffffffffffff169050600073ffffffffffffffffffffffffffffffffffffffff168173ffffffffffffffffffffffffffffffffffffffff161415610fa2576040517f08c379a0000000000000000000000000000000000000000000000000000000008152600401610f999061390b565b60405180910390fd5b80915050919050565b60008073ffffffffffffffffffffffffffffffffffffffff168273ffffffffffffffffffffffffffffffffffffffff16141561101c576040517f08c379a0000000000000000000000000000000000000000000000000000000008152600401611013906138eb565b60405180910390fd5b600360008373ffffffffffffffffffffffffffffffffffffffff1673ffffffffffffffffffffffffffffffffffffffff168152602001908152602001600020549050919050565b61106b611c3d565b73ffffffffffffffffffffffffffffffffffffffff16611089611505565b73ffffffffffffffffffffffffffffffffffffffff16146110df576040517f08c379a00000000000000000000000000000000000000000000000000000000081526004016110d69061396b565b60405180910390fd5b6110e96000612038565b565b606060006110f883610fab565b9050600081141561118657600067ffffffffffffffff811115611144577f4e487b7100000000000000000000000000000000000000000000000000000000600052604160045260246000fd5b60405190808252806020026020018201604052801561117d57816020015b61116a6128d3565b8152602001906001900390816111625790505b50915050611500565b60008167ffffffffffffffff8111156111c8577f4e487b7100000000000000000000000000000000000000000000000000000000600052604160045260246000fd5b60405190808252806020026020018201604052801561120157816020015b6111ee6128d3565b8152602001906001900390816111e65790505b509050600061121060076120fe565b9050600080600190505b8281116114f7578673ffffffffffffffffffffffffffffffffffffffff1661124182610ef9565b73ffffffffffffffffffffffffffffffffffffffff1614156114e457600860008281526020019081526020016000206040518060a00160405290816000820160009054906101000a900473ffffffffffffffffffffffffffffffffffffffff1673ffffffffffffffffffffffffffffffffffffffff1673ffffffffffffffffffffffffffffffffffffffff1681526020016001820180546112e190613cd7565b80601f016020809104026020016040519081016040528092919081815260200182805461130d90613cd7565b801561135a5780601f1061132f5761010080835404028352916020019161135a565b820191906000526020600020905b81548152906001019060200180831161133d57829003601f168201915b5050505050815260200160028201805461137390613cd7565b80601f016020809104026020016040519081016040528092919081815260200182805461139f90613cd7565b80156113ec5780601f106113c1576101008083540402835291602001916113ec565b820191906000526020600020905b8154815290600101906020018083116113cf57829003601f168201915b505050505081526020016003820154815260200160048201805461140f90613cd7565b80601f016020809104026020016040519081016040528092919081815260200182805461143b90613cd7565b80156114885780601f1061145d57610100808354040283529160200191611488565b820191906000526020600020905b81548152906001019060200180831161146b57829003601f168201915b5050505050815250508483815181106114ca577f4e487b7100000000000000000000000000000000000000000000000000000000600052603260045260246000fd5b602002602001018190525081806114e090613d09565b9250505b80806114ef90613d09565b91505061121a565b83955050505050505b919050565b6000600660009054906101000a900473ffffffffffffffffffffffffffffffffffffffff16905090565b600a60205280600052604060002060009150905080600001805461155290613cd7565b80601f016020809104026020016040519081016040528092919081815260200182805461157e90613cd7565b80156115cb5780601f106115a0576101008083540402835291602001916115cb565b820191906000526020600020905b8154815290600101906020018083116115ae57829003601f168201915b5050505050908060010180546115e090613cd7565b80601f016020809104026020016040519081016040528092919081815260200182805461160c90613cd7565b80156116595780601f1061162e57610100808354040283529160200191611659565b820191906000526020600020905b81548152906001019060200180831161163c57829003601f168201915b50505050509080600201805461166e90613cd7565b80601f016020809104026020016040519081016040528092919081815260200182805461169a90613cd7565b80156116e75780601f106116bc576101008083540402835291602001916116e7565b820191906000526020600020905b8154815290600101906020018083116116ca57829003601f168201915b5050505050905083565b60606001805461170090613cd7565b80601f016020809104026020016040519081016040528092919081815260200182805461172c90613cd7565b80156117795780601f1061174e57610100808354040283529160200191611779565b820191906000526020600020905b81548152906001019060200180831161175c57829003601f168201915b5050505050905090565b61179561178e611c3d565b838361210c565b5050565b60006117a56007612279565b60006117b160076120fe565b90506117c46117be611c3d565b8261228f565b6040518060a001604052806117d7611c3d565b73ffffffffffffffffffffffffffffffffffffffff168152602001878152602001868152602001858152602001848152506008600083815260200190815260200160002060008201518160000160006101000a81548173ffffffffffffffffffffffffffffffffffffffff021916908373ffffffffffffffffffffffffffffffffffffffff160217905550602082015181600101908051906020019061187e92919061282c565b50604082015181600201908051906020019061189b92919061282c565b506060820151816003015560808201518160040190805190602001906118c292919061282c565b5090505080915050949350505050565b6118e36118dd611c3d565b83611cfe565b611922576040517f08c379a0000000000000000000000000000000000000000000000000000000008152600401611919906139eb565b60405180910390fd5b61192e8484848461245d565b50505050565b606061193f82611bd1565b61197e576040517f08c379a0000000000000000000000000000000000000000000000000000000008152600401611975906139ab565b60405180910390fd5b60006119886124b9565b905060008151116119a857604051806020016040528060008152506119d3565b806119b2846124d0565b6040516020016119c392919061366d565b6040516020818303038152906040525b915050919050565b6000600560008473ffffffffffffffffffffffffffffffffffffffff1673ffffffffffffffffffffffffffffffffffffffff16815260200190815260200160002060008373ffffffffffffffffffffffffffffffffffffffff1673ffffffffffffffffffffffffffffffffffffffff16815260200190815260200160002060009054906101000a900460ff16905092915050565b611a77611c3d565b73ffffffffffffffffffffffffffffffffffffffff16611a95611505565b73ffffffffffffffffffffffffffffffffffffffff1614611aeb576040517f08c379a0000000000000000000000000000000000000000000000000000000008152600401611ae29061396b565b60405180910390fd5b600073ffffffffffffffffffffffffffffffffffffffff168173ffffffffffffffffffffffffffffffffffffffff161415611b5b576040517f08c379a0000000000000000000000000000000000000000000000000000000008152600401611b529061382b565b60405180910390fd5b611b6481612038565b50565b60007f01ffc9a7000000000000000000000000000000000000000000000000000000007bffffffffffffffffffffffffffffffffffffffffffffffffffffffff1916827bffffffffffffffffffffffffffffffffffffffffffffffffffffffff1916149050919050565b60008073ffffffffffffffffffffffffffffffffffffffff166002600084815260200190815260200160002060009054906101000a900473ffffffffffffffffffffffffffffffffffffffff1673ffffffffffffffffffffffffffffffffffffffff1614159050919050565b600033905090565b816004600083815260200190815260200160002060006101000a81548173ffffffffffffffffffffffffffffffffffffffff021916908373ffffffffffffffffffffffffffffffffffffffff160217905550808273ffffffffffffffffffffffffffffffffffffffff16611cb883610ef9565b73ffffffffffffffffffffffffffffffffffffffff167f8c5be1e5ebec7d5bd14f71427d1e84f3dd0314c0f7b2291e5b200ac8c7c3b92560405160405180910390a45050565b6000611d0982611bd1565b611d48576040517f08c379a0000000000000000000000000000000000000000000000000000000008152600401611d3f906138ab565b60405180910390fd5b6000611d5383610ef9565b90508073ffffffffffffffffffffffffffffffffffffffff168473ffffffffffffffffffffffffffffffffffffffff161480611dc257508373ffffffffffffffffffffffffffffffffffffffff16611daa84610648565b73ffffffffffffffffffffffffffffffffffffffff16145b80611dd35750611dd281856119db565b5b91505092915050565b8273ffffffffffffffffffffffffffffffffffffffff16611dfc82610ef9565b73ffffffffffffffffffffffffffffffffffffffff1614611e52576040517f08c379a0000000000000000000000000000000000000000000000000000000008152600401611e499061398b565b60405180910390fd5b600073ffffffffffffffffffffffffffffffffffffffff168273ffffffffffffffffffffffffffffffffffffffff161415611ec2576040517f08c379a0000000000000000000000000000000000000000000000000000000008152600401611eb99061386b565b60405180910390fd5b611ecd83838361267d565b611ed8600082611c45565b6001600360008573ffffffffffffffffffffffffffffffffffffffff1673ffffffffffffffffffffffffffffffffffffffff1681526020019081526020016000206000828254611f289190613bed565b925050819055506001600360008473ffffffffffffffffffffffffffffffffffffffff1673ffffffffffffffffffffffffffffffffffffffff1681526020019081526020016000206000828254611f7f9190613b66565b92505081905550816002600083815260200190815260200160002060006101000a81548173ffffffffffffffffffffffffffffffffffffffff021916908373ffffffffffffffffffffffffffffffffffffffff160217905550808273ffffffffffffffffffffffffffffffffffffffff168473ffffffffffffffffffffffffffffffffffffffff167fddf252ad1be2c89b69c2b068fc378daa952ba7f163c4a11628f55a4df523b3ef60405160405180910390a4505050565b6000600660009054906101000a900473ffffffffffffffffffffffffffffffffffffffff16905081600660006101000a81548173ffffffffffffffffffffffffffffffffffffffff021916908373ffffffffffffffffffffffffffffffffffffffff1602179055508173ffffffffffffffffffffffffffffffffffffffff168173ffffffffffffffffffffffffffffffffffffffff167f8be0079c531659141344cd1fd0a4f28419497f9722a3daafe3b4186f6b6457e060405160405180910390a35050565b600081600001549050919050565b8173ffffffffffffffffffffffffffffffffffffffff168373ffffffffffffffffffffffffffffffffffffffff16141561217b576040517f08c379a00000000000000000000000000000000000000000000000000000000081526004016121729061388b565b60405180910390fd5b80600560008573ffffffffffffffffffffffffffffffffffffffff1673ffffffffffffffffffffffffffffffffffffffff16815260200190815260200160002060008473ffffffffffffffffffffffffffffffffffffffff1673ffffffffffffffffffffffffffffffffffffffff16815260200190815260200160002060006101000a81548160ff0219169083151502179055508173ffffffffffffffffffffffffffffffffffffffff168373ffffffffffffffffffffffffffffffffffffffff167f17307eab39ab6107e8899845ad3d59bd9653f200f220920489ca2b5937696c318360405161226c9190613782565b60405180910390a3505050565b6001816000016000828254019250508190555050565b600073ffffffffffffffffffffffffffffffffffffffff168273ffffffffffffffffffffffffffffffffffffffff1614156122ff576040517f08c379a00000000000000000000000000000000000000000000000000000000081526004016122f69061392b565b60405180910390fd5b61230881611bd1565b15612348576040517f08c379a000000000000000000000000000000000000000000000000000000000815260040161233f9061384b565b60405180910390fd5b6123546000838361267d565b6001600360008473ffffffffffffffffffffffffffffffffffffffff1673ffffffffffffffffffffffffffffffffffffffff16815260200190815260200160002060008282546123a49190613b66565b92505081905550816002600083815260200190815260200160002060006101000a81548173ffffffffffffffffffffffffffffffffffffffff021916908373ffffffffffffffffffffffffffffffffffffffff160217905550808273ffffffffffffffffffffffffffffffffffffffff16600073ffffffffffffffffffffffffffffffffffffffff167fddf252ad1be2c89b69c2b068fc378daa952ba7f163c4a11628f55a4df523b3ef60405160405180910390a45050565b612468848484611ddc565b61247484848484612682565b6124b3576040517f08c379a00000000000000000000000000000000000000000000000000000000081526004016124aa9061380b565b60405180910390fd5b50505050565b606060405180602001604052806000815250905090565b60606000821415612518576040518060400160405280600181526020017f30000000000000000000000000000000000000000000000000000000000000008152509050612678565b600082905060005b6000821461254a57808061253390613d09565b915050600a826125439190613bbc565b9150612520565b60008167ffffffffffffffff81111561258c577f4e487b7100000000000000000000000000000000000000000000000000000000600052604160045260246000fd5b6040519080825280601f01601f1916602001820160405280156125be5781602001600182028036833780820191505090505b5090505b60008514612671576001826125d79190613bed565b9150600a856125e69190613d52565b60306125f29190613b66565b60f81b81838151811061262e577f4e487b7100000000000000000000000000000000000000000000000000000000600052603260045260246000fd5b60200101907effffffffffffffffffffffffffffffffffffffffffffffffffffffffffffff1916908160001a905350600a8561266a9190613bbc565b94506125c2565b8093505050505b919050565b505050565b60006126a38473ffffffffffffffffffffffffffffffffffffffff16612819565b1561280c578373ffffffffffffffffffffffffffffffffffffffff1663150b7a026126cc611c3d565b8786866040518563ffffffff1660e01b81526004016126ee94939291906136ac565b602060405180830381600087803b15801561270857600080fd5b505af192505050801561273957506040513d601f19601f820116820180604052508101906127369190612c3e565b60015b6127bc573d8060008114612769576040519150601f19603f3d011682016040523d82523d6000602084013e61276e565b606091505b506000815114156127b4576040517f08c379a00000000000000000000000000000000000000000000000000000000081526004016127ab9061380b565b60405180910390fd5b805181602001fd5b63150b7a0260e01b7bffffffffffffffffffffffffffffffffffffffffffffffffffffffff1916817bffffffffffffffffffffffffffffffffffffffffffffffffffffffff191614915050612811565b600190505b949350505050565b600080823b905060008111915050919050565b82805461283890613cd7565b90600052602060002090601f01602090048101928261285a57600085556128a1565b82601f1061287357805160ff19168380011785556128a1565b828001600101855582156128a1579182015b828111156128a0578251825591602001919060010190612885565b5b5090506128ae9190612918565b5090565b60405180606001604052806060815260200160608152602001606081525090565b6040518060a00160405280600073ffffffffffffffffffffffffffffffffffffffff168152602001606081526020016060815260200160008152602001606081525090565b5b80821115612931576000816000905550600101612919565b5090565b600061294861294384613a79565b613a48565b90508281526020810184848401111561296057600080fd5b61296b848285613c95565b509392505050565b600061298661298184613aa9565b613a48565b90508281526020810184848401111561299e57600080fd5b6129a9848285613c95565b509392505050565b6000813590506129c081613e50565b92915050565b6000813590506129d581613e67565b92915050565b6000813590506129ea81613e7e565b92915050565b6000815190506129ff81613e7e565b92915050565b600082601f830112612a1657600080fd5b8135612a26848260208601612935565b91505092915050565b600082601f830112612a4057600080fd5b8135612a50848260208601612973565b91505092915050565b600081359050612a6881613e95565b92915050565b600060208284031215612a8057600080fd5b6000612a8e848285016129b1565b91505092915050565b60008060408385031215612aaa57600080fd5b6000612ab8858286016129b1565b9250506020612ac9858286016129b1565b9150509250929050565b600080600060608486031215612ae857600080fd5b6000612af6868287016129b1565b9350506020612b07868287016129b1565b9250506040612b1886828701612a59565b9150509250925092565b60008060008060808587031215612b3857600080fd5b6000612b46878288016129b1565b9450506020612b57878288016129b1565b9350506040612b6887828801612a59565b925050606085013567ffffffffffffffff811115612b8557600080fd5b612b9187828801612a05565b91505092959194509250565b60008060408385031215612bb057600080fd5b6000612bbe858286016129b1565b9250506020612bcf858286016129c6565b9150509250929050565b60008060408385031215612bec57600080fd5b6000612bfa858286016129b1565b9250506020612c0b85828601612a59565b9150509250929050565b600060208284031215612c2757600080fd5b6000612c35848285016129db565b91505092915050565b600060208284031215612c5057600080fd5b6000612c5e848285016129f0565b91505092915050565b600060208284031215612c7957600080fd5b600082013567ffffffffffffffff811115612c9357600080fd5b612c9f84828501612a2f565b91505092915050565b600080600060608486031215612cbd57600080fd5b600084013567ffffffffffffffff811115612cd757600080fd5b612ce386828701612a2f565b935050602084013567ffffffffffffffff811115612d0057600080fd5b612d0c86828701612a2f565b925050604084013567ffffffffffffffff811115612d2957600080fd5b612d3586828701612a2f565b9150509250925092565b60008060008060808587031215612d5557600080fd5b600085013567ffffffffffffffff811115612d6f57600080fd5b612d7b87828801612a2f565b945050602085013567ffffffffffffffff811115612d9857600080fd5b612da487828801612a2f565b9350506040612db587828801612a59565b925050606085013567ffffffffffffffff811115612dd257600080fd5b612dde87828801612a2f565b91505092959194509250565b600060208284031215612dfc57600080fd5b6000612e0a84828501612a59565b91505092915050565b6000612e1f83836135cb565b905092915050565b612e3081613c21565b82525050565b612e3f81613c21565b82525050565b6000612e5082613ae9565b612e5a8185613b17565b935083602082028501612e6c85613ad9565b8060005b85811015612ea85784840389528151612e898582612e13565b9450612e9483613b0a565b925060208a01995050600181019050612e70565b50829750879550505050505092915050565b612ec381613c33565b82525050565b6000612ed482613af4565b612ede8185613b28565b9350612eee818560208601613ca4565b612ef781613e3f565b840191505092915050565b6000612f0d82613aff565b612f178185613b39565b9350612f27818560208601613ca4565b612f3081613e3f565b840191505092915050565b6000612f4682613aff565b612f508185613b4a565b9350612f60818560208601613ca4565b612f6981613e3f565b840191505092915050565b6000612f7f82613aff565b612f898185613b5b565b9350612f99818560208601613ca4565b80840191505092915050565b6000612fb2603283613b4a565b91507f4552433732313a207472616e7366657220746f206e6f6e20455243373231526560008301527f63656976657220696d706c656d656e74657200000000000000000000000000006020830152604082019050919050565b6000613018602683613b4a565b91507f4f776e61626c653a206e6577206f776e657220697320746865207a65726f206160008301527f64647265737300000000000000000000000000000000000000000000000000006020830152604082019050919050565b600061307e601c83613b4a565b91507f4552433732313a20746f6b656e20616c7265616479206d696e746564000000006000830152602082019050919050565b60006130be602483613b4a565b91507f4552433732313a207472616e7366657220746f20746865207a65726f2061646460008301527f72657373000000000000000000000000000000000000000000000000000000006020830152604082019050919050565b6000613124601983613b4a565b91507f4552433732313a20617070726f766520746f2063616c6c6572000000000000006000830152602082019050919050565b6000613164602c83613b4a565b91507f4552433732313a206f70657261746f7220717565727920666f72206e6f6e657860008301527f697374656e7420746f6b656e00000000000000000000000000000000000000006020830152604082019050919050565b60006131ca603883613b4a565b91507f4552433732313a20617070726f76652063616c6c6572206973206e6f74206f7760008301527f6e6572206e6f7220617070726f76656420666f7220616c6c00000000000000006020830152604082019050919050565b6000613230602a83613b4a565b91507f4552433732313a2062616c616e636520717565727920666f7220746865207a6560008301527f726f2061646472657373000000000000000000000000000000000000000000006020830152604082019050919050565b6000613296602983613b4a565b91507f4552433732313a206f776e657220717565727920666f72206e6f6e657869737460008301527f656e7420746f6b656e00000000000000000000000000000000000000000000006020830152604082019050919050565b60006132fc602083613b4a565b91507f4552433732313a206d696e7420746f20746865207a65726f20616464726573736000830152602082019050919050565b600061333c602c83613b4a565b91507f4552433732313a20617070726f76656420717565727920666f72206e6f6e657860008301527f697374656e7420746f6b656e00000000000000000000000000000000000000006020830152604082019050919050565b60006133a2602083613b4a565b91507f4f776e61626c653a2063616c6c6572206973206e6f7420746865206f776e65726000830152602082019050919050565b60006133e2602983613b4a565b91507f4552433732313a207472616e73666572206f6620746f6b656e2074686174206960008301527f73206e6f74206f776e00000000000000000000000000000000000000000000006020830152604082019050919050565b6000613448602f83613b4a565b91507f4552433732314d657461646174613a2055524920717565727920666f72206e6f60008301527f6e6578697374656e7420746f6b656e00000000000000000000000000000000006020830152604082019050919050565b60006134ae602183613b4a565b91507f4552433732313a20617070726f76616c20746f2063757272656e74206f776e6560008301527f72000000000000000000000000000000000000000000000000000000000000006020830152604082019050919050565b6000613514603183613b4a565b91507f4552433732313a207472616e736665722063616c6c6572206973206e6f74206f60008301527f776e6572206e6f7220617070726f7665640000000000000000000000000000006020830152604082019050919050565b6000606083016000830151848203600086015261358a8282612f02565b915050602083015184820360208601526135a48282612f02565b915050604083015184820360408601526135be8282612f02565b9150508091505092915050565b600060a0830160008301516135e36000860182612e27565b50602083015184820360208601526135fb8282612f02565b915050604083015184820360408601526136158282612f02565b915050606083015161362a606086018261364f565b50608083015184820360808601526136428282612f02565b9150508091505092915050565b61365881613c8b565b82525050565b61366781613c8b565b82525050565b60006136798285612f74565b91506136858284612f74565b91508190509392505050565b60006020820190506136a66000830184612e36565b92915050565b60006080820190506136c16000830187612e36565b6136ce6020830186612e36565b6136db604083018561365e565b81810360608301526136ed8184612ec9565b905095945050505050565b600060a08201905061370d6000830188612e36565b818103602083015261371f8187612f3b565b905081810360408301526137338186612f3b565b9050613742606083018561365e565b81810360808301526137548184612f3b565b90509695505050505050565b6000602082019050818103600083015261377a8184612e45565b905092915050565b60006020820190506137976000830184612eba565b92915050565b600060208201905081810360008301526137b78184612f3b565b905092915050565b600060608201905081810360008301526137d98186612f3b565b905081810360208301526137ed8185612f3b565b905081810360408301526138018184612f3b565b9050949350505050565b6000602082019050818103600083015261382481612fa5565b9050919050565b600060208201905081810360008301526138448161300b565b9050919050565b6000602082019050818103600083015261386481613071565b9050919050565b60006020820190508181036000830152613884816130b1565b9050919050565b600060208201905081810360008301526138a481613117565b9050919050565b600060208201905081810360008301526138c481613157565b9050919050565b600060208201905081810360008301526138e4816131bd565b9050919050565b6000602082019050818103600083015261390481613223565b9050919050565b6000602082019050818103600083015261392481613289565b9050919050565b60006020820190508181036000830152613944816132ef565b9050919050565b600060208201905081810360008301526139648161332f565b9050919050565b6000602082019050818103600083015261398481613395565b9050919050565b600060208201905081810360008301526139a4816133d5565b9050919050565b600060208201905081810360008301526139c48161343b565b9050919050565b600060208201905081810360008301526139e4816134a1565b9050919050565b60006020820190508181036000830152613a0481613507565b9050919050565b60006020820190508181036000830152613a25818461356d565b905092915050565b6000602082019050613a42600083018461365e565b92915050565b6000604051905081810181811067ffffffffffffffff82111715613a6f57613a6e613e10565b5b8060405250919050565b600067ffffffffffffffff821115613a9457613a93613e10565b5b601f19601f8301169050602081019050919050565b600067ffffffffffffffff821115613ac457613ac3613e10565b5b601f19601f8301169050602081019050919050565b6000819050602082019050919050565b600081519050919050565b600081519050919050565b600081519050919050565b6000602082019050919050565b600082825260208201905092915050565b600082825260208201905092915050565b600082825260208201905092915050565b600082825260208201905092915050565b600081905092915050565b6000613b7182613c8b565b9150613b7c83613c8b565b9250827fffffffffffffffffffffffffffffffffffffffffffffffffffffffffffffffff03821115613bb157613bb0613d83565b5b828201905092915050565b6000613bc782613c8b565b9150613bd283613c8b565b925082613be257613be1613db2565b5b828204905092915050565b6000613bf882613c8b565b9150613c0383613c8b565b925082821015613c1657613c15613d83565b5b828203905092915050565b6000613c2c82613c6b565b9050919050565b60008115159050919050565b60007fffffffff0000000000000000000000000000000000000000000000000000000082169050919050565b600073ffffffffffffffffffffffffffffffffffffffff82169050919050565b6000819050919050565b82818337600083830152505050565b60005b83811015613cc2578082015181840152602081019050613ca7565b83811115613cd1576000848401525b50505050565b60006002820490506001821680613cef57607f821691505b60208210811415613d0357613d02613de1565b5b50919050565b6000613d1482613c8b565b91507fffffffffffffffffffffffffffffffffffffffffffffffffffffffffffffffff821415613d4757613d46613d83565b5b600182019050919050565b6000613d5d82613c8b565b9150613d6883613c8b565b925082613d7857613d77613db2565b5b828206905092915050565b7f4e487b7100000000000000000000000000000000000000000000000000000000600052601160045260246000fd5b7f4e487b7100000000000000000000000000000000000000000000000000000000600052601260045260246000fd5b7f4e487b7100000000000000000000000000000000000000000000000000000000600052602260045260246000fd5b7f4e487b7100000000000000000000000000000000000000000000000000000000600052604160045260246000fd5b6000601f19601f8301169050919050565b613e5981613c21565b8114613e6457600080fd5b50565b613e7081613c33565b8114613e7b57600080fd5b50565b613e8781613c3f565b8114613e9257600080fd5b50565b613e9e81613c8b565b8114613ea957600080fd5b5056fea2646970667358221220808cfb5e1d624e38f7216f67bb47a7bfb7cb6f9eb526293e7b9f1fc758288c4564736f6c63430008000033",
  "linkReferences": {},
  "deployedLinkReferences": {}
}