{
  "_format": "hh-sol-artifact-1",
  "contractName": "VaxNFT",
  "sourceName": "contracts/vaxNFT.sol",
  "abi": [
    {
      "inputs": [],
      "stateMutability": "nonpayable",
      "type": "constructor"
    },
    {
      "anonymous": false,
      "inputs": [
        {
          "indexed": true,
          "internalType": "address",
          "name": "owner",
          "type": "address"
        },
        {
          "indexed": true,
          "internalType": "address",
          "name": "approved",
          "type": "address"
        },
        {
          "indexed": true,
          "internalType": "uint256",
          "name": "tokenId",
          "type": "uint256"
        }
      ],
      "name": "Approval",
      "type": "event"
    },
    {
      "anonymous": false,
      "inputs": [
        {
          "indexed": true,
          "internalType": "address",
          "name": "owner",
          "type": "address"
        },
        {
          "indexed": true,
          "internalType": "address",
          "name": "operator",
          "type": "address"
        },
        {
          "indexed": false,
          "internalType": "bool",
          "name": "approved",
          "type": "bool"
        }
      ],
      "name": "ApprovalForAll",
      "type": "event"
    },
    {
      "anonymous": false,
      "inputs": [
        {
          "indexed": true,
          "internalType": "address",
          "name": "previousOwner",
          "type": "address"
        },
        {
          "indexed": true,
          "internalType": "address",
          "name": "newOwner",
          "type": "address"
        }
      ],
      "name": "OwnershipTransferred",
      "type": "event"
    },
    {
      "anonymous": false,
      "inputs": [
        {
          "indexed": true,
          "internalType": "address",
          "name": "from",
          "type": "address"
        },
        {
          "indexed": true,
          "internalType": "address",
          "name": "to",
          "type": "address"
        },
        {
          "indexed": true,
          "internalType": "uint256",
          "name": "tokenId",
          "type": "uint256"
        }
      ],
      "name": "Transfer",
      "type": "event"
    },
    {
      "inputs": [
        {
          "internalType": "address",
          "name": "to",
          "type": "address"
        },
        {
          "internalType": "uint256",
          "name": "tokenId",
          "type": "uint256"
        }
      ],
      "name": "approve",
      "outputs": [],
      "stateMutability": "nonpayable",
      "type": "function"
    },
    {
      "inputs": [
        {
          "internalType": "address",
          "name": "owner",
          "type": "address"
        }
      ],
      "name": "balanceOf",
      "outputs": [
        {
          "internalType": "uint256",
          "name": "",
          "type": "uint256"
        }
      ],
      "stateMutability": "view",
      "type": "function"
    },
    {
      "inputs": [
        {
          "internalType": "string",
          "name": "_name",
          "type": "string"
        },
        {
          "internalType": "string",
          "name": "_p_address",
          "type": "string"
        },
        {
          "internalType": "string",
          "name": "_email",
          "type": "string"
        }
      ],
      "name": "clinicSignup",
      "outputs": [
        {
          "components": [
            {
              "internalType": "string",
              "name": "name",
              "type": "string"
            },
            {
              "internalType": "string",
              "name": "p_address",
              "type": "string"
            },
            {
              "internalType": "string",
              "name": "email",
              "type": "string"
            }
          ],
          "internalType": "struct VaxNFT.Clinic",
          "name": "",
          "type": "tuple"
        }
      ],
      "stateMutability": "nonpayable",
      "type": "function"
    },
    {
      "inputs": [
        {
          "internalType": "uint256",
          "name": "tokenId",
          "type": "uint256"
        }
      ],
      "name": "getApproved",
      "outputs": [
        {
          "internalType": "address",
          "name": "",
          "type": "address"
        }
      ],
      "stateMutability": "view",
      "type": "function"
    },
    {
      "inputs": [
        {
          "internalType": "address",
          "name": "owner",
          "type": "address"
        },
        {
          "internalType": "address",
          "name": "operator",
          "type": "address"
        }
      ],
      "name": "isApprovedForAll",
      "outputs": [
        {
          "internalType": "bool",
          "name": "",
          "type": "bool"
        }
      ],
      "stateMutability": "view",
      "type": "function"
    },
    {
      "inputs": [
        {
          "internalType": "string",
          "name": "_manufacturer",
          "type": "string"
        },
        {
          "internalType": "uint256",
          "name": "_dosePhase",
          "type": "uint256"
        }
      ],
      "name": "mintNFT",
      "outputs": [
        {
          "internalType": "uint256",
          "name": "",
          "type": "uint256"
        }
      ],
      "stateMutability": "nonpayable",
      "type": "function"
    },
    {
      "inputs": [],
      "name": "name",
      "outputs": [
        {
          "internalType": "string",
          "name": "",
          "type": "string"
        }
      ],
      "stateMutability": "view",
      "type": "function"
    },
    {
      "inputs": [],
      "name": "owner",
      "outputs": [
        {
          "internalType": "address",
          "name": "",
          "type": "address"
        }
      ],
      "stateMutability": "view",
      "type": "function"
    },
    {
      "inputs": [
        {
          "internalType": "uint256",
          "name": "tokenId",
          "type": "uint256"
        }
      ],
      "name": "ownerOf",
      "outputs": [
        {
          "internalType": "address",
          "name": "",
          "type": "address"
        }
      ],
      "stateMutability": "view",
      "type": "function"
    },
    {
      "inputs": [
        {
          "internalType": "string",
          "name": "_hash",
          "type": "string"
        }
      ],
      "name": "patientSignup",
      "outputs": [
        {
          "internalType": "string",
          "name": "",
          "type": "string"
        }
      ],
      "stateMutability": "nonpayable",
      "type": "function"
    },
    {
      "inputs": [],
      "name": "renounceOwnership",
      "outputs": [],
      "stateMutability": "nonpayable",
      "type": "function"
    },
    {
      "inputs": [
        {
          "internalType": "address",
          "name": "from",
          "type": "address"
        },
        {
          "internalType": "address",
          "name": "to",
          "type": "address"
        },
        {
          "internalType": "uint256",
          "name": "tokenId",
          "type": "uint256"
        }
      ],
      "name": "safeTransferFrom",
      "outputs": [],
      "stateMutability": "nonpayable",
      "type": "function"
    },
    {
      "inputs": [
        {
          "internalType": "address",
          "name": "from",
          "type": "address"
        },
        {
          "internalType": "address",
          "name": "to",
          "type": "address"
        },
        {
          "internalType": "uint256",
          "name": "tokenId",
          "type": "uint256"
        },
        {
          "internalType": "bytes",
          "name": "_data",
          "type": "bytes"
        }
      ],
      "name": "safeTransferFrom",
      "outputs": [],
      "stateMutability": "nonpayable",
      "type": "function"
    },
    {
      "inputs": [
        {
          "internalType": "address",
          "name": "operator",
          "type": "address"
        },
        {
          "internalType": "bool",
          "name": "approved",
          "type": "bool"
        }
      ],
      "name": "setApprovalForAll",
      "outputs": [],
      "stateMutability": "nonpayable",
      "type": "function"
    },
    {
      "inputs": [
        {
          "internalType": "bytes4",
          "name": "interfaceId",
          "type": "bytes4"
        }
      ],
      "name": "supportsInterface",
      "outputs": [
        {
          "internalType": "bool",
          "name": "",
          "type": "bool"
        }
      ],
      "stateMutability": "view",
      "type": "function"
    },
    {
      "inputs": [],
      "name": "symbol",
      "outputs": [
        {
          "internalType": "string",
          "name": "",
          "type": "string"
        }
      ],
      "stateMutability": "view",
      "type": "function"
    },
    {
      "inputs": [
        {
          "internalType": "uint256",
          "name": "",
          "type": "uint256"
        }
      ],
      "name": "tokenIdToTokenInfo",
      "outputs": [
        {
          "internalType": "address",
          "name": "mintAddress",
          "type": "address"
        },
        {
          "internalType": "string",
          "name": "manufacturer",
          "type": "string"
        },
        {
          "internalType": "uint256",
          "name": "dosePhase",
          "type": "uint256"
        }
      ],
      "stateMutability": "view",
      "type": "function"
    },
    {
      "inputs": [
        {
          "internalType": "uint256",
          "name": "tokenId",
          "type": "uint256"
        }
      ],
      "name": "tokenURI",
      "outputs": [
        {
          "internalType": "string",
          "name": "",
          "type": "string"
        }
      ],
      "stateMutability": "view",
      "type": "function"
    },
    {
      "inputs": [
        {
          "internalType": "address",
          "name": "_owner",
          "type": "address"
        }
      ],
      "name": "tokensOfOwner",
      "outputs": [
        {
          "components": [
            {
              "internalType": "address",
              "name": "mintAddress",
              "type": "address"
            },
            {
              "internalType": "string",
              "name": "manufacturer",
              "type": "string"
            },
            {
              "internalType": "uint256",
              "name": "dosePhase",
              "type": "uint256"
            }
          ],
          "internalType": "struct VaxNFT.TokenInfo[]",
          "name": "",
          "type": "tuple[]"
        }
      ],
      "stateMutability": "nonpayable",
      "type": "function"
    },
    {
      "inputs": [
        {
          "internalType": "address",
          "name": "from",
          "type": "address"
        },
        {
          "internalType": "address",
          "name": "to",
          "type": "address"
        },
        {
          "internalType": "uint256",
          "name": "tokenId",
          "type": "uint256"
        }
      ],
      "name": "transferFrom",
      "outputs": [],
      "stateMutability": "nonpayable",
      "type": "function"
    },
    {
      "inputs": [
        {
          "internalType": "address",
          "name": "toAddress",
          "type": "address"
        }
      ],
      "name": "transferNFT",
      "outputs": [
        {
          "internalType": "uint256",
          "name": "",
          "type": "uint256"
        }
      ],
      "stateMutability": "nonpayable",
      "type": "function"
    },
    {
      "inputs": [
        {
          "internalType": "address",
          "name": "newOwner",
          "type": "address"
        }
      ],
      "name": "transferOwnership",
      "outputs": [],
      "stateMutability": "nonpayable",
      "type": "function"
    },
    {
      "inputs": [
        {
          "internalType": "address",
          "name": "",
          "type": "address"
        }
      ],
      "name": "walletIdToClinic",
      "outputs": [
        {
          "internalType": "string",
          "name": "name",
          "type": "string"
        },
        {
          "internalType": "string",
          "name": "p_address",
          "type": "string"
        },
        {
          "internalType": "string",
          "name": "email",
          "type": "string"
        }
      ],
      "stateMutability": "view",
      "type": "function"
    },
    {
      "inputs": [
        {
          "internalType": "address",
          "name": "",
          "type": "address"
        }
      ],
      "name": "walletIdToPatientHash",
      "outputs": [
        {
          "internalType": "string",
          "name": "",
          "type": "string"
        }
      ],
      "stateMutability": "view",
      "type": "function"
    }
  ],
  "bytecode": "0x60806040523480156200001157600080fd5b506040518060400160405280600681526020017f5661784e465400000000000000000000000000000000000000000000000000008152506040518060400160405280600381526020017f4e46540000000000000000000000000000000000000000000000000000000000815250816000908051906020019062000096929190620001a6565b508060019080519060200190620000af929190620001a6565b505050620000d2620000c6620000d860201b60201c565b620000e060201b60201c565b620002bb565b600033905090565b6000600660009054906101000a900473ffffffffffffffffffffffffffffffffffffffff16905081600660006101000a81548173ffffffffffffffffffffffffffffffffffffffff021916908373ffffffffffffffffffffffffffffffffffffffff1602179055508173ffffffffffffffffffffffffffffffffffffffff168173ffffffffffffffffffffffffffffffffffffffff167f8be0079c531659141344cd1fd0a4f28419497f9722a3daafe3b4186f6b6457e060405160405180910390a35050565b828054620001b49062000256565b90600052602060002090601f016020900481019282620001d8576000855562000224565b82601f10620001f357805160ff191683800117855562000224565b8280016001018555821562000224579182015b828111156200022357825182559160200191906001019062000206565b5b50905062000233919062000237565b5090565b5b808211156200025257600081600090555060010162000238565b5090565b600060028204905060018216806200026f57607f821691505b602082108114156200028657620002856200028c565b5b50919050565b7f4e487b7100000000000000000000000000000000000000000000000000000000600052602260045260246000fd5b613d0d80620002cb6000396000f3fe608060405234801561001057600080fd5b50600436106101585760003560e01c80636352211e116100c357806395d89b411161007c57806395d89b411461043b578063a22cb46514610459578063b88d4fde14610475578063c87b56dd14610491578063e985e9c5146104c1578063f2fde38b146104f157610158565b80636352211e1461035157806370a0823114610381578063715018a6146103b15780638462151c146103bb5780638da5cb5b146103eb5780639347200c1461040957610158565b80632bc01145116101155780632bc01145146102435780632ffd0d821461027357806336e986ef146102a357806342842e0e146102d35780635afa3a72146102ef5780635fb8bcd51461031f57610158565b806301ffc9a71461015d57806306fdde031461018d578063081812fc146101ab578063095ea7b3146101db57806310b6977e146101f757806323b872dd14610227575b600080fd5b61017760048036038101906101729190612a6f565b61050d565b604051610184919061358d565b60405180910390f35b6101956105ef565b6040516101a291906135a8565b60405180910390f35b6101c560048036038101906101c09190612bed565b610681565b6040516101d291906134c6565b60405180910390f35b6101f560048036038101906101f09190612a33565b610706565b005b610211600480360381019061020c9190612ac1565b61081e565b60405161021e91906135a8565b60405180910390f35b610241600480360381019061023c919061292d565b610951565b005b61025d60048036038101906102589190612b02565b6109b1565b60405161026a9190613836565b60405180910390f35b61028d600480360381019061028891906128c8565b610c84565b60405161029a91906135a8565b60405180910390f35b6102bd60048036038101906102b891906128c8565b610d24565b6040516102ca9190613858565b60405180910390f35b6102ed60048036038101906102e8919061292d565b610ddb565b005b61030960048036038101906103049190612b99565b610dfb565b6040516103169190613858565b60405180910390f35b61033960048036038101906103349190612bed565b610eec565b6040516103489392919061352d565b60405180910390f35b61036b60048036038101906103669190612bed565b610fbe565b60405161037891906134c6565b60405180910390f35b61039b600480360381019061039691906128c8565b611070565b6040516103a89190613858565b60405180910390f35b6103b9611128565b005b6103d560048036038101906103d091906128c8565b6111b0565b6040516103e2919061356b565b60405180910390f35b6103f36114a6565b60405161040091906134c6565b60405180910390f35b610423600480360381019061041e91906128c8565b6114d0565b604051610432939291906135ca565b60405180910390f35b610443611692565b60405161045091906135a8565b60405180910390f35b610473600480360381019061046e91906129f7565b611724565b005b61048f600480360381019061048a919061297c565b61173a565b005b6104ab60048036038101906104a69190612bed565b61179c565b6040516104b891906135a8565b60405180910390f35b6104db60048036038101906104d691906128f1565b611843565b6040516104e8919061358d565b60405180910390f35b61050b600480360381019061050691906128c8565b6118d7565b005b60007f80ac58cd000000000000000000000000000000000000000000000000000000007bffffffffffffffffffffffffffffffffffffffffffffffffffffffff1916827bffffffffffffffffffffffffffffffffffffffffffffffffffffffff191614806105d857507f5b5e139f000000000000000000000000000000000000000000000000000000007bffffffffffffffffffffffffffffffffffffffffffffffffffffffff1916827bffffffffffffffffffffffffffffffffffffffffffffffffffffffff1916145b806105e857506105e7826119cf565b5b9050919050565b6060600080546105fe90613b02565b80601f016020809104026020016040519081016040528092919081815260200182805461062a90613b02565b80156106775780601f1061064c57610100808354040283529160200191610677565b820191906000526020600020905b81548152906001019060200180831161065a57829003601f168201915b5050505050905090565b600061068c82611a39565b6106cb576040517f08c379a00000000000000000000000000000000000000000000000000000000081526004016106c290613756565b60405180910390fd5b6004600083815260200190815260200160002060009054906101000a900473ffffffffffffffffffffffffffffffffffffffff169050919050565b600061071182610fbe565b90508073ffffffffffffffffffffffffffffffffffffffff168373ffffffffffffffffffffffffffffffffffffffff161415610782576040517f08c379a0000000000000000000000000000000000000000000000000000000008152600401610779906137d6565b60405180910390fd5b8073ffffffffffffffffffffffffffffffffffffffff166107a1611aa5565b73ffffffffffffffffffffffffffffffffffffffff1614806107d057506107cf816107ca611aa5565b611843565b5b61080f576040517f08c379a0000000000000000000000000000000000000000000000000000000008152600401610806906136d6565b60405180910390fd5b6108198383611aad565b505050565b6060816009600061082d611aa5565b73ffffffffffffffffffffffffffffffffffffffff1673ffffffffffffffffffffffffffffffffffffffff168152602001908152602001600020908051906020019061087a929190612694565b5060096000610887611aa5565b73ffffffffffffffffffffffffffffffffffffffff1673ffffffffffffffffffffffffffffffffffffffff16815260200190815260200160002080546108cc90613b02565b80601f01602080910402602001604051908101604052809291908181526020018280546108f890613b02565b80156109455780601f1061091a57610100808354040283529160200191610945565b820191906000526020600020905b81548152906001019060200180831161092857829003601f168201915b50505050509050919050565b61096261095c611aa5565b82611b66565b6109a1576040517f08c379a000000000000000000000000000000000000000000000000000000000815260040161099890613816565b60405180910390fd5b6109ac838383611c44565b505050565b6109b961271a565b604051806060016040528085815260200184815260200183815250600a60006109e0611aa5565b73ffffffffffffffffffffffffffffffffffffffff1673ffffffffffffffffffffffffffffffffffffffff1681526020019081526020016000206000820151816000019080519060200190610a36929190612694565b506020820151816001019080519060200190610a53929190612694565b506040820151816002019080519060200190610a70929190612694565b50905050600a6000610a80611aa5565b73ffffffffffffffffffffffffffffffffffffffff1673ffffffffffffffffffffffffffffffffffffffff168152602001908152602001600020604051806060016040529081600082018054610ad590613b02565b80601f0160208091040260200160405190810160405280929190818152602001828054610b0190613b02565b8015610b4e5780601f10610b2357610100808354040283529160200191610b4e565b820191906000526020600020905b815481529060010190602001808311610b3157829003601f168201915b50505050508152602001600182018054610b6790613b02565b80601f0160208091040260200160405190810160405280929190818152602001828054610b9390613b02565b8015610be05780601f10610bb557610100808354040283529160200191610be0565b820191906000526020600020905b815481529060010190602001808311610bc357829003601f168201915b50505050508152602001600282018054610bf990613b02565b80601f0160208091040260200160405190810160405280929190818152602001828054610c2590613b02565b8015610c725780601f10610c4757610100808354040283529160200191610c72565b820191906000526020600020905b815481529060010190602001808311610c5557829003601f168201915b50505050508152505090509392505050565b60096020528060005260406000206000915090508054610ca390613b02565b80601f0160208091040260200160405190810160405280929190818152602001828054610ccf90613b02565b8015610d1c5780601f10610cf157610100808354040283529160200191610d1c565b820191906000526020600020905b815481529060010190602001808311610cff57829003601f168201915b505050505081565b600080610d316007611ea0565b90506000610d3e82610fbe565b90508073ffffffffffffffffffffffffffffffffffffffff16610d5f611aa5565b73ffffffffffffffffffffffffffffffffffffffff1614610db5576040517f08c379a0000000000000000000000000000000000000000000000000000000008152600401610dac906137f6565b60405180910390fd5b610dbf8483610706565b610dd1610dca611aa5565b8584610ddb565b8192505050919050565b610df68383836040518060200160405280600081525061173a565b505050565b6000610e076007611eae565b6000610e136007611ea0565b9050610e26610e20611aa5565b82611ec4565b6040518060600160405280610e39611aa5565b73ffffffffffffffffffffffffffffffffffffffff168152602001858152602001848152506008600083815260200190815260200160002060008201518160000160006101000a81548173ffffffffffffffffffffffffffffffffffffffff021916908373ffffffffffffffffffffffffffffffffffffffff1602179055506020820151816001019080519060200190610ed4929190612694565b50604082015181600201559050508091505092915050565b60086020528060005260406000206000915090508060000160009054906101000a900473ffffffffffffffffffffffffffffffffffffffff1690806001018054610f3590613b02565b80601f0160208091040260200160405190810160405280929190818152602001828054610f6190613b02565b8015610fae5780601f10610f8357610100808354040283529160200191610fae565b820191906000526020600020905b815481529060010190602001808311610f9157829003601f168201915b5050505050908060020154905083565b6000806002600084815260200190815260200160002060009054906101000a900473ffffffffffffffffffffffffffffffffffffffff169050600073ffffffffffffffffffffffffffffffffffffffff168173ffffffffffffffffffffffffffffffffffffffff161415611067576040517f08c379a000000000000000000000000000000000000000000000000000000000815260040161105e90613716565b60405180910390fd5b80915050919050565b60008073ffffffffffffffffffffffffffffffffffffffff168273ffffffffffffffffffffffffffffffffffffffff1614156110e1576040517f08c379a00000000000000000000000000000000000000000000000000000000081526004016110d8906136f6565b60405180910390fd5b600360008373ffffffffffffffffffffffffffffffffffffffff1673ffffffffffffffffffffffffffffffffffffffff168152602001908152602001600020549050919050565b611130611aa5565b73ffffffffffffffffffffffffffffffffffffffff1661114e6114a6565b73ffffffffffffffffffffffffffffffffffffffff16146111a4576040517f08c379a000000000000000000000000000000000000000000000000000000000815260040161119b90613776565b60405180910390fd5b6111ae6000612092565b565b606060006111bd83611070565b9050600081141561124b57600067ffffffffffffffff811115611209577f4e487b7100000000000000000000000000000000000000000000000000000000600052604160045260246000fd5b60405190808252806020026020018201604052801561124257816020015b61122f61273b565b8152602001906001900390816112275790505b509150506114a1565b60008167ffffffffffffffff81111561128d577f4e487b7100000000000000000000000000000000000000000000000000000000600052604160045260246000fd5b6040519080825280602002602001820160405280156112c657816020015b6112b361273b565b8152602001906001900390816112ab5790505b50905060006112d56007611ea0565b9050600080600190505b828111611498578673ffffffffffffffffffffffffffffffffffffffff1661130682610fbe565b73ffffffffffffffffffffffffffffffffffffffff16141561148557600860008281526020019081526020016000206040518060600160405290816000820160009054906101000a900473ffffffffffffffffffffffffffffffffffffffff1673ffffffffffffffffffffffffffffffffffffffff1673ffffffffffffffffffffffffffffffffffffffff1681526020016001820180546113a690613b02565b80601f01602080910402602001604051908101604052809291908181526020018280546113d290613b02565b801561141f5780601f106113f45761010080835404028352916020019161141f565b820191906000526020600020905b81548152906001019060200180831161140257829003601f168201915b5050505050815260200160028201548152505084838151811061146b577f4e487b7100000000000000000000000000000000000000000000000000000000600052603260045260246000fd5b6020026020010181905250818061148190613b34565b9250505b808061149090613b34565b9150506112df565b83955050505050505b919050565b6000600660009054906101000a900473ffffffffffffffffffffffffffffffffffffffff16905090565b600a6020528060005260406000206000915090508060000180546114f390613b02565b80601f016020809104026020016040519081016040528092919081815260200182805461151f90613b02565b801561156c5780601f106115415761010080835404028352916020019161156c565b820191906000526020600020905b81548152906001019060200180831161154f57829003601f168201915b50505050509080600101805461158190613b02565b80601f01602080910402602001604051908101604052809291908181526020018280546115ad90613b02565b80156115fa5780601f106115cf576101008083540402835291602001916115fa565b820191906000526020600020905b8154815290600101906020018083116115dd57829003601f168201915b50505050509080600201805461160f90613b02565b80601f016020809104026020016040519081016040528092919081815260200182805461163b90613b02565b80156116885780601f1061165d57610100808354040283529160200191611688565b820191906000526020600020905b81548152906001019060200180831161166b57829003601f168201915b5050505050905083565b6060600180546116a190613b02565b80601f01602080910402602001604051908101604052809291908181526020018280546116cd90613b02565b801561171a5780601f106116ef5761010080835404028352916020019161171a565b820191906000526020600020905b8154815290600101906020018083116116fd57829003601f168201915b5050505050905090565b61173661172f611aa5565b8383612158565b5050565b61174b611745611aa5565b83611b66565b61178a576040517f08c379a000000000000000000000000000000000000000000000000000000000815260040161178190613816565b60405180910390fd5b611796848484846122c5565b50505050565b60606117a782611a39565b6117e6576040517f08c379a00000000000000000000000000000000000000000000000000000000081526004016117dd906137b6565b60405180910390fd5b60006117f0612321565b90506000815111611810576040518060200160405280600081525061183b565b8061181a84612338565b60405160200161182b9291906134a2565b6040516020818303038152906040525b915050919050565b6000600560008473ffffffffffffffffffffffffffffffffffffffff1673ffffffffffffffffffffffffffffffffffffffff16815260200190815260200160002060008373ffffffffffffffffffffffffffffffffffffffff1673ffffffffffffffffffffffffffffffffffffffff16815260200190815260200160002060009054906101000a900460ff16905092915050565b6118df611aa5565b73ffffffffffffffffffffffffffffffffffffffff166118fd6114a6565b73ffffffffffffffffffffffffffffffffffffffff1614611953576040517f08c379a000000000000000000000000000000000000000000000000000000000815260040161194a90613776565b60405180910390fd5b600073ffffffffffffffffffffffffffffffffffffffff168173ffffffffffffffffffffffffffffffffffffffff1614156119c3576040517f08c379a00000000000000000000000000000000000000000000000000000000081526004016119ba90613636565b60405180910390fd5b6119cc81612092565b50565b60007f01ffc9a7000000000000000000000000000000000000000000000000000000007bffffffffffffffffffffffffffffffffffffffffffffffffffffffff1916827bffffffffffffffffffffffffffffffffffffffffffffffffffffffff1916149050919050565b60008073ffffffffffffffffffffffffffffffffffffffff166002600084815260200190815260200160002060009054906101000a900473ffffffffffffffffffffffffffffffffffffffff1673ffffffffffffffffffffffffffffffffffffffff1614159050919050565b600033905090565b816004600083815260200190815260200160002060006101000a81548173ffffffffffffffffffffffffffffffffffffffff021916908373ffffffffffffffffffffffffffffffffffffffff160217905550808273ffffffffffffffffffffffffffffffffffffffff16611b2083610fbe565b73ffffffffffffffffffffffffffffffffffffffff167f8c5be1e5ebec7d5bd14f71427d1e84f3dd0314c0f7b2291e5b200ac8c7c3b92560405160405180910390a45050565b6000611b7182611a39565b611bb0576040517f08c379a0000000000000000000000000000000000000000000000000000000008152600401611ba7906136b6565b60405180910390fd5b6000611bbb83610fbe565b90508073ffffffffffffffffffffffffffffffffffffffff168473ffffffffffffffffffffffffffffffffffffffff161480611c2a57508373ffffffffffffffffffffffffffffffffffffffff16611c1284610681565b73ffffffffffffffffffffffffffffffffffffffff16145b80611c3b5750611c3a8185611843565b5b91505092915050565b8273ffffffffffffffffffffffffffffffffffffffff16611c6482610fbe565b73ffffffffffffffffffffffffffffffffffffffff1614611cba576040517f08c379a0000000000000000000000000000000000000000000000000000000008152600401611cb190613796565b60405180910390fd5b600073ffffffffffffffffffffffffffffffffffffffff168273ffffffffffffffffffffffffffffffffffffffff161415611d2a576040517f08c379a0000000000000000000000000000000000000000000000000000000008152600401611d2190613676565b60405180910390fd5b611d358383836124e5565b611d40600082611aad565b6001600360008573ffffffffffffffffffffffffffffffffffffffff1673ffffffffffffffffffffffffffffffffffffffff1681526020019081526020016000206000828254611d909190613a18565b925050819055506001600360008473ffffffffffffffffffffffffffffffffffffffff1673ffffffffffffffffffffffffffffffffffffffff1681526020019081526020016000206000828254611de79190613991565b92505081905550816002600083815260200190815260200160002060006101000a81548173ffffffffffffffffffffffffffffffffffffffff021916908373ffffffffffffffffffffffffffffffffffffffff160217905550808273ffffffffffffffffffffffffffffffffffffffff168473ffffffffffffffffffffffffffffffffffffffff167fddf252ad1be2c89b69c2b068fc378daa952ba7f163c4a11628f55a4df523b3ef60405160405180910390a4505050565b600081600001549050919050565b6001816000016000828254019250508190555050565b600073ffffffffffffffffffffffffffffffffffffffff168273ffffffffffffffffffffffffffffffffffffffff161415611f34576040517f08c379a0000000000000000000000000000000000000000000000000000000008152600401611f2b90613736565b60405180910390fd5b611f3d81611a39565b15611f7d576040517f08c379a0000000000000000000000000000000000000000000000000000000008152600401611f7490613656565b60405180910390fd5b611f89600083836124e5565b6001600360008473ffffffffffffffffffffffffffffffffffffffff1673ffffffffffffffffffffffffffffffffffffffff1681526020019081526020016000206000828254611fd99190613991565b92505081905550816002600083815260200190815260200160002060006101000a81548173ffffffffffffffffffffffffffffffffffffffff021916908373ffffffffffffffffffffffffffffffffffffffff160217905550808273ffffffffffffffffffffffffffffffffffffffff16600073ffffffffffffffffffffffffffffffffffffffff167fddf252ad1be2c89b69c2b068fc378daa952ba7f163c4a11628f55a4df523b3ef60405160405180910390a45050565b6000600660009054906101000a900473ffffffffffffffffffffffffffffffffffffffff16905081600660006101000a81548173ffffffffffffffffffffffffffffffffffffffff021916908373ffffffffffffffffffffffffffffffffffffffff1602179055508173ffffffffffffffffffffffffffffffffffffffff168173ffffffffffffffffffffffffffffffffffffffff167f8be0079c531659141344cd1fd0a4f28419497f9722a3daafe3b4186f6b6457e060405160405180910390a35050565b8173ffffffffffffffffffffffffffffffffffffffff168373ffffffffffffffffffffffffffffffffffffffff1614156121c7576040517f08c379a00000000000000000000000000000000000000000000000000000000081526004016121be90613696565b60405180910390fd5b80600560008573ffffffffffffffffffffffffffffffffffffffff1673ffffffffffffffffffffffffffffffffffffffff16815260200190815260200160002060008473ffffffffffffffffffffffffffffffffffffffff1673ffffffffffffffffffffffffffffffffffffffff16815260200190815260200160002060006101000a81548160ff0219169083151502179055508173ffffffffffffffffffffffffffffffffffffffff168373ffffffffffffffffffffffffffffffffffffffff167f17307eab39ab6107e8899845ad3d59bd9653f200f220920489ca2b5937696c31836040516122b8919061358d565b60405180910390a3505050565b6122d0848484611c44565b6122dc848484846124ea565b61231b576040517f08c379a000000000000000000000000000000000000000000000000000000000815260040161231290613616565b60405180910390fd5b50505050565b606060405180602001604052806000815250905090565b60606000821415612380576040518060400160405280600181526020017f300000000000000000000000000000000000000000000000000000000000000081525090506124e0565b600082905060005b600082146123b257808061239b90613b34565b915050600a826123ab91906139e7565b9150612388565b60008167ffffffffffffffff8111156123f4577f4e487b7100000000000000000000000000000000000000000000000000000000600052604160045260246000fd5b6040519080825280601f01601f1916602001820160405280156124265781602001600182028036833780820191505090505b5090505b600085146124d95760018261243f9190613a18565b9150600a8561244e9190613b7d565b603061245a9190613991565b60f81b818381518110612496577f4e487b7100000000000000000000000000000000000000000000000000000000600052603260045260246000fd5b60200101907effffffffffffffffffffffffffffffffffffffffffffffffffffffffffffff1916908160001a905350600a856124d291906139e7565b945061242a565b8093505050505b919050565b505050565b600061250b8473ffffffffffffffffffffffffffffffffffffffff16612681565b15612674578373ffffffffffffffffffffffffffffffffffffffff1663150b7a02612534611aa5565b8786866040518563ffffffff1660e01b815260040161255694939291906134e1565b602060405180830381600087803b15801561257057600080fd5b505af19250505080156125a157506040513d601f19601f8201168201806040525081019061259e9190612a98565b60015b612624573d80600081146125d1576040519150601f19603f3d011682016040523d82523d6000602084013e6125d6565b606091505b5060008151141561261c576040517f08c379a000000000000000000000000000000000000000000000000000000000815260040161261390613616565b60405180910390fd5b805181602001fd5b63150b7a0260e01b7bffffffffffffffffffffffffffffffffffffffffffffffffffffffff1916817bffffffffffffffffffffffffffffffffffffffffffffffffffffffff191614915050612679565b600190505b949350505050565b600080823b905060008111915050919050565b8280546126a090613b02565b90600052602060002090601f0160209004810192826126c25760008555612709565b82601f106126db57805160ff1916838001178555612709565b82800160010185558215612709579182015b828111156127085782518255916020019190600101906126ed565b5b5090506127169190612772565b5090565b60405180606001604052806060815260200160608152602001606081525090565b6040518060600160405280600073ffffffffffffffffffffffffffffffffffffffff16815260200160608152602001600081525090565b5b8082111561278b576000816000905550600101612773565b5090565b60006127a261279d846138a4565b613873565b9050828152602081018484840111156127ba57600080fd5b6127c5848285613ac0565b509392505050565b60006127e06127db846138d4565b613873565b9050828152602081018484840111156127f857600080fd5b612803848285613ac0565b509392505050565b60008135905061281a81613c7b565b92915050565b60008135905061282f81613c92565b92915050565b60008135905061284481613ca9565b92915050565b60008151905061285981613ca9565b92915050565b600082601f83011261287057600080fd5b813561288084826020860161278f565b91505092915050565b600082601f83011261289a57600080fd5b81356128aa8482602086016127cd565b91505092915050565b6000813590506128c281613cc0565b92915050565b6000602082840312156128da57600080fd5b60006128e88482850161280b565b91505092915050565b6000806040838503121561290457600080fd5b60006129128582860161280b565b92505060206129238582860161280b565b9150509250929050565b60008060006060848603121561294257600080fd5b60006129508682870161280b565b93505060206129618682870161280b565b9250506040612972868287016128b3565b9150509250925092565b6000806000806080858703121561299257600080fd5b60006129a08782880161280b565b94505060206129b18782880161280b565b93505060406129c2878288016128b3565b925050606085013567ffffffffffffffff8111156129df57600080fd5b6129eb8782880161285f565b91505092959194509250565b60008060408385031215612a0a57600080fd5b6000612a188582860161280b565b9250506020612a2985828601612820565b9150509250929050565b60008060408385031215612a4657600080fd5b6000612a548582860161280b565b9250506020612a65858286016128b3565b9150509250929050565b600060208284031215612a8157600080fd5b6000612a8f84828501612835565b91505092915050565b600060208284031215612aaa57600080fd5b6000612ab88482850161284a565b91505092915050565b600060208284031215612ad357600080fd5b600082013567ffffffffffffffff811115612aed57600080fd5b612af984828501612889565b91505092915050565b600080600060608486031215612b1757600080fd5b600084013567ffffffffffffffff811115612b3157600080fd5b612b3d86828701612889565b935050602084013567ffffffffffffffff811115612b5a57600080fd5b612b6686828701612889565b925050604084013567ffffffffffffffff811115612b8357600080fd5b612b8f86828701612889565b9150509250925092565b60008060408385031215612bac57600080fd5b600083013567ffffffffffffffff811115612bc657600080fd5b612bd285828601612889565b9250506020612be3858286016128b3565b9150509250929050565b600060208284031215612bff57600080fd5b6000612c0d848285016128b3565b91505092915050565b6000612c228383613434565b905092915050565b612c3381613a4c565b82525050565b612c4281613a4c565b82525050565b6000612c5382613914565b612c5d8185613942565b935083602082028501612c6f85613904565b8060005b85811015612cab5784840389528151612c8c8582612c16565b9450612c9783613935565b925060208a01995050600181019050612c73565b50829750879550505050505092915050565b612cc681613a5e565b82525050565b6000612cd78261391f565b612ce18185613953565b9350612cf1818560208601613acf565b612cfa81613c6a565b840191505092915050565b6000612d108261392a565b612d1a8185613964565b9350612d2a818560208601613acf565b612d3381613c6a565b840191505092915050565b6000612d498261392a565b612d538185613975565b9350612d63818560208601613acf565b612d6c81613c6a565b840191505092915050565b6000612d828261392a565b612d8c8185613986565b9350612d9c818560208601613acf565b80840191505092915050565b6000612db5603283613975565b91507f4552433732313a207472616e7366657220746f206e6f6e20455243373231526560008301527f63656976657220696d706c656d656e74657200000000000000000000000000006020830152604082019050919050565b6000612e1b602683613975565b91507f4f776e61626c653a206e6577206f776e657220697320746865207a65726f206160008301527f64647265737300000000000000000000000000000000000000000000000000006020830152604082019050919050565b6000612e81601c83613975565b91507f4552433732313a20746f6b656e20616c7265616479206d696e746564000000006000830152602082019050919050565b6000612ec1602483613975565b91507f4552433732313a207472616e7366657220746f20746865207a65726f2061646460008301527f72657373000000000000000000000000000000000000000000000000000000006020830152604082019050919050565b6000612f27601983613975565b91507f4552433732313a20617070726f766520746f2063616c6c6572000000000000006000830152602082019050919050565b6000612f67602c83613975565b91507f4552433732313a206f70657261746f7220717565727920666f72206e6f6e657860008301527f697374656e7420746f6b656e00000000000000000000000000000000000000006020830152604082019050919050565b6000612fcd603883613975565b91507f4552433732313a20617070726f76652063616c6c6572206973206e6f74206f7760008301527f6e6572206e6f7220617070726f76656420666f7220616c6c00000000000000006020830152604082019050919050565b6000613033602a83613975565b91507f4552433732313a2062616c616e636520717565727920666f7220746865207a6560008301527f726f2061646472657373000000000000000000000000000000000000000000006020830152604082019050919050565b6000613099602983613975565b91507f4552433732313a206f776e657220717565727920666f72206e6f6e657869737460008301527f656e7420746f6b656e00000000000000000000000000000000000000000000006020830152604082019050919050565b60006130ff602083613975565b91507f4552433732313a206d696e7420746f20746865207a65726f20616464726573736000830152602082019050919050565b600061313f602c83613975565b91507f4552433732313a20617070726f76656420717565727920666f72206e6f6e657860008301527f697374656e7420746f6b656e00000000000000000000000000000000000000006020830152604082019050919050565b60006131a5602083613975565b91507f4f776e61626c653a2063616c6c6572206973206e6f7420746865206f776e65726000830152602082019050919050565b60006131e5602983613975565b91507f4552433732313a207472616e73666572206f6620746f6b656e2074686174206960008301527f73206e6f74206f776e00000000000000000000000000000000000000000000006020830152604082019050919050565b600061324b602f83613975565b91507f4552433732314d657461646174613a2055524920717565727920666f72206e6f60008301527f6e6578697374656e7420746f6b656e00000000000000000000000000000000006020830152604082019050919050565b60006132b1602183613975565b91507f4552433732313a20617070726f76616c20746f2063757272656e74206f776e6560008301527f72000000000000000000000000000000000000000000000000000000000000006020830152604082019050919050565b6000613317602583613975565b91507f6d736753656e646572206973206e6f7420746865206f776e6572206f6620746860008301527f65204e46540000000000000000000000000000000000000000000000000000006020830152604082019050919050565b600061337d603183613975565b91507f4552433732313a207472616e736665722063616c6c6572206973206e6f74206f60008301527f776e6572206e6f7220617070726f7665640000000000000000000000000000006020830152604082019050919050565b600060608301600083015184820360008601526133f38282612d05565b9150506020830151848203602086015261340d8282612d05565b915050604083015184820360408601526134278282612d05565b9150508091505092915050565b600060608301600083015161344c6000860182612c2a565b50602083015184820360208601526134648282612d05565b91505060408301516134796040860182613484565b508091505092915050565b61348d81613ab6565b82525050565b61349c81613ab6565b82525050565b60006134ae8285612d77565b91506134ba8284612d77565b91508190509392505050565b60006020820190506134db6000830184612c39565b92915050565b60006080820190506134f66000830187612c39565b6135036020830186612c39565b6135106040830185613493565b81810360608301526135228184612ccc565b905095945050505050565b60006060820190506135426000830186612c39565b81810360208301526135548185612d3e565b90506135636040830184613493565b949350505050565b600060208201905081810360008301526135858184612c48565b905092915050565b60006020820190506135a26000830184612cbd565b92915050565b600060208201905081810360008301526135c28184612d3e565b905092915050565b600060608201905081810360008301526135e48186612d3e565b905081810360208301526135f88185612d3e565b9050818103604083015261360c8184612d3e565b9050949350505050565b6000602082019050818103600083015261362f81612da8565b9050919050565b6000602082019050818103600083015261364f81612e0e565b9050919050565b6000602082019050818103600083015261366f81612e74565b9050919050565b6000602082019050818103600083015261368f81612eb4565b9050919050565b600060208201905081810360008301526136af81612f1a565b9050919050565b600060208201905081810360008301526136cf81612f5a565b9050919050565b600060208201905081810360008301526136ef81612fc0565b9050919050565b6000602082019050818103600083015261370f81613026565b9050919050565b6000602082019050818103600083015261372f8161308c565b9050919050565b6000602082019050818103600083015261374f816130f2565b9050919050565b6000602082019050818103600083015261376f81613132565b9050919050565b6000602082019050818103600083015261378f81613198565b9050919050565b600060208201905081810360008301526137af816131d8565b9050919050565b600060208201905081810360008301526137cf8161323e565b9050919050565b600060208201905081810360008301526137ef816132a4565b9050919050565b6000602082019050818103600083015261380f8161330a565b9050919050565b6000602082019050818103600083015261382f81613370565b9050919050565b6000602082019050818103600083015261385081846133d6565b905092915050565b600060208201905061386d6000830184613493565b92915050565b6000604051905081810181811067ffffffffffffffff8211171561389a57613899613c3b565b5b8060405250919050565b600067ffffffffffffffff8211156138bf576138be613c3b565b5b601f19601f8301169050602081019050919050565b600067ffffffffffffffff8211156138ef576138ee613c3b565b5b601f19601f8301169050602081019050919050565b6000819050602082019050919050565b600081519050919050565b600081519050919050565b600081519050919050565b6000602082019050919050565b600082825260208201905092915050565b600082825260208201905092915050565b600082825260208201905092915050565b600082825260208201905092915050565b600081905092915050565b600061399c82613ab6565b91506139a783613ab6565b9250827fffffffffffffffffffffffffffffffffffffffffffffffffffffffffffffffff038211156139dc576139db613bae565b5b828201905092915050565b60006139f282613ab6565b91506139fd83613ab6565b925082613a0d57613a0c613bdd565b5b828204905092915050565b6000613a2382613ab6565b9150613a2e83613ab6565b925082821015613a4157613a40613bae565b5b828203905092915050565b6000613a5782613a96565b9050919050565b60008115159050919050565b60007fffffffff0000000000000000000000000000000000000000000000000000000082169050919050565b600073ffffffffffffffffffffffffffffffffffffffff82169050919050565b6000819050919050565b82818337600083830152505050565b60005b83811015613aed578082015181840152602081019050613ad2565b83811115613afc576000848401525b50505050565b60006002820490506001821680613b1a57607f821691505b60208210811415613b2e57613b2d613c0c565b5b50919050565b6000613b3f82613ab6565b91507fffffffffffffffffffffffffffffffffffffffffffffffffffffffffffffffff821415613b7257613b71613bae565b5b600182019050919050565b6000613b8882613ab6565b9150613b9383613ab6565b925082613ba357613ba2613bdd565b5b828206905092915050565b7f4e487b7100000000000000000000000000000000000000000000000000000000600052601160045260246000fd5b7f4e487b7100000000000000000000000000000000000000000000000000000000600052601260045260246000fd5b7f4e487b7100000000000000000000000000000000000000000000000000000000600052602260045260246000fd5b7f4e487b7100000000000000000000000000000000000000000000000000000000600052604160045260246000fd5b6000601f19601f8301169050919050565b613c8481613a4c565b8114613c8f57600080fd5b50565b613c9b81613a5e565b8114613ca657600080fd5b50565b613cb281613a6a565b8114613cbd57600080fd5b50565b613cc981613ab6565b8114613cd457600080fd5b5056fea2646970667358221220f886a420bba7252693590ac8c35631884f9a7a00283de2c42e7797f3cae6fa0064736f6c63430008000033",
  "linkReferences": {},
  "deployedLinkReferences": {}
}