{
  "_format": "hh-sol-artifact-1",
  "contractName": "VaxNFT",
  "sourceName": "contracts/vaxNFT.sol",
  "abi": [
    {
      "inputs": [],
      "stateMutability": "nonpayable",
      "type": "constructor"
    },
    {
      "anonymous": false,
      "inputs": [
        {
          "indexed": true,
          "internalType": "address",
          "name": "owner",
          "type": "address"
        },
        {
          "indexed": true,
          "internalType": "address",
          "name": "approved",
          "type": "address"
        },
        {
          "indexed": true,
          "internalType": "uint256",
          "name": "tokenId",
          "type": "uint256"
        }
      ],
      "name": "Approval",
      "type": "event"
    },
    {
      "anonymous": false,
      "inputs": [
        {
          "indexed": true,
          "internalType": "address",
          "name": "owner",
          "type": "address"
        },
        {
          "indexed": true,
          "internalType": "address",
          "name": "operator",
          "type": "address"
        },
        {
          "indexed": false,
          "internalType": "bool",
          "name": "approved",
          "type": "bool"
        }
      ],
      "name": "ApprovalForAll",
      "type": "event"
    },
    {
      "anonymous": false,
      "inputs": [
        {
          "indexed": true,
          "internalType": "address",
          "name": "previousOwner",
          "type": "address"
        },
        {
          "indexed": true,
          "internalType": "address",
          "name": "newOwner",
          "type": "address"
        }
      ],
      "name": "OwnershipTransferred",
      "type": "event"
    },
    {
      "anonymous": false,
      "inputs": [
        {
          "indexed": true,
          "internalType": "address",
          "name": "from",
          "type": "address"
        },
        {
          "indexed": true,
          "internalType": "address",
          "name": "to",
          "type": "address"
        },
        {
          "indexed": true,
          "internalType": "uint256",
          "name": "tokenId",
          "type": "uint256"
        }
      ],
      "name": "Transfer",
      "type": "event"
    },
    {
      "anonymous": false,
      "inputs": [
        {
          "indexed": false,
          "internalType": "uint256",
          "name": "tokenId",
          "type": "uint256"
        }
      ],
      "name": "Vaccine",
      "type": "event"
    },
    {
      "inputs": [
        {
          "internalType": "address",
          "name": "to",
          "type": "address"
        },
        {
          "internalType": "uint256",
          "name": "tokenId",
          "type": "uint256"
        }
      ],
      "name": "approve",
      "outputs": [],
      "stateMutability": "nonpayable",
      "type": "function"
    },
    {
      "inputs": [
        {
          "internalType": "address",
          "name": "owner",
          "type": "address"
        }
      ],
      "name": "balanceOf",
      "outputs": [
        {
          "internalType": "uint256",
          "name": "",
          "type": "uint256"
        }
      ],
      "stateMutability": "view",
      "type": "function"
    },
    {
      "inputs": [
        {
          "internalType": "string",
          "name": "_name",
          "type": "string"
        },
        {
          "internalType": "string",
          "name": "_p_address",
          "type": "string"
        },
        {
          "internalType": "string",
          "name": "_email",
          "type": "string"
        },
        {
          "internalType": "address",
          "name": "_walletId",
          "type": "address"
        }
      ],
      "name": "clinicSignup",
      "outputs": [
        {
          "components": [
            {
              "internalType": "string",
              "name": "name",
              "type": "string"
            },
            {
              "internalType": "string",
              "name": "p_address",
              "type": "string"
            },
            {
              "internalType": "string",
              "name": "email",
              "type": "string"
            }
          ],
          "internalType": "struct VaxNFT.Clinic",
          "name": "",
          "type": "tuple"
        }
      ],
      "stateMutability": "nonpayable",
      "type": "function"
    },
    {
      "inputs": [
        {
          "internalType": "uint256",
          "name": "tokenId",
          "type": "uint256"
        }
      ],
      "name": "getApproved",
      "outputs": [
        {
          "internalType": "address",
          "name": "",
          "type": "address"
        }
      ],
      "stateMutability": "view",
      "type": "function"
    },
    {
      "inputs": [
        {
          "internalType": "address",
          "name": "owner",
          "type": "address"
        },
        {
          "internalType": "address",
          "name": "operator",
          "type": "address"
        }
      ],
      "name": "isApprovedForAll",
      "outputs": [
        {
          "internalType": "bool",
          "name": "",
          "type": "bool"
        }
      ],
      "stateMutability": "view",
      "type": "function"
    },
    {
      "inputs": [
        {
          "internalType": "string",
          "name": "_product",
          "type": "string"
        },
        {
          "internalType": "string",
          "name": "_lot",
          "type": "string"
        },
        {
          "internalType": "uint256",
          "name": "_phase",
          "type": "uint256"
        },
        {
          "internalType": "string",
          "name": "_date",
          "type": "string"
        }
      ],
      "name": "mintNFT",
      "outputs": [
        {
          "internalType": "uint256",
          "name": "",
          "type": "uint256"
        }
      ],
      "stateMutability": "nonpayable",
      "type": "function"
    },
    {
      "inputs": [],
      "name": "name",
      "outputs": [
        {
          "internalType": "string",
          "name": "",
          "type": "string"
        }
      ],
      "stateMutability": "view",
      "type": "function"
    },
    {
      "inputs": [],
      "name": "owner",
      "outputs": [
        {
          "internalType": "address",
          "name": "",
          "type": "address"
        }
      ],
      "stateMutability": "view",
      "type": "function"
    },
    {
      "inputs": [
        {
          "internalType": "uint256",
          "name": "tokenId",
          "type": "uint256"
        }
      ],
      "name": "ownerOf",
      "outputs": [
        {
          "internalType": "address",
          "name": "",
          "type": "address"
        }
      ],
      "stateMutability": "view",
      "type": "function"
    },
    {
      "inputs": [
        {
          "internalType": "string",
          "name": "_hash",
          "type": "string"
        }
      ],
      "name": "patientSignup",
      "outputs": [
        {
          "internalType": "string",
          "name": "",
          "type": "string"
        }
      ],
      "stateMutability": "nonpayable",
      "type": "function"
    },
    {
      "inputs": [],
      "name": "renounceOwnership",
      "outputs": [],
      "stateMutability": "nonpayable",
      "type": "function"
    },
    {
      "inputs": [
        {
          "internalType": "address",
          "name": "from",
          "type": "address"
        },
        {
          "internalType": "address",
          "name": "to",
          "type": "address"
        },
        {
          "internalType": "uint256",
          "name": "tokenId",
          "type": "uint256"
        }
      ],
      "name": "safeTransferFrom",
      "outputs": [],
      "stateMutability": "nonpayable",
      "type": "function"
    },
    {
      "inputs": [
        {
          "internalType": "address",
          "name": "from",
          "type": "address"
        },
        {
          "internalType": "address",
          "name": "to",
          "type": "address"
        },
        {
          "internalType": "uint256",
          "name": "tokenId",
          "type": "uint256"
        },
        {
          "internalType": "bytes",
          "name": "_data",
          "type": "bytes"
        }
      ],
      "name": "safeTransferFrom",
      "outputs": [],
      "stateMutability": "nonpayable",
      "type": "function"
    },
    {
      "inputs": [
        {
          "internalType": "address",
          "name": "operator",
          "type": "address"
        },
        {
          "internalType": "bool",
          "name": "approved",
          "type": "bool"
        }
      ],
      "name": "setApprovalForAll",
      "outputs": [],
      "stateMutability": "nonpayable",
      "type": "function"
    },
    {
      "inputs": [
        {
          "internalType": "bytes4",
          "name": "interfaceId",
          "type": "bytes4"
        }
      ],
      "name": "supportsInterface",
      "outputs": [
        {
          "internalType": "bool",
          "name": "",
          "type": "bool"
        }
      ],
      "stateMutability": "view",
      "type": "function"
    },
    {
      "inputs": [],
      "name": "symbol",
      "outputs": [
        {
          "internalType": "string",
          "name": "",
          "type": "string"
        }
      ],
      "stateMutability": "view",
      "type": "function"
    },
    {
      "inputs": [
        {
          "internalType": "uint256",
          "name": "",
          "type": "uint256"
        }
      ],
      "name": "tokenIdToTokenInfo",
      "outputs": [
        {
          "internalType": "address",
          "name": "issuer",
          "type": "address"
        },
        {
          "internalType": "string",
          "name": "product",
          "type": "string"
        },
        {
          "internalType": "string",
          "name": "lot",
          "type": "string"
        },
        {
          "internalType": "uint256",
          "name": "phase",
          "type": "uint256"
        },
        {
          "internalType": "string",
          "name": "date",
          "type": "string"
        }
      ],
      "stateMutability": "view",
      "type": "function"
    },
    {
      "inputs": [
        {
          "internalType": "uint256",
          "name": "tokenId",
          "type": "uint256"
        }
      ],
      "name": "tokenURI",
      "outputs": [
        {
          "internalType": "string",
          "name": "",
          "type": "string"
        }
      ],
      "stateMutability": "view",
      "type": "function"
    },
    {
      "inputs": [
        {
          "internalType": "address",
          "name": "_owner",
          "type": "address"
        }
      ],
      "name": "tokensOfOwner",
      "outputs": [
        {
          "components": [
            {
              "internalType": "address",
              "name": "issuer",
              "type": "address"
            },
            {
              "internalType": "string",
              "name": "product",
              "type": "string"
            },
            {
              "internalType": "string",
              "name": "lot",
              "type": "string"
            },
            {
              "internalType": "uint256",
              "name": "phase",
              "type": "uint256"
            },
            {
              "internalType": "string",
              "name": "date",
              "type": "string"
            }
          ],
          "internalType": "struct VaxNFT.TokenInfo[]",
          "name": "",
          "type": "tuple[]"
        }
      ],
      "stateMutability": "nonpayable",
      "type": "function"
    },
    {
      "inputs": [
        {
          "internalType": "address",
          "name": "from",
          "type": "address"
        },
        {
          "internalType": "address",
          "name": "to",
          "type": "address"
        },
        {
          "internalType": "uint256",
          "name": "tokenId",
          "type": "uint256"
        }
      ],
      "name": "transferFrom",
      "outputs": [],
      "stateMutability": "nonpayable",
      "type": "function"
    },
    {
      "inputs": [
        {
          "internalType": "address",
          "name": "newOwner",
          "type": "address"
        }
      ],
      "name": "transferOwnership",
      "outputs": [],
      "stateMutability": "nonpayable",
      "type": "function"
    },
    {
      "inputs": [
        {
          "internalType": "address",
          "name": "",
          "type": "address"
        }
      ],
      "name": "walletIdToClinic",
      "outputs": [
        {
          "internalType": "string",
          "name": "name",
          "type": "string"
        },
        {
          "internalType": "string",
          "name": "p_address",
          "type": "string"
        },
        {
          "internalType": "string",
          "name": "email",
          "type": "string"
        }
      ],
      "stateMutability": "view",
      "type": "function"
    },
    {
      "inputs": [
        {
          "internalType": "address",
          "name": "",
          "type": "address"
        }
      ],
      "name": "walletIdToPatientHash",
      "outputs": [
        {
          "internalType": "string",
          "name": "",
          "type": "string"
        }
      ],
      "stateMutability": "view",
      "type": "function"
    }
  ],
  "bytecode": "0x60806040523480156200001157600080fd5b506040518060400160405280600681526020017f5661784e465400000000000000000000000000000000000000000000000000008152506040518060400160405280600381526020017f4e46540000000000000000000000000000000000000000000000000000000000815250816000908051906020019062000096929190620001a6565b508060019080519060200190620000af929190620001a6565b505050620000d2620000c6620000d860201b60201c565b620000e060201b60201c565b620002bb565b600033905090565b6000600660009054906101000a900473ffffffffffffffffffffffffffffffffffffffff16905081600660006101000a81548173ffffffffffffffffffffffffffffffffffffffff021916908373ffffffffffffffffffffffffffffffffffffffff1602179055508173ffffffffffffffffffffffffffffffffffffffff168173ffffffffffffffffffffffffffffffffffffffff167f8be0079c531659141344cd1fd0a4f28419497f9722a3daafe3b4186f6b6457e060405160405180910390a35050565b828054620001b49062000256565b90600052602060002090601f016020900481019282620001d8576000855562000224565b82601f10620001f357805160ff191683800117855562000224565b8280016001018555821562000224579182015b828111156200022357825182559160200191906001019062000206565b5b50905062000233919062000237565b5090565b5b808211156200025257600081600090555060010162000238565b5090565b600060028204905060018216806200026f57607f821691505b602082108114156200028657620002856200028c565b5b50919050565b7f4e487b7100000000000000000000000000000000000000000000000000000000600052602260045260246000fd5b613f2080620002cb6000396000f3fe608060405234801561001057600080fd5b506004361061014d5760003560e01c806370a08231116100c3578063a22cb4651161007c578063a22cb465146103f0578063a570c3aa1461040c578063b88d4fde1461043c578063c87b56dd14610458578063e985e9c514610488578063f2fde38b146104b85761014d565b806370a0823114610318578063715018a6146103485780638462151c146103525780638da5cb5b146103825780639347200c146103a057806395d89b41146103d25761014d565b806323b872dd1161011557806323b872dd1461021c5780632ffd0d821461023857806330ea158e1461026857806342842e0e146102985780635fb8bcd5146102b45780636352211e146102e85761014d565b806301ffc9a71461015257806306fdde0314610182578063081812fc146101a0578063095ea7b3146101d057806310b6977e146101ec575b600080fd5b61016c60048036038101906101679190612c3f565b6104d4565b60405161017991906137c0565b60405180910390f35b61018a6105b6565b60405161019791906137db565b60405180910390f35b6101ba60048036038101906101b59190612e28565b610648565b6040516101c791906136cf565b60405180910390f35b6101ea60048036038101906101e59190612c03565b6106cd565b005b61020660048036038101906102019190612c91565b6107e5565b60405161021391906137db565b60405180910390f35b61023660048036038101906102319190612afd565b610918565b005b610252600480360381019061024d9190612a98565b610978565b60405161025f91906137db565b60405180910390f35b610282600480360381019061027d9190612cd2565b610a18565b60405161028f9190613a49565b60405180910390f35b6102b260048036038101906102ad9190612afd565b610cde565b005b6102ce60048036038101906102c99190612e28565b610cfe565b6040516102df959493929190613736565b60405180910390f35b61030260048036038101906102fd9190612e28565b610eec565b60405161030f91906136cf565b60405180910390f35b610332600480360381019061032d9190612a98565b610f9e565b60405161033f9190613a6b565b60405180910390f35b610350611056565b005b61036c60048036038101906103679190612a98565b6110de565b604051610379919061379e565b60405180910390f35b61038a6114f8565b60405161039791906136cf565b60405180910390f35b6103ba60048036038101906103b59190612a98565b611522565b6040516103c9939291906137fd565b60405180910390f35b6103da6116e4565b6040516103e791906137db565b60405180910390f35b61040a60048036038101906104059190612bc7565b611776565b005b61042660048036038101906104219190612d7d565b61178c565b6040516104339190613a6b565b60405180910390f35b61045660048036038101906104519190612b4c565b6118fc565b005b610472600480360381019061046d9190612e28565b61195e565b60405161047f91906137db565b60405180910390f35b6104a2600480360381019061049d9190612ac1565b611a05565b6040516104af91906137c0565b60405180910390f35b6104d260048036038101906104cd9190612a98565b611a99565b005b60007f80ac58cd000000000000000000000000000000000000000000000000000000007bffffffffffffffffffffffffffffffffffffffffffffffffffffffff1916827bffffffffffffffffffffffffffffffffffffffffffffffffffffffff1916148061059f57507f5b5e139f000000000000000000000000000000000000000000000000000000007bffffffffffffffffffffffffffffffffffffffffffffffffffffffff1916827bffffffffffffffffffffffffffffffffffffffffffffffffffffffff1916145b806105af57506105ae82611b91565b5b9050919050565b6060600080546105c590613d15565b80601f01602080910402602001604051908101604052809291908181526020018280546105f190613d15565b801561063e5780601f106106135761010080835404028352916020019161063e565b820191906000526020600020905b81548152906001019060200180831161062157829003601f168201915b5050505050905090565b600061065382611bfb565b610692576040517f08c379a000000000000000000000000000000000000000000000000000000000815260040161068990613989565b60405180910390fd5b6004600083815260200190815260200160002060009054906101000a900473ffffffffffffffffffffffffffffffffffffffff169050919050565b60006106d882610eec565b90508073ffffffffffffffffffffffffffffffffffffffff168373ffffffffffffffffffffffffffffffffffffffff161415610749576040517f08c379a000000000000000000000000000000000000000000000000000000000815260040161074090613a09565b60405180910390fd5b8073ffffffffffffffffffffffffffffffffffffffff16610768611c67565b73ffffffffffffffffffffffffffffffffffffffff161480610797575061079681610791611c67565b611a05565b5b6107d6576040517f08c379a00000000000000000000000000000000000000000000000000000000081526004016107cd90613909565b60405180910390fd5b6107e08383611c6f565b505050565b606081600960006107f4611c67565b73ffffffffffffffffffffffffffffffffffffffff1673ffffffffffffffffffffffffffffffffffffffff1681526020019081526020016000209080519060200190610841929190612856565b506009600061084e611c67565b73ffffffffffffffffffffffffffffffffffffffff1673ffffffffffffffffffffffffffffffffffffffff168152602001908152602001600020805461089390613d15565b80601f01602080910402602001604051908101604052809291908181526020018280546108bf90613d15565b801561090c5780601f106108e15761010080835404028352916020019161090c565b820191906000526020600020905b8154815290600101906020018083116108ef57829003601f168201915b50505050509050919050565b610929610923611c67565b82611d28565b610968576040517f08c379a000000000000000000000000000000000000000000000000000000000815260040161095f90613a29565b60405180910390fd5b610973838383611e06565b505050565b6009602052806000526040600020600091509050805461099790613d15565b80601f01602080910402602001604051908101604052809291908181526020018280546109c390613d15565b8015610a105780601f106109e557610100808354040283529160200191610a10565b820191906000526020600020905b8154815290600101906020018083116109f357829003601f168201915b505050505081565b610a206128dc565b604051806060016040528086815260200185815260200184815250600a60008473ffffffffffffffffffffffffffffffffffffffff1673ffffffffffffffffffffffffffffffffffffffff1681526020019081526020016000206000820151816000019080519060200190610a96929190612856565b506020820151816001019080519060200190610ab3929190612856565b506040820151816002019080519060200190610ad0929190612856565b50905050600a60008373ffffffffffffffffffffffffffffffffffffffff1673ffffffffffffffffffffffffffffffffffffffff168152602001908152602001600020604051806060016040529081600082018054610b2e90613d15565b80601f0160208091040260200160405190810160405280929190818152602001828054610b5a90613d15565b8015610ba75780601f10610b7c57610100808354040283529160200191610ba7565b820191906000526020600020905b815481529060010190602001808311610b8a57829003601f168201915b50505050508152602001600182018054610bc090613d15565b80601f0160208091040260200160405190810160405280929190818152602001828054610bec90613d15565b8015610c395780601f10610c0e57610100808354040283529160200191610c39565b820191906000526020600020905b815481529060010190602001808311610c1c57829003601f168201915b50505050508152602001600282018054610c5290613d15565b80601f0160208091040260200160405190810160405280929190818152602001828054610c7e90613d15565b8015610ccb5780601f10610ca057610100808354040283529160200191610ccb565b820191906000526020600020905b815481529060010190602001808311610cae57829003601f168201915b5050505050815250509050949350505050565b610cf9838383604051806020016040528060008152506118fc565b505050565b60086020528060005260406000206000915090508060000160009054906101000a900473ffffffffffffffffffffffffffffffffffffffff1690806001018054610d4790613d15565b80601f0160208091040260200160405190810160405280929190818152602001828054610d7390613d15565b8015610dc05780601f10610d9557610100808354040283529160200191610dc0565b820191906000526020600020905b815481529060010190602001808311610da357829003601f168201915b505050505090806002018054610dd590613d15565b80601f0160208091040260200160405190810160405280929190818152602001828054610e0190613d15565b8015610e4e5780601f10610e2357610100808354040283529160200191610e4e565b820191906000526020600020905b815481529060010190602001808311610e3157829003601f168201915b505050505090806003015490806004018054610e6990613d15565b80601f0160208091040260200160405190810160405280929190818152602001828054610e9590613d15565b8015610ee25780601f10610eb757610100808354040283529160200191610ee2565b820191906000526020600020905b815481529060010190602001808311610ec557829003601f168201915b5050505050905085565b6000806002600084815260200190815260200160002060009054906101000a900473ffffffffffffffffffffffffffffffffffffffff169050600073ffffffffffffffffffffffffffffffffffffffff168173ffffffffffffffffffffffffffffffffffffffff161415610f95576040517f08c379a0000000000000000000000000000000000000000000000000000000008152600401610f8c90613949565b60405180910390fd5b80915050919050565b60008073ffffffffffffffffffffffffffffffffffffffff168273ffffffffffffffffffffffffffffffffffffffff16141561100f576040517f08c379a000000000000000000000000000000000000000000000000000000000815260040161100690613929565b60405180910390fd5b600360008373ffffffffffffffffffffffffffffffffffffffff1673ffffffffffffffffffffffffffffffffffffffff168152602001908152602001600020549050919050565b61105e611c67565b73ffffffffffffffffffffffffffffffffffffffff1661107c6114f8565b73ffffffffffffffffffffffffffffffffffffffff16146110d2576040517f08c379a00000000000000000000000000000000000000000000000000000000081526004016110c9906139a9565b60405180910390fd5b6110dc6000612062565b565b606060006110eb83610f9e565b9050600081141561117957600067ffffffffffffffff811115611137577f4e487b7100000000000000000000000000000000000000000000000000000000600052604160045260246000fd5b60405190808252806020026020018201604052801561117057816020015b61115d6128fd565b8152602001906001900390816111555790505b509150506114f3565b60008167ffffffffffffffff8111156111bb577f4e487b7100000000000000000000000000000000000000000000000000000000600052604160045260246000fd5b6040519080825280602002602001820160405280156111f457816020015b6111e16128fd565b8152602001906001900390816111d95790505b50905060006112036007612128565b9050600080600190505b8281116114ea578673ffffffffffffffffffffffffffffffffffffffff1661123482610eec565b73ffffffffffffffffffffffffffffffffffffffff1614156114d757600860008281526020019081526020016000206040518060a00160405290816000820160009054906101000a900473ffffffffffffffffffffffffffffffffffffffff1673ffffffffffffffffffffffffffffffffffffffff1673ffffffffffffffffffffffffffffffffffffffff1681526020016001820180546112d490613d15565b80601f016020809104026020016040519081016040528092919081815260200182805461130090613d15565b801561134d5780601f106113225761010080835404028352916020019161134d565b820191906000526020600020905b81548152906001019060200180831161133057829003601f168201915b5050505050815260200160028201805461136690613d15565b80601f016020809104026020016040519081016040528092919081815260200182805461139290613d15565b80156113df5780601f106113b4576101008083540402835291602001916113df565b820191906000526020600020905b8154815290600101906020018083116113c257829003601f168201915b505050505081526020016003820154815260200160048201805461140290613d15565b80601f016020809104026020016040519081016040528092919081815260200182805461142e90613d15565b801561147b5780601f106114505761010080835404028352916020019161147b565b820191906000526020600020905b81548152906001019060200180831161145e57829003601f168201915b5050505050815250508483815181106114bd577f4e487b7100000000000000000000000000000000000000000000000000000000600052603260045260246000fd5b602002602001018190525081806114d390613d47565b9250505b80806114e290613d47565b91505061120d565b83955050505050505b919050565b6000600660009054906101000a900473ffffffffffffffffffffffffffffffffffffffff16905090565b600a60205280600052604060002060009150905080600001805461154590613d15565b80601f016020809104026020016040519081016040528092919081815260200182805461157190613d15565b80156115be5780601f10611593576101008083540402835291602001916115be565b820191906000526020600020905b8154815290600101906020018083116115a157829003601f168201915b5050505050908060010180546115d390613d15565b80601f01602080910402602001604051908101604052809291908181526020018280546115ff90613d15565b801561164c5780601f106116215761010080835404028352916020019161164c565b820191906000526020600020905b81548152906001019060200180831161162f57829003601f168201915b50505050509080600201805461166190613d15565b80601f016020809104026020016040519081016040528092919081815260200182805461168d90613d15565b80156116da5780601f106116af576101008083540402835291602001916116da565b820191906000526020600020905b8154815290600101906020018083116116bd57829003601f168201915b5050505050905083565b6060600180546116f390613d15565b80601f016020809104026020016040519081016040528092919081815260200182805461171f90613d15565b801561176c5780601f106117415761010080835404028352916020019161176c565b820191906000526020600020905b81548152906001019060200180831161174f57829003601f168201915b5050505050905090565b611788611781611c67565b8383612136565b5050565b600061179860076122a3565b60006117a46007612128565b90506117b76117b1611c67565b826122b9565b6040518060a001604052806117ca611c67565b73ffffffffffffffffffffffffffffffffffffffff168152602001878152602001868152602001858152602001848152506008600083815260200190815260200160002060008201518160000160006101000a81548173ffffffffffffffffffffffffffffffffffffffff021916908373ffffffffffffffffffffffffffffffffffffffff1602179055506020820151816001019080519060200190611871929190612856565b50604082015181600201908051906020019061188e929190612856565b506060820151816003015560808201518160040190805190602001906118b5929190612856565b509050507f65f4dc08c4c2661a2ccb6e433da77c60168189d45e70829ac6cac16dc09e4984816040516118e89190613a6b565b60405180910390a180915050949350505050565b61190d611907611c67565b83611d28565b61194c576040517f08c379a000000000000000000000000000000000000000000000000000000000815260040161194390613a29565b60405180910390fd5b61195884848484612487565b50505050565b606061196982611bfb565b6119a8576040517f08c379a000000000000000000000000000000000000000000000000000000000815260040161199f906139e9565b60405180910390fd5b60006119b26124e3565b905060008151116119d257604051806020016040528060008152506119fd565b806119dc846124fa565b6040516020016119ed9291906136ab565b6040516020818303038152906040525b915050919050565b6000600560008473ffffffffffffffffffffffffffffffffffffffff1673ffffffffffffffffffffffffffffffffffffffff16815260200190815260200160002060008373ffffffffffffffffffffffffffffffffffffffff1673ffffffffffffffffffffffffffffffffffffffff16815260200190815260200160002060009054906101000a900460ff16905092915050565b611aa1611c67565b73ffffffffffffffffffffffffffffffffffffffff16611abf6114f8565b73ffffffffffffffffffffffffffffffffffffffff1614611b15576040517f08c379a0000000000000000000000000000000000000000000000000000000008152600401611b0c906139a9565b60405180910390fd5b600073ffffffffffffffffffffffffffffffffffffffff168173ffffffffffffffffffffffffffffffffffffffff161415611b85576040517f08c379a0000000000000000000000000000000000000000000000000000000008152600401611b7c90613869565b60405180910390fd5b611b8e81612062565b50565b60007f01ffc9a7000000000000000000000000000000000000000000000000000000007bffffffffffffffffffffffffffffffffffffffffffffffffffffffff1916827bffffffffffffffffffffffffffffffffffffffffffffffffffffffff1916149050919050565b60008073ffffffffffffffffffffffffffffffffffffffff166002600084815260200190815260200160002060009054906101000a900473ffffffffffffffffffffffffffffffffffffffff1673ffffffffffffffffffffffffffffffffffffffff1614159050919050565b600033905090565b816004600083815260200190815260200160002060006101000a81548173ffffffffffffffffffffffffffffffffffffffff021916908373ffffffffffffffffffffffffffffffffffffffff160217905550808273ffffffffffffffffffffffffffffffffffffffff16611ce283610eec565b73ffffffffffffffffffffffffffffffffffffffff167f8c5be1e5ebec7d5bd14f71427d1e84f3dd0314c0f7b2291e5b200ac8c7c3b92560405160405180910390a45050565b6000611d3382611bfb565b611d72576040517f08c379a0000000000000000000000000000000000000000000000000000000008152600401611d69906138e9565b60405180910390fd5b6000611d7d83610eec565b90508073ffffffffffffffffffffffffffffffffffffffff168473ffffffffffffffffffffffffffffffffffffffff161480611dec57508373ffffffffffffffffffffffffffffffffffffffff16611dd484610648565b73ffffffffffffffffffffffffffffffffffffffff16145b80611dfd5750611dfc8185611a05565b5b91505092915050565b8273ffffffffffffffffffffffffffffffffffffffff16611e2682610eec565b73ffffffffffffffffffffffffffffffffffffffff1614611e7c576040517f08c379a0000000000000000000000000000000000000000000000000000000008152600401611e73906139c9565b60405180910390fd5b600073ffffffffffffffffffffffffffffffffffffffff168273ffffffffffffffffffffffffffffffffffffffff161415611eec576040517f08c379a0000000000000000000000000000000000000000000000000000000008152600401611ee3906138a9565b60405180910390fd5b611ef78383836126a7565b611f02600082611c6f565b6001600360008573ffffffffffffffffffffffffffffffffffffffff1673ffffffffffffffffffffffffffffffffffffffff1681526020019081526020016000206000828254611f529190613c2b565b925050819055506001600360008473ffffffffffffffffffffffffffffffffffffffff1673ffffffffffffffffffffffffffffffffffffffff1681526020019081526020016000206000828254611fa99190613ba4565b92505081905550816002600083815260200190815260200160002060006101000a81548173ffffffffffffffffffffffffffffffffffffffff021916908373ffffffffffffffffffffffffffffffffffffffff160217905550808273ffffffffffffffffffffffffffffffffffffffff168473ffffffffffffffffffffffffffffffffffffffff167fddf252ad1be2c89b69c2b068fc378daa952ba7f163c4a11628f55a4df523b3ef60405160405180910390a4505050565b6000600660009054906101000a900473ffffffffffffffffffffffffffffffffffffffff16905081600660006101000a81548173ffffffffffffffffffffffffffffffffffffffff021916908373ffffffffffffffffffffffffffffffffffffffff1602179055508173ffffffffffffffffffffffffffffffffffffffff168173ffffffffffffffffffffffffffffffffffffffff167f8be0079c531659141344cd1fd0a4f28419497f9722a3daafe3b4186f6b6457e060405160405180910390a35050565b600081600001549050919050565b8173ffffffffffffffffffffffffffffffffffffffff168373ffffffffffffffffffffffffffffffffffffffff1614156121a5576040517f08c379a000000000000000000000000000000000000000000000000000000000815260040161219c906138c9565b60405180910390fd5b80600560008573ffffffffffffffffffffffffffffffffffffffff1673ffffffffffffffffffffffffffffffffffffffff16815260200190815260200160002060008473ffffffffffffffffffffffffffffffffffffffff1673ffffffffffffffffffffffffffffffffffffffff16815260200190815260200160002060006101000a81548160ff0219169083151502179055508173ffffffffffffffffffffffffffffffffffffffff168373ffffffffffffffffffffffffffffffffffffffff167f17307eab39ab6107e8899845ad3d59bd9653f200f220920489ca2b5937696c318360405161229691906137c0565b60405180910390a3505050565b6001816000016000828254019250508190555050565b600073ffffffffffffffffffffffffffffffffffffffff168273ffffffffffffffffffffffffffffffffffffffff161415612329576040517f08c379a000000000000000000000000000000000000000000000000000000000815260040161232090613969565b60405180910390fd5b61233281611bfb565b15612372576040517f08c379a000000000000000000000000000000000000000000000000000000000815260040161236990613889565b60405180910390fd5b61237e600083836126a7565b6001600360008473ffffffffffffffffffffffffffffffffffffffff1673ffffffffffffffffffffffffffffffffffffffff16815260200190815260200160002060008282546123ce9190613ba4565b92505081905550816002600083815260200190815260200160002060006101000a81548173ffffffffffffffffffffffffffffffffffffffff021916908373ffffffffffffffffffffffffffffffffffffffff160217905550808273ffffffffffffffffffffffffffffffffffffffff16600073ffffffffffffffffffffffffffffffffffffffff167fddf252ad1be2c89b69c2b068fc378daa952ba7f163c4a11628f55a4df523b3ef60405160405180910390a45050565b612492848484611e06565b61249e848484846126ac565b6124dd576040517f08c379a00000000000000000000000000000000000000000000000000000000081526004016124d490613849565b60405180910390fd5b50505050565b606060405180602001604052806000815250905090565b60606000821415612542576040518060400160405280600181526020017f300000000000000000000000000000000000000000000000000000000000000081525090506126a2565b600082905060005b6000821461257457808061255d90613d47565b915050600a8261256d9190613bfa565b915061254a565b60008167ffffffffffffffff8111156125b6577f4e487b7100000000000000000000000000000000000000000000000000000000600052604160045260246000fd5b6040519080825280601f01601f1916602001820160405280156125e85781602001600182028036833780820191505090505b5090505b6000851461269b576001826126019190613c2b565b9150600a856126109190613d90565b603061261c9190613ba4565b60f81b818381518110612658577f4e487b7100000000000000000000000000000000000000000000000000000000600052603260045260246000fd5b60200101907effffffffffffffffffffffffffffffffffffffffffffffffffffffffffffff1916908160001a905350600a856126949190613bfa565b94506125ec565b8093505050505b919050565b505050565b60006126cd8473ffffffffffffffffffffffffffffffffffffffff16612843565b15612836578373ffffffffffffffffffffffffffffffffffffffff1663150b7a026126f6611c67565b8786866040518563ffffffff1660e01b815260040161271894939291906136ea565b602060405180830381600087803b15801561273257600080fd5b505af192505050801561276357506040513d601f19601f820116820180604052508101906127609190612c68565b60015b6127e6573d8060008114612793576040519150601f19603f3d011682016040523d82523d6000602084013e612798565b606091505b506000815114156127de576040517f08c379a00000000000000000000000000000000000000000000000000000000081526004016127d590613849565b60405180910390fd5b805181602001fd5b63150b7a0260e01b7bffffffffffffffffffffffffffffffffffffffffffffffffffffffff1916817bffffffffffffffffffffffffffffffffffffffffffffffffffffffff19161491505061283b565b600190505b949350505050565b600080823b905060008111915050919050565b82805461286290613d15565b90600052602060002090601f01602090048101928261288457600085556128cb565b82601f1061289d57805160ff19168380011785556128cb565b828001600101855582156128cb579182015b828111156128ca5782518255916020019190600101906128af565b5b5090506128d89190612942565b5090565b60405180606001604052806060815260200160608152602001606081525090565b6040518060a00160405280600073ffffffffffffffffffffffffffffffffffffffff168152602001606081526020016060815260200160008152602001606081525090565b5b8082111561295b576000816000905550600101612943565b5090565b600061297261296d84613ab7565b613a86565b90508281526020810184848401111561298a57600080fd5b612995848285613cd3565b509392505050565b60006129b06129ab84613ae7565b613a86565b9050828152602081018484840111156129c857600080fd5b6129d3848285613cd3565b509392505050565b6000813590506129ea81613e8e565b92915050565b6000813590506129ff81613ea5565b92915050565b600081359050612a1481613ebc565b92915050565b600081519050612a2981613ebc565b92915050565b600082601f830112612a4057600080fd5b8135612a5084826020860161295f565b91505092915050565b600082601f830112612a6a57600080fd5b8135612a7a84826020860161299d565b91505092915050565b600081359050612a9281613ed3565b92915050565b600060208284031215612aaa57600080fd5b6000612ab8848285016129db565b91505092915050565b60008060408385031215612ad457600080fd5b6000612ae2858286016129db565b9250506020612af3858286016129db565b9150509250929050565b600080600060608486031215612b1257600080fd5b6000612b20868287016129db565b9350506020612b31868287016129db565b9250506040612b4286828701612a83565b9150509250925092565b60008060008060808587031215612b6257600080fd5b6000612b70878288016129db565b9450506020612b81878288016129db565b9350506040612b9287828801612a83565b925050606085013567ffffffffffffffff811115612baf57600080fd5b612bbb87828801612a2f565b91505092959194509250565b60008060408385031215612bda57600080fd5b6000612be8858286016129db565b9250506020612bf9858286016129f0565b9150509250929050565b60008060408385031215612c1657600080fd5b6000612c24858286016129db565b9250506020612c3585828601612a83565b9150509250929050565b600060208284031215612c5157600080fd5b6000612c5f84828501612a05565b91505092915050565b600060208284031215612c7a57600080fd5b6000612c8884828501612a1a565b91505092915050565b600060208284031215612ca357600080fd5b600082013567ffffffffffffffff811115612cbd57600080fd5b612cc984828501612a59565b91505092915050565b60008060008060808587031215612ce857600080fd5b600085013567ffffffffffffffff811115612d0257600080fd5b612d0e87828801612a59565b945050602085013567ffffffffffffffff811115612d2b57600080fd5b612d3787828801612a59565b935050604085013567ffffffffffffffff811115612d5457600080fd5b612d6087828801612a59565b9250506060612d71878288016129db565b91505092959194509250565b60008060008060808587031215612d9357600080fd5b600085013567ffffffffffffffff811115612dad57600080fd5b612db987828801612a59565b945050602085013567ffffffffffffffff811115612dd657600080fd5b612de287828801612a59565b9350506040612df387828801612a83565b925050606085013567ffffffffffffffff811115612e1057600080fd5b612e1c87828801612a59565b91505092959194509250565b600060208284031215612e3a57600080fd5b6000612e4884828501612a83565b91505092915050565b6000612e5d8383613609565b905092915050565b612e6e81613c5f565b82525050565b612e7d81613c5f565b82525050565b6000612e8e82613b27565b612e988185613b55565b935083602082028501612eaa85613b17565b8060005b85811015612ee65784840389528151612ec78582612e51565b9450612ed283613b48565b925060208a01995050600181019050612eae565b50829750879550505050505092915050565b612f0181613c71565b82525050565b6000612f1282613b32565b612f1c8185613b66565b9350612f2c818560208601613ce2565b612f3581613e7d565b840191505092915050565b6000612f4b82613b3d565b612f558185613b77565b9350612f65818560208601613ce2565b612f6e81613e7d565b840191505092915050565b6000612f8482613b3d565b612f8e8185613b88565b9350612f9e818560208601613ce2565b612fa781613e7d565b840191505092915050565b6000612fbd82613b3d565b612fc78185613b99565b9350612fd7818560208601613ce2565b80840191505092915050565b6000612ff0603283613b88565b91507f4552433732313a207472616e7366657220746f206e6f6e20455243373231526560008301527f63656976657220696d706c656d656e74657200000000000000000000000000006020830152604082019050919050565b6000613056602683613b88565b91507f4f776e61626c653a206e6577206f776e657220697320746865207a65726f206160008301527f64647265737300000000000000000000000000000000000000000000000000006020830152604082019050919050565b60006130bc601c83613b88565b91507f4552433732313a20746f6b656e20616c7265616479206d696e746564000000006000830152602082019050919050565b60006130fc602483613b88565b91507f4552433732313a207472616e7366657220746f20746865207a65726f2061646460008301527f72657373000000000000000000000000000000000000000000000000000000006020830152604082019050919050565b6000613162601983613b88565b91507f4552433732313a20617070726f766520746f2063616c6c6572000000000000006000830152602082019050919050565b60006131a2602c83613b88565b91507f4552433732313a206f70657261746f7220717565727920666f72206e6f6e657860008301527f697374656e7420746f6b656e00000000000000000000000000000000000000006020830152604082019050919050565b6000613208603883613b88565b91507f4552433732313a20617070726f76652063616c6c6572206973206e6f74206f7760008301527f6e6572206e6f7220617070726f76656420666f7220616c6c00000000000000006020830152604082019050919050565b600061326e602a83613b88565b91507f4552433732313a2062616c616e636520717565727920666f7220746865207a6560008301527f726f2061646472657373000000000000000000000000000000000000000000006020830152604082019050919050565b60006132d4602983613b88565b91507f4552433732313a206f776e657220717565727920666f72206e6f6e657869737460008301527f656e7420746f6b656e00000000000000000000000000000000000000000000006020830152604082019050919050565b600061333a602083613b88565b91507f4552433732313a206d696e7420746f20746865207a65726f20616464726573736000830152602082019050919050565b600061337a602c83613b88565b91507f4552433732313a20617070726f76656420717565727920666f72206e6f6e657860008301527f697374656e7420746f6b656e00000000000000000000000000000000000000006020830152604082019050919050565b60006133e0602083613b88565b91507f4f776e61626c653a2063616c6c6572206973206e6f7420746865206f776e65726000830152602082019050919050565b6000613420602983613b88565b91507f4552433732313a207472616e73666572206f6620746f6b656e2074686174206960008301527f73206e6f74206f776e00000000000000000000000000000000000000000000006020830152604082019050919050565b6000613486602f83613b88565b91507f4552433732314d657461646174613a2055524920717565727920666f72206e6f60008301527f6e6578697374656e7420746f6b656e00000000000000000000000000000000006020830152604082019050919050565b60006134ec602183613b88565b91507f4552433732313a20617070726f76616c20746f2063757272656e74206f776e6560008301527f72000000000000000000000000000000000000000000000000000000000000006020830152604082019050919050565b6000613552603183613b88565b91507f4552433732313a207472616e736665722063616c6c6572206973206e6f74206f60008301527f776e6572206e6f7220617070726f7665640000000000000000000000000000006020830152604082019050919050565b600060608301600083015184820360008601526135c88282612f40565b915050602083015184820360208601526135e28282612f40565b915050604083015184820360408601526135fc8282612f40565b9150508091505092915050565b600060a0830160008301516136216000860182612e65565b50602083015184820360208601526136398282612f40565b915050604083015184820360408601526136538282612f40565b9150506060830151613668606086018261368d565b50608083015184820360808601526136808282612f40565b9150508091505092915050565b61369681613cc9565b82525050565b6136a581613cc9565b82525050565b60006136b78285612fb2565b91506136c38284612fb2565b91508190509392505050565b60006020820190506136e46000830184612e74565b92915050565b60006080820190506136ff6000830187612e74565b61370c6020830186612e74565b613719604083018561369c565b818103606083015261372b8184612f07565b905095945050505050565b600060a08201905061374b6000830188612e74565b818103602083015261375d8187612f79565b905081810360408301526137718186612f79565b9050613780606083018561369c565b81810360808301526137928184612f79565b90509695505050505050565b600060208201905081810360008301526137b88184612e83565b905092915050565b60006020820190506137d56000830184612ef8565b92915050565b600060208201905081810360008301526137f58184612f79565b905092915050565b600060608201905081810360008301526138178186612f79565b9050818103602083015261382b8185612f79565b9050818103604083015261383f8184612f79565b9050949350505050565b6000602082019050818103600083015261386281612fe3565b9050919050565b6000602082019050818103600083015261388281613049565b9050919050565b600060208201905081810360008301526138a2816130af565b9050919050565b600060208201905081810360008301526138c2816130ef565b9050919050565b600060208201905081810360008301526138e281613155565b9050919050565b6000602082019050818103600083015261390281613195565b9050919050565b60006020820190508181036000830152613922816131fb565b9050919050565b6000602082019050818103600083015261394281613261565b9050919050565b60006020820190508181036000830152613962816132c7565b9050919050565b600060208201905081810360008301526139828161332d565b9050919050565b600060208201905081810360008301526139a28161336d565b9050919050565b600060208201905081810360008301526139c2816133d3565b9050919050565b600060208201905081810360008301526139e281613413565b9050919050565b60006020820190508181036000830152613a0281613479565b9050919050565b60006020820190508181036000830152613a22816134df565b9050919050565b60006020820190508181036000830152613a4281613545565b9050919050565b60006020820190508181036000830152613a6381846135ab565b905092915050565b6000602082019050613a80600083018461369c565b92915050565b6000604051905081810181811067ffffffffffffffff82111715613aad57613aac613e4e565b5b8060405250919050565b600067ffffffffffffffff821115613ad257613ad1613e4e565b5b601f19601f8301169050602081019050919050565b600067ffffffffffffffff821115613b0257613b01613e4e565b5b601f19601f8301169050602081019050919050565b6000819050602082019050919050565b600081519050919050565b600081519050919050565b600081519050919050565b6000602082019050919050565b600082825260208201905092915050565b600082825260208201905092915050565b600082825260208201905092915050565b600082825260208201905092915050565b600081905092915050565b6000613baf82613cc9565b9150613bba83613cc9565b9250827fffffffffffffffffffffffffffffffffffffffffffffffffffffffffffffffff03821115613bef57613bee613dc1565b5b828201905092915050565b6000613c0582613cc9565b9150613c1083613cc9565b925082613c2057613c1f613df0565b5b828204905092915050565b6000613c3682613cc9565b9150613c4183613cc9565b925082821015613c5457613c53613dc1565b5b828203905092915050565b6000613c6a82613ca9565b9050919050565b60008115159050919050565b60007fffffffff0000000000000000000000000000000000000000000000000000000082169050919050565b600073ffffffffffffffffffffffffffffffffffffffff82169050919050565b6000819050919050565b82818337600083830152505050565b60005b83811015613d00578082015181840152602081019050613ce5565b83811115613d0f576000848401525b50505050565b60006002820490506001821680613d2d57607f821691505b60208210811415613d4157613d40613e1f565b5b50919050565b6000613d5282613cc9565b91507fffffffffffffffffffffffffffffffffffffffffffffffffffffffffffffffff821415613d8557613d84613dc1565b5b600182019050919050565b6000613d9b82613cc9565b9150613da683613cc9565b925082613db657613db5613df0565b5b828206905092915050565b7f4e487b7100000000000000000000000000000000000000000000000000000000600052601160045260246000fd5b7f4e487b7100000000000000000000000000000000000000000000000000000000600052601260045260246000fd5b7f4e487b7100000000000000000000000000000000000000000000000000000000600052602260045260246000fd5b7f4e487b7100000000000000000000000000000000000000000000000000000000600052604160045260246000fd5b6000601f19601f8301169050919050565b613e9781613c5f565b8114613ea257600080fd5b50565b613eae81613c71565b8114613eb957600080fd5b50565b613ec581613c7d565b8114613ed057600080fd5b50565b613edc81613cc9565b8114613ee757600080fd5b5056fea26469706673582212207dbdc8aa5d2470560d72cba98e4787c1cb09d1dcfe5ea1ec4448bdc8b3b6f98564736f6c63430008000033",
  "linkReferences": {},
  "deployedLinkReferences": {}
}