{
  "_format": "hh-sol-artifact-1",
  "contractName": "VaxNFT",
  "sourceName": "contracts/vaxNFT.sol",
  "abi": [
    {
      "inputs": [],
      "stateMutability": "nonpayable",
      "type": "constructor"
    },
    {
      "anonymous": false,
      "inputs": [
        {
          "indexed": true,
          "internalType": "address",
          "name": "owner",
          "type": "address"
        },
        {
          "indexed": true,
          "internalType": "address",
          "name": "approved",
          "type": "address"
        },
        {
          "indexed": true,
          "internalType": "uint256",
          "name": "tokenId",
          "type": "uint256"
        }
      ],
      "name": "Approval",
      "type": "event"
    },
    {
      "anonymous": false,
      "inputs": [
        {
          "indexed": true,
          "internalType": "address",
          "name": "owner",
          "type": "address"
        },
        {
          "indexed": true,
          "internalType": "address",
          "name": "operator",
          "type": "address"
        },
        {
          "indexed": false,
          "internalType": "bool",
          "name": "approved",
          "type": "bool"
        }
      ],
      "name": "ApprovalForAll",
      "type": "event"
    },
    {
      "anonymous": false,
      "inputs": [
        {
          "indexed": true,
          "internalType": "address",
          "name": "previousOwner",
          "type": "address"
        },
        {
          "indexed": true,
          "internalType": "address",
          "name": "newOwner",
          "type": "address"
        }
      ],
      "name": "OwnershipTransferred",
      "type": "event"
    },
    {
      "anonymous": false,
      "inputs": [
        {
          "indexed": true,
          "internalType": "address",
          "name": "from",
          "type": "address"
        },
        {
          "indexed": true,
          "internalType": "address",
          "name": "to",
          "type": "address"
        },
        {
          "indexed": true,
          "internalType": "uint256",
          "name": "tokenId",
          "type": "uint256"
        }
      ],
      "name": "Transfer",
      "type": "event"
    },
    {
      "inputs": [
        {
          "internalType": "address",
          "name": "to",
          "type": "address"
        },
        {
          "internalType": "uint256",
          "name": "tokenId",
          "type": "uint256"
        }
      ],
      "name": "approve",
      "outputs": [],
      "stateMutability": "nonpayable",
      "type": "function"
    },
    {
      "inputs": [
        {
          "internalType": "address",
          "name": "owner",
          "type": "address"
        }
      ],
      "name": "balanceOf",
      "outputs": [
        {
          "internalType": "uint256",
          "name": "",
          "type": "uint256"
        }
      ],
      "stateMutability": "view",
      "type": "function"
    },
    {
      "inputs": [
        {
          "internalType": "uint256",
          "name": "tokenId",
          "type": "uint256"
        }
      ],
      "name": "getApproved",
      "outputs": [
        {
          "internalType": "address",
          "name": "",
          "type": "address"
        }
      ],
      "stateMutability": "view",
      "type": "function"
    },
    {
      "inputs": [
        {
          "internalType": "address",
          "name": "owner",
          "type": "address"
        },
        {
          "internalType": "address",
          "name": "operator",
          "type": "address"
        }
      ],
      "name": "isApprovedForAll",
      "outputs": [
        {
          "internalType": "bool",
          "name": "",
          "type": "bool"
        }
      ],
      "stateMutability": "view",
      "type": "function"
    },
    {
      "inputs": [
        {
          "internalType": "string",
          "name": "_firstName",
          "type": "string"
        },
        {
          "internalType": "string",
          "name": "_lastName",
          "type": "string"
        },
        {
          "internalType": "string",
          "name": "_manufacturer",
          "type": "string"
        },
        {
          "internalType": "uint256",
          "name": "_dosePhase",
          "type": "uint256"
        }
      ],
      "name": "mintNFT",
      "outputs": [
        {
          "internalType": "uint256",
          "name": "",
          "type": "uint256"
        }
      ],
      "stateMutability": "nonpayable",
      "type": "function"
    },
    {
      "inputs": [],
      "name": "name",
      "outputs": [
        {
          "internalType": "string",
          "name": "",
          "type": "string"
        }
      ],
      "stateMutability": "view",
      "type": "function"
    },
    {
      "inputs": [],
      "name": "owner",
      "outputs": [
        {
          "internalType": "address",
          "name": "",
          "type": "address"
        }
      ],
      "stateMutability": "view",
      "type": "function"
    },
    {
      "inputs": [
        {
          "internalType": "uint256",
          "name": "tokenId",
          "type": "uint256"
        }
      ],
      "name": "ownerOf",
      "outputs": [
        {
          "internalType": "address",
          "name": "",
          "type": "address"
        }
      ],
      "stateMutability": "view",
      "type": "function"
    },
    {
      "inputs": [],
      "name": "renounceOwnership",
      "outputs": [],
      "stateMutability": "nonpayable",
      "type": "function"
    },
    {
      "inputs": [
        {
          "internalType": "address",
          "name": "from",
          "type": "address"
        },
        {
          "internalType": "address",
          "name": "to",
          "type": "address"
        },
        {
          "internalType": "uint256",
          "name": "tokenId",
          "type": "uint256"
        }
      ],
      "name": "safeTransferFrom",
      "outputs": [],
      "stateMutability": "nonpayable",
      "type": "function"
    },
    {
      "inputs": [
        {
          "internalType": "address",
          "name": "from",
          "type": "address"
        },
        {
          "internalType": "address",
          "name": "to",
          "type": "address"
        },
        {
          "internalType": "uint256",
          "name": "tokenId",
          "type": "uint256"
        },
        {
          "internalType": "bytes",
          "name": "_data",
          "type": "bytes"
        }
      ],
      "name": "safeTransferFrom",
      "outputs": [],
      "stateMutability": "nonpayable",
      "type": "function"
    },
    {
      "inputs": [
        {
          "internalType": "address",
          "name": "operator",
          "type": "address"
        },
        {
          "internalType": "bool",
          "name": "approved",
          "type": "bool"
        }
      ],
      "name": "setApprovalForAll",
      "outputs": [],
      "stateMutability": "nonpayable",
      "type": "function"
    },
    {
      "inputs": [
        {
          "internalType": "bytes4",
          "name": "interfaceId",
          "type": "bytes4"
        }
      ],
      "name": "supportsInterface",
      "outputs": [
        {
          "internalType": "bool",
          "name": "",
          "type": "bool"
        }
      ],
      "stateMutability": "view",
      "type": "function"
    },
    {
      "inputs": [],
      "name": "symbol",
      "outputs": [
        {
          "internalType": "string",
          "name": "",
          "type": "string"
        }
      ],
      "stateMutability": "view",
      "type": "function"
    },
    {
      "inputs": [
        {
          "internalType": "uint256",
          "name": "",
          "type": "uint256"
        }
      ],
      "name": "tokenIdTokenInfo",
      "outputs": [
        {
          "internalType": "address",
          "name": "mintAddress",
          "type": "address"
        },
        {
          "internalType": "string",
          "name": "firstName",
          "type": "string"
        },
        {
          "internalType": "string",
          "name": "lastName",
          "type": "string"
        },
        {
          "internalType": "string",
          "name": "manufacturer",
          "type": "string"
        },
        {
          "internalType": "uint256",
          "name": "dosePhase",
          "type": "uint256"
        }
      ],
      "stateMutability": "view",
      "type": "function"
    },
    {
      "inputs": [
        {
          "internalType": "uint256",
          "name": "tokenId",
          "type": "uint256"
        }
      ],
      "name": "tokenURI",
      "outputs": [
        {
          "internalType": "string",
          "name": "",
          "type": "string"
        }
      ],
      "stateMutability": "view",
      "type": "function"
    },
    {
      "inputs": [
        {
          "internalType": "address",
          "name": "_owner",
          "type": "address"
        }
      ],
      "name": "tokensOfOwner",
      "outputs": [
        {
          "components": [
            {
              "internalType": "address",
              "name": "mintAddress",
              "type": "address"
            },
            {
              "internalType": "string",
              "name": "firstName",
              "type": "string"
            },
            {
              "internalType": "string",
              "name": "lastName",
              "type": "string"
            },
            {
              "internalType": "string",
              "name": "manufacturer",
              "type": "string"
            },
            {
              "internalType": "uint256",
              "name": "dosePhase",
              "type": "uint256"
            }
          ],
          "internalType": "struct VaxNFT.TokenInfo[]",
          "name": "",
          "type": "tuple[]"
        }
      ],
      "stateMutability": "nonpayable",
      "type": "function"
    },
    {
      "inputs": [
        {
          "internalType": "address",
          "name": "from",
          "type": "address"
        },
        {
          "internalType": "address",
          "name": "to",
          "type": "address"
        },
        {
          "internalType": "uint256",
          "name": "tokenId",
          "type": "uint256"
        }
      ],
      "name": "transferFrom",
      "outputs": [],
      "stateMutability": "nonpayable",
      "type": "function"
    },
    {
      "inputs": [
        {
          "internalType": "address",
          "name": "newOwner",
          "type": "address"
        }
      ],
      "name": "transferOwnership",
      "outputs": [],
      "stateMutability": "nonpayable",
      "type": "function"
    }
  ],
  "bytecode": "0x60806040523480156200001157600080fd5b506040518060400160405280600681526020017f5661784e465400000000000000000000000000000000000000000000000000008152506040518060400160405280600381526020017f4e46540000000000000000000000000000000000000000000000000000000000815250816000908051906020019062000096929190620001a6565b508060019080519060200190620000af929190620001a6565b505050620000d2620000c6620000d860201b60201c565b620000e060201b60201c565b620002bb565b600033905090565b6000600660009054906101000a900473ffffffffffffffffffffffffffffffffffffffff16905081600660006101000a81548173ffffffffffffffffffffffffffffffffffffffff021916908373ffffffffffffffffffffffffffffffffffffffff1602179055508173ffffffffffffffffffffffffffffffffffffffff168173ffffffffffffffffffffffffffffffffffffffff167f8be0079c531659141344cd1fd0a4f28419497f9722a3daafe3b4186f6b6457e060405160405180910390a35050565b828054620001b49062000256565b90600052602060002090601f016020900481019282620001d8576000855562000224565b82601f10620001f357805160ff191683800117855562000224565b8280016001018555821562000224579182015b828111156200022357825182559160200191906001019062000206565b5b50905062000233919062000237565b5090565b5b808211156200025257600081600090555060010162000238565b5090565b600060028204905060018216806200026f57607f821691505b602082108114156200028657620002856200028c565b5b50919050565b7f4e487b7100000000000000000000000000000000000000000000000000000000600052602260045260246000fd5b613be780620002cb6000396000f3fe608060405234801561001057600080fd5b50600436106101215760003560e01c806370a08231116100ad578063a22cb46511610071578063a22cb46514610332578063b88d4fde1461034e578063c87b56dd1461036a578063e985e9c51461039a578063f2fde38b146103ca57610121565b806370a082311461028c578063715018a6146102bc5780638462151c146102c65780638da5cb5b146102f657806395d89b411461031457610121565b806323b872dd116100f457806323b872dd146101c0578063345a98c4146101dc57806342842e0e1461020c5780634eab18fb146102285780636352211e1461025c57610121565b806301ffc9a71461012657806306fdde0314610156578063081812fc14610174578063095ea7b3146101a4575b600080fd5b610140600480360381019061013b9190612695565b6103e6565b60405161014d919061342a565b60405180910390f35b61015e6104c8565b60405161016b9190613445565b60405180910390f35b61018e60048036038101906101899190612792565b61055a565b60405161019b9190613339565b60405180910390f35b6101be60048036038101906101b99190612659565b6105df565b005b6101da60048036038101906101d59190612553565b6106f7565b005b6101f660048036038101906101f191906126e7565b610757565b6040516102039190613647565b60405180910390f35b61022660048036038101906102219190612553565b610890565b005b610242600480360381019061023d9190612792565b6108b0565b6040516102539594939291906133a0565b60405180910390f35b61027660048036038101906102719190612792565b610a9e565b6040516102839190613339565b60405180910390f35b6102a660048036038101906102a191906124ee565b610b50565b6040516102b39190613647565b60405180910390f35b6102c4610c08565b005b6102e060048036038101906102db91906124ee565b610c90565b6040516102ed9190613408565b60405180910390f35b6102fe6110aa565b60405161030b9190613339565b60405180910390f35b61031c6110d4565b6040516103299190613445565b60405180910390f35b61034c6004803603810190610347919061261d565b611166565b005b610368600480360381019061036391906125a2565b61117c565b005b610384600480360381019061037f9190612792565b6111de565b6040516103919190613445565b60405180910390f35b6103b460048036038101906103af9190612517565b6112e8565b6040516103c1919061342a565b60405180910390f35b6103e460048036038101906103df91906124ee565b61137c565b005b60007f80ac58cd000000000000000000000000000000000000000000000000000000007bffffffffffffffffffffffffffffffffffffffffffffffffffffffff1916827bffffffffffffffffffffffffffffffffffffffffffffffffffffffff191614806104b157507f5b5e139f000000000000000000000000000000000000000000000000000000007bffffffffffffffffffffffffffffffffffffffffffffffffffffffff1916827bffffffffffffffffffffffffffffffffffffffffffffffffffffffff1916145b806104c157506104c082611474565b5b9050919050565b6060600080546104d79061396b565b80601f01602080910402602001604051908101604052809291908181526020018280546105039061396b565b80156105505780601f1061052557610100808354040283529160200191610550565b820191906000526020600020905b81548152906001019060200180831161053357829003601f168201915b5050505050905090565b6000610565826114de565b6105a4576040517f08c379a000000000000000000000000000000000000000000000000000000000815260040161059b906135a7565b60405180910390fd5b6004600083815260200190815260200160002060009054906101000a900473ffffffffffffffffffffffffffffffffffffffff169050919050565b60006105ea82610a9e565b90508073ffffffffffffffffffffffffffffffffffffffff168373ffffffffffffffffffffffffffffffffffffffff16141561065b576040517f08c379a000000000000000000000000000000000000000000000000000000000815260040161065290613607565b60405180910390fd5b8073ffffffffffffffffffffffffffffffffffffffff1661067a61154a565b73ffffffffffffffffffffffffffffffffffffffff1614806106a957506106a8816106a361154a565b6112e8565b5b6106e8576040517f08c379a00000000000000000000000000000000000000000000000000000000081526004016106df90613527565b60405180910390fd5b6106f28383611552565b505050565b61070861070261154a565b8261160b565b610747576040517f08c379a000000000000000000000000000000000000000000000000000000000815260040161073e90613627565b60405180910390fd5b6107528383836116e9565b505050565b60006107636007611945565b600061076f600761195b565b905061078261077c61154a565b82611969565b6040518060a0016040528061079561154a565b73ffffffffffffffffffffffffffffffffffffffff168152602001878152602001868152602001858152602001848152506008600083815260200190815260200160002060008201518160000160006101000a81548173ffffffffffffffffffffffffffffffffffffffff021916908373ffffffffffffffffffffffffffffffffffffffff160217905550602082015181600101908051906020019061083c9291906122cd565b5060408201518160020190805190602001906108599291906122cd565b5060608201518160030190805190602001906108769291906122cd565b506080820151816004015590505080915050949350505050565b6108ab8383836040518060200160405280600081525061117c565b505050565b60086020528060005260406000206000915090508060000160009054906101000a900473ffffffffffffffffffffffffffffffffffffffff16908060010180546108f99061396b565b80601f01602080910402602001604051908101604052809291908181526020018280546109259061396b565b80156109725780601f1061094757610100808354040283529160200191610972565b820191906000526020600020905b81548152906001019060200180831161095557829003601f168201915b5050505050908060020180546109879061396b565b80601f01602080910402602001604051908101604052809291908181526020018280546109b39061396b565b8015610a005780601f106109d557610100808354040283529160200191610a00565b820191906000526020600020905b8154815290600101906020018083116109e357829003601f168201915b505050505090806003018054610a159061396b565b80601f0160208091040260200160405190810160405280929190818152602001828054610a419061396b565b8015610a8e5780601f10610a6357610100808354040283529160200191610a8e565b820191906000526020600020905b815481529060010190602001808311610a7157829003601f168201915b5050505050908060040154905085565b6000806002600084815260200190815260200160002060009054906101000a900473ffffffffffffffffffffffffffffffffffffffff169050600073ffffffffffffffffffffffffffffffffffffffff168173ffffffffffffffffffffffffffffffffffffffff161415610b47576040517f08c379a0000000000000000000000000000000000000000000000000000000008152600401610b3e90613567565b60405180910390fd5b80915050919050565b60008073ffffffffffffffffffffffffffffffffffffffff168273ffffffffffffffffffffffffffffffffffffffff161415610bc1576040517f08c379a0000000000000000000000000000000000000000000000000000000008152600401610bb890613547565b60405180910390fd5b600360008373ffffffffffffffffffffffffffffffffffffffff1673ffffffffffffffffffffffffffffffffffffffff168152602001908152602001600020549050919050565b610c1061154a565b73ffffffffffffffffffffffffffffffffffffffff16610c2e6110aa565b73ffffffffffffffffffffffffffffffffffffffff1614610c84576040517f08c379a0000000000000000000000000000000000000000000000000000000008152600401610c7b906135c7565b60405180910390fd5b610c8e6000611b37565b565b60606000610c9d83610b50565b90506000811415610d2b57600067ffffffffffffffff811115610ce9577f4e487b7100000000000000000000000000000000000000000000000000000000600052604160045260246000fd5b604051908082528060200260200182016040528015610d2257816020015b610d0f612353565b815260200190600190039081610d075790505b509150506110a5565b60008167ffffffffffffffff811115610d6d577f4e487b7100000000000000000000000000000000000000000000000000000000600052604160045260246000fd5b604051908082528060200260200182016040528015610da657816020015b610d93612353565b815260200190600190039081610d8b5790505b5090506000610db5600761195b565b9050600080600190505b82811161109c578673ffffffffffffffffffffffffffffffffffffffff16610de682610a9e565b73ffffffffffffffffffffffffffffffffffffffff16141561108957600860008281526020019081526020016000206040518060a00160405290816000820160009054906101000a900473ffffffffffffffffffffffffffffffffffffffff1673ffffffffffffffffffffffffffffffffffffffff1673ffffffffffffffffffffffffffffffffffffffff168152602001600182018054610e869061396b565b80601f0160208091040260200160405190810160405280929190818152602001828054610eb29061396b565b8015610eff5780601f10610ed457610100808354040283529160200191610eff565b820191906000526020600020905b815481529060010190602001808311610ee257829003601f168201915b50505050508152602001600282018054610f189061396b565b80601f0160208091040260200160405190810160405280929190818152602001828054610f449061396b565b8015610f915780601f10610f6657610100808354040283529160200191610f91565b820191906000526020600020905b815481529060010190602001808311610f7457829003601f168201915b50505050508152602001600382018054610faa9061396b565b80601f0160208091040260200160405190810160405280929190818152602001828054610fd69061396b565b80156110235780601f10610ff857610100808354040283529160200191611023565b820191906000526020600020905b81548152906001019060200180831161100657829003601f168201915b5050505050815260200160048201548152505084838151811061106f577f4e487b7100000000000000000000000000000000000000000000000000000000600052603260045260246000fd5b602002602001018190525081806110859061399d565b9250505b80806110949061399d565b915050610dbf565b83955050505050505b919050565b6000600660009054906101000a900473ffffffffffffffffffffffffffffffffffffffff16905090565b6060600180546110e39061396b565b80601f016020809104026020016040519081016040528092919081815260200182805461110f9061396b565b801561115c5780601f106111315761010080835404028352916020019161115c565b820191906000526020600020905b81548152906001019060200180831161113f57829003601f168201915b5050505050905090565b61117861117161154a565b8383611bfd565b5050565b61118d61118761154a565b8361160b565b6111cc576040517f08c379a00000000000000000000000000000000000000000000000000000000081526004016111c390613627565b60405180910390fd5b6111d884848484611d6a565b50505050565b60606112c26008600084815260200190815260200160002060010160086000858152602001908152602001600020600201600860008681526020019081526020016000206003016112446008600088815260200190815260200160002060040154611dc6565b6008600088815260200190815260200160002060000160009054906101000a900473ffffffffffffffffffffffffffffffffffffffff1660405160200161128b9190613264565b6040516020818303038152906040526040516020016112ae95949392919061327f565b604051602081830303815290604052611f73565b6040516020016112d29190613317565b6040516020818303038152906040529050919050565b6000600560008473ffffffffffffffffffffffffffffffffffffffff1673ffffffffffffffffffffffffffffffffffffffff16815260200190815260200160002060008373ffffffffffffffffffffffffffffffffffffffff1673ffffffffffffffffffffffffffffffffffffffff16815260200190815260200160002060009054906101000a900460ff16905092915050565b61138461154a565b73ffffffffffffffffffffffffffffffffffffffff166113a26110aa565b73ffffffffffffffffffffffffffffffffffffffff16146113f8576040517f08c379a00000000000000000000000000000000000000000000000000000000081526004016113ef906135c7565b60405180910390fd5b600073ffffffffffffffffffffffffffffffffffffffff168173ffffffffffffffffffffffffffffffffffffffff161415611468576040517f08c379a000000000000000000000000000000000000000000000000000000000815260040161145f90613487565b60405180910390fd5b61147181611b37565b50565b60007f01ffc9a7000000000000000000000000000000000000000000000000000000007bffffffffffffffffffffffffffffffffffffffffffffffffffffffff1916827bffffffffffffffffffffffffffffffffffffffffffffffffffffffff1916149050919050565b60008073ffffffffffffffffffffffffffffffffffffffff166002600084815260200190815260200160002060009054906101000a900473ffffffffffffffffffffffffffffffffffffffff1673ffffffffffffffffffffffffffffffffffffffff1614159050919050565b600033905090565b816004600083815260200190815260200160002060006101000a81548173ffffffffffffffffffffffffffffffffffffffff021916908373ffffffffffffffffffffffffffffffffffffffff160217905550808273ffffffffffffffffffffffffffffffffffffffff166115c583610a9e565b73ffffffffffffffffffffffffffffffffffffffff167f8c5be1e5ebec7d5bd14f71427d1e84f3dd0314c0f7b2291e5b200ac8c7c3b92560405160405180910390a45050565b6000611616826114de565b611655576040517f08c379a000000000000000000000000000000000000000000000000000000000815260040161164c90613507565b60405180910390fd5b600061166083610a9e565b90508073ffffffffffffffffffffffffffffffffffffffff168473ffffffffffffffffffffffffffffffffffffffff1614806116cf57508373ffffffffffffffffffffffffffffffffffffffff166116b78461055a565b73ffffffffffffffffffffffffffffffffffffffff16145b806116e057506116df81856112e8565b5b91505092915050565b8273ffffffffffffffffffffffffffffffffffffffff1661170982610a9e565b73ffffffffffffffffffffffffffffffffffffffff161461175f576040517f08c379a0000000000000000000000000000000000000000000000000000000008152600401611756906135e7565b60405180910390fd5b600073ffffffffffffffffffffffffffffffffffffffff168273ffffffffffffffffffffffffffffffffffffffff1614156117cf576040517f08c379a00000000000000000000000000000000000000000000000000000000081526004016117c6906134c7565b60405180910390fd5b6117da83838361211e565b6117e5600082611552565b6001600360008573ffffffffffffffffffffffffffffffffffffffff1673ffffffffffffffffffffffffffffffffffffffff16815260200190815260200160002060008282546118359190613881565b925050819055506001600360008473ffffffffffffffffffffffffffffffffffffffff1673ffffffffffffffffffffffffffffffffffffffff168152602001908152602001600020600082825461188c91906137a0565b92505081905550816002600083815260200190815260200160002060006101000a81548173ffffffffffffffffffffffffffffffffffffffff021916908373ffffffffffffffffffffffffffffffffffffffff160217905550808273ffffffffffffffffffffffffffffffffffffffff168473ffffffffffffffffffffffffffffffffffffffff167fddf252ad1be2c89b69c2b068fc378daa952ba7f163c4a11628f55a4df523b3ef60405160405180910390a4505050565b6001816000016000828254019250508190555050565b600081600001549050919050565b600073ffffffffffffffffffffffffffffffffffffffff168273ffffffffffffffffffffffffffffffffffffffff1614156119d9576040517f08c379a00000000000000000000000000000000000000000000000000000000081526004016119d090613587565b60405180910390fd5b6119e2816114de565b15611a22576040517f08c379a0000000000000000000000000000000000000000000000000000000008152600401611a19906134a7565b60405180910390fd5b611a2e6000838361211e565b6001600360008473ffffffffffffffffffffffffffffffffffffffff1673ffffffffffffffffffffffffffffffffffffffff1681526020019081526020016000206000828254611a7e91906137a0565b92505081905550816002600083815260200190815260200160002060006101000a81548173ffffffffffffffffffffffffffffffffffffffff021916908373ffffffffffffffffffffffffffffffffffffffff160217905550808273ffffffffffffffffffffffffffffffffffffffff16600073ffffffffffffffffffffffffffffffffffffffff167fddf252ad1be2c89b69c2b068fc378daa952ba7f163c4a11628f55a4df523b3ef60405160405180910390a45050565b6000600660009054906101000a900473ffffffffffffffffffffffffffffffffffffffff16905081600660006101000a81548173ffffffffffffffffffffffffffffffffffffffff021916908373ffffffffffffffffffffffffffffffffffffffff1602179055508173ffffffffffffffffffffffffffffffffffffffff168173ffffffffffffffffffffffffffffffffffffffff167f8be0079c531659141344cd1fd0a4f28419497f9722a3daafe3b4186f6b6457e060405160405180910390a35050565b8173ffffffffffffffffffffffffffffffffffffffff168373ffffffffffffffffffffffffffffffffffffffff161415611c6c576040517f08c379a0000000000000000000000000000000000000000000000000000000008152600401611c63906134e7565b60405180910390fd5b80600560008573ffffffffffffffffffffffffffffffffffffffff1673ffffffffffffffffffffffffffffffffffffffff16815260200190815260200160002060008473ffffffffffffffffffffffffffffffffffffffff1673ffffffffffffffffffffffffffffffffffffffff16815260200190815260200160002060006101000a81548160ff0219169083151502179055508173ffffffffffffffffffffffffffffffffffffffff168373ffffffffffffffffffffffffffffffffffffffff167f17307eab39ab6107e8899845ad3d59bd9653f200f220920489ca2b5937696c3183604051611d5d919061342a565b60405180910390a3505050565b611d758484846116e9565b611d8184848484612123565b611dc0576040517f08c379a0000000000000000000000000000000000000000000000000000000008152600401611db790613467565b60405180910390fd5b50505050565b60606000821415611e0e576040518060400160405280600181526020017f30000000000000000000000000000000000000000000000000000000000000008152509050611f6e565b600082905060005b60008214611e40578080611e299061399d565b915050600a82611e3991906137f6565b9150611e16565b60008167ffffffffffffffff811115611e82577f4e487b7100000000000000000000000000000000000000000000000000000000600052604160045260246000fd5b6040519080825280601f01601f191660200182016040528015611eb45781602001600182028036833780820191505090505b5090505b60008514611f6757600182611ecd9190613881565b9150600a85611edc9190613a0a565b6030611ee891906137a0565b60f81b818381518110611f24577f4e487b7100000000000000000000000000000000000000000000000000000000600052603260045260246000fd5b60200101907effffffffffffffffffffffffffffffffffffffffffffffffffffffffffffff1916908160001a905350600a85611f6091906137f6565b9450611eb8565b8093505050505b919050565b6060600082511415611f9657604051806020016040528060008152509050612119565b6000604051806060016040528060408152602001613b726040913990506000600360028551611fc591906137a0565b611fcf91906137f6565b6004611fdb9190613827565b90506000602082611fec91906137a0565b67ffffffffffffffff81111561202b577f4e487b7100000000000000000000000000000000000000000000000000000000600052604160045260246000fd5b6040519080825280601f01601f19166020018201604052801561205d5781602001600182028036833780820191505090505b509050818152600183018586518101602084015b818310156120d8576003830192508251603f8160121c1685015160f81b8252600182019150603f81600c1c1685015160f81b8252600182019150603f8160061c1685015160f81b8252600182019150603f811685015160f81b825260018201915050612071565b6003895106600181146120f257600281146121025761210d565b613d3d60f01b600283035261210d565b603d60f81b60018303525b50505050508093505050505b919050565b505050565b60006121448473ffffffffffffffffffffffffffffffffffffffff166122ba565b156122ad578373ffffffffffffffffffffffffffffffffffffffff1663150b7a0261216d61154a565b8786866040518563ffffffff1660e01b815260040161218f9493929190613354565b602060405180830381600087803b1580156121a957600080fd5b505af19250505080156121da57506040513d601f19601f820116820180604052508101906121d791906126be565b60015b61225d573d806000811461220a576040519150601f19603f3d011682016040523d82523d6000602084013e61220f565b606091505b50600081511415612255576040517f08c379a000000000000000000000000000000000000000000000000000000000815260040161224c90613467565b60405180910390fd5b805181602001fd5b63150b7a0260e01b7bffffffffffffffffffffffffffffffffffffffffffffffffffffffff1916817bffffffffffffffffffffffffffffffffffffffffffffffffffffffff1916149150506122b2565b600190505b949350505050565b600080823b905060008111915050919050565b8280546122d99061396b565b90600052602060002090601f0160209004810192826122fb5760008555612342565b82601f1061231457805160ff1916838001178555612342565b82800160010185558215612342579182015b82811115612341578251825591602001919060010190612326565b5b50905061234f9190612398565b5090565b6040518060a00160405280600073ffffffffffffffffffffffffffffffffffffffff168152602001606081526020016060815260200160608152602001600081525090565b5b808211156123b1576000816000905550600101612399565b5090565b60006123c86123c384613693565b613662565b9050828152602081018484840111156123e057600080fd5b6123eb848285613929565b509392505050565b6000612406612401846136c3565b613662565b90508281526020810184848401111561241e57600080fd5b612429848285613929565b509392505050565b60008135905061244081613b15565b92915050565b60008135905061245581613b2c565b92915050565b60008135905061246a81613b43565b92915050565b60008151905061247f81613b43565b92915050565b600082601f83011261249657600080fd5b81356124a68482602086016123b5565b91505092915050565b600082601f8301126124c057600080fd5b81356124d08482602086016123f3565b91505092915050565b6000813590506124e881613b5a565b92915050565b60006020828403121561250057600080fd5b600061250e84828501612431565b91505092915050565b6000806040838503121561252a57600080fd5b600061253885828601612431565b925050602061254985828601612431565b9150509250929050565b60008060006060848603121561256857600080fd5b600061257686828701612431565b935050602061258786828701612431565b9250506040612598868287016124d9565b9150509250925092565b600080600080608085870312156125b857600080fd5b60006125c687828801612431565b94505060206125d787828801612431565b93505060406125e8878288016124d9565b925050606085013567ffffffffffffffff81111561260557600080fd5b61261187828801612485565b91505092959194509250565b6000806040838503121561263057600080fd5b600061263e85828601612431565b925050602061264f85828601612446565b9150509250929050565b6000806040838503121561266c57600080fd5b600061267a85828601612431565b925050602061268b858286016124d9565b9150509250929050565b6000602082840312156126a757600080fd5b60006126b58482850161245b565b91505092915050565b6000602082840312156126d057600080fd5b60006126de84828501612470565b91505092915050565b600080600080608085870312156126fd57600080fd5b600085013567ffffffffffffffff81111561271757600080fd5b612723878288016124af565b945050602085013567ffffffffffffffff81111561274057600080fd5b61274c878288016124af565b935050604085013567ffffffffffffffff81111561276957600080fd5b612775878288016124af565b9250506060612786878288016124d9565b91505092959194509250565b6000602082840312156127a457600080fd5b60006127b2848285016124d9565b91505092915050565b60006127c783836131c2565b905092915050565b6127d8816138b5565b82525050565b6127e7816138b5565b82525050565b6127fe6127f9826138b5565b6139e6565b82525050565b600061280f82613718565b6128198185613746565b93508360208202850161282b856136f3565b8060005b85811015612867578484038952815161284885826127bb565b945061285383613739565b925060208a0199505060018101905061282f565b50829750879550505050505092915050565b612882816138c7565b82525050565b600061289382613723565b61289d8185613757565b93506128ad818560208601613938565b6128b681613af7565b840191505092915050565b60006128cc82613723565b6128d68185613768565b93506128e6818560208601613938565b80840191505092915050565b60006128fd8261372e565b6129078185613773565b9350612917818560208601613938565b61292081613af7565b840191505092915050565b60006129368261372e565b6129408185613784565b9350612950818560208601613938565b61295981613af7565b840191505092915050565b600061296f8261372e565b6129798185613795565b9350612989818560208601613938565b80840191505092915050565b600081546129a28161396b565b6129ac8186613795565b945060018216600081146129c757600181146129d857612a0b565b60ff19831686528186019350612a0b565b6129e185613703565b60005b83811015612a03578154818901526001820191506020810190506129e4565b838801955050505b50505092915050565b6000612a21600f83613795565b91507f222c20226c6173744e616d65223a2200000000000000000000000000000000006000830152600f82019050919050565b6000612a61603283613784565b91507f4552433732313a207472616e7366657220746f206e6f6e20455243373231526560008301527f63656976657220696d706c656d656e74657200000000000000000000000000006020830152604082019050919050565b6000612ac7602683613784565b91507f4f776e61626c653a206e6577206f776e657220697320746865207a65726f206160008301527f64647265737300000000000000000000000000000000000000000000000000006020830152604082019050919050565b6000612b2d601c83613784565b91507f4552433732313a20746f6b656e20616c7265616479206d696e746564000000006000830152602082019050919050565b6000612b6d602483613784565b91507f4552433732313a207472616e7366657220746f20746865207a65726f2061646460008301527f72657373000000000000000000000000000000000000000000000000000000006020830152604082019050919050565b6000612bd3601983613784565b91507f4552433732313a20617070726f766520746f2063616c6c6572000000000000006000830152602082019050919050565b6000612c13601283613795565b91507f7b226e616d65223a22566178204e4654222c00000000000000000000000000006000830152601282019050919050565b6000612c53602c83613784565b91507f4552433732313a206f70657261746f7220717565727920666f72206e6f6e657860008301527f697374656e7420746f6b656e00000000000000000000000000000000000000006020830152604082019050919050565b6000612cb9603883613784565b91507f4552433732313a20617070726f76652063616c6c6572206973206e6f74206f7760008301527f6e6572206e6f7220617070726f76656420666f7220616c6c00000000000000006020830152604082019050919050565b6000612d1f602a83613784565b91507f4552433732313a2062616c616e636520717565727920666f7220746865207a6560008301527f726f2061646472657373000000000000000000000000000000000000000000006020830152604082019050919050565b6000612d85602983613784565b91507f4552433732313a206f776e657220717565727920666f72206e6f6e657869737460008301527f656e7420746f6b656e00000000000000000000000000000000000000000000006020830152604082019050919050565b6000612deb601283613795565b91507f222c226d616e756661637475726572223a2200000000000000000000000000006000830152601282019050919050565b6000612e2b600283613795565b91507f227d0000000000000000000000000000000000000000000000000000000000006000830152600282019050919050565b6000612e6b602083613784565b91507f4552433732313a206d696e7420746f20746865207a65726f20616464726573736000830152602082019050919050565b6000612eab602c83613784565b91507f4552433732313a20617070726f76656420717565727920666f72206e6f6e657860008301527f697374656e7420746f6b656e00000000000000000000000000000000000000006020830152604082019050919050565b6000612f11602083613784565b91507f4f776e61626c653a2063616c6c6572206973206e6f7420746865206f776e65726000830152602082019050919050565b6000612f51600c83613795565b91507f222c226f726967696e223a2200000000000000000000000000000000000000006000830152600c82019050919050565b6000612f91602983613784565b91507f4552433732313a207472616e73666572206f6620746f6b656e2074686174206960008301527f73206e6f74206f776e00000000000000000000000000000000000000000000006020830152604082019050919050565b6000612ff7602183613784565b91507f4552433732313a20617070726f76616c20746f2063757272656e74206f776e6560008301527f72000000000000000000000000000000000000000000000000000000000000006020830152604082019050919050565b600061305d601d83613795565b91507f646174613a6170706c69636174696f6e2f6a736f6e3b6261736536342c0000006000830152601d82019050919050565b600061309d603183613784565b91507f4552433732313a207472616e736665722063616c6c6572206973206e6f74206f60008301527f776e6572206e6f7220617070726f7665640000000000000000000000000000006020830152604082019050919050565b6000613103604783613795565b91507f226465736372697074696f6e223a22416e204e465420666f722076616363696e60008301527f6174696f6e73222c202261747472696275746573223a22222c2022666972737460208301527f4e616d65223a22000000000000000000000000000000000000000000000000006040830152604782019050919050565b600061318f601083613795565b91507f222c2022646f73655068617365223a22000000000000000000000000000000006000830152601082019050919050565b600060a0830160008301516131da60008601826127cf565b50602083015184820360208601526131f282826128f2565b9150506040830151848203604086015261320c82826128f2565b9150506060830151848203606086015261322682826128f2565b915050608083015161323b6080860182613246565b508091505092915050565b61324f8161391f565b82525050565b61325e8161391f565b82525050565b600061327082846127ed565b60148201915081905092915050565b600061328a82612c06565b9150613295826130f6565b91506132a18288612995565b91506132ac82612a14565b91506132b88287612995565b91506132c382612dde565b91506132cf8286612995565b91506132da82613182565b91506132e68285612964565b91506132f182612f44565b91506132fd82846128c1565b915061330882612e1e565b91508190509695505050505050565b600061332282613050565b915061332e8284612964565b915081905092915050565b600060208201905061334e60008301846127de565b92915050565b600060808201905061336960008301876127de565b61337660208301866127de565b6133836040830185613255565b81810360608301526133958184612888565b905095945050505050565b600060a0820190506133b560008301886127de565b81810360208301526133c7818761292b565b905081810360408301526133db818661292b565b905081810360608301526133ef818561292b565b90506133fe6080830184613255565b9695505050505050565b600060208201905081810360008301526134228184612804565b905092915050565b600060208201905061343f6000830184612879565b92915050565b6000602082019050818103600083015261345f818461292b565b905092915050565b6000602082019050818103600083015261348081612a54565b9050919050565b600060208201905081810360008301526134a081612aba565b9050919050565b600060208201905081810360008301526134c081612b20565b9050919050565b600060208201905081810360008301526134e081612b60565b9050919050565b6000602082019050818103600083015261350081612bc6565b9050919050565b6000602082019050818103600083015261352081612c46565b9050919050565b6000602082019050818103600083015261354081612cac565b9050919050565b6000602082019050818103600083015261356081612d12565b9050919050565b6000602082019050818103600083015261358081612d78565b9050919050565b600060208201905081810360008301526135a081612e5e565b9050919050565b600060208201905081810360008301526135c081612e9e565b9050919050565b600060208201905081810360008301526135e081612f04565b9050919050565b6000602082019050818103600083015261360081612f84565b9050919050565b6000602082019050818103600083015261362081612fea565b9050919050565b6000602082019050818103600083015261364081613090565b9050919050565b600060208201905061365c6000830184613255565b92915050565b6000604051905081810181811067ffffffffffffffff8211171561368957613688613ac8565b5b8060405250919050565b600067ffffffffffffffff8211156136ae576136ad613ac8565b5b601f19601f8301169050602081019050919050565b600067ffffffffffffffff8211156136de576136dd613ac8565b5b601f19601f8301169050602081019050919050565b6000819050602082019050919050565b60008190508160005260206000209050919050565b600081519050919050565b600081519050919050565b600081519050919050565b6000602082019050919050565b600082825260208201905092915050565b600082825260208201905092915050565b600081905092915050565b600082825260208201905092915050565b600082825260208201905092915050565b600081905092915050565b60006137ab8261391f565b91506137b68361391f565b9250827fffffffffffffffffffffffffffffffffffffffffffffffffffffffffffffffff038211156137eb576137ea613a3b565b5b828201905092915050565b60006138018261391f565b915061380c8361391f565b92508261381c5761381b613a6a565b5b828204905092915050565b60006138328261391f565b915061383d8361391f565b9250817fffffffffffffffffffffffffffffffffffffffffffffffffffffffffffffffff048311821515161561387657613875613a3b565b5b828202905092915050565b600061388c8261391f565b91506138978361391f565b9250828210156138aa576138a9613a3b565b5b828203905092915050565b60006138c0826138ff565b9050919050565b60008115159050919050565b60007fffffffff0000000000000000000000000000000000000000000000000000000082169050919050565b600073ffffffffffffffffffffffffffffffffffffffff82169050919050565b6000819050919050565b82818337600083830152505050565b60005b8381101561395657808201518184015260208101905061393b565b83811115613965576000848401525b50505050565b6000600282049050600182168061398357607f821691505b6020821081141561399757613996613a99565b5b50919050565b60006139a88261391f565b91507fffffffffffffffffffffffffffffffffffffffffffffffffffffffffffffffff8214156139db576139da613a3b565b5b600182019050919050565b60006139f1826139f8565b9050919050565b6000613a0382613b08565b9050919050565b6000613a158261391f565b9150613a208361391f565b925082613a3057613a2f613a6a565b5b828206905092915050565b7f4e487b7100000000000000000000000000000000000000000000000000000000600052601160045260246000fd5b7f4e487b7100000000000000000000000000000000000000000000000000000000600052601260045260246000fd5b7f4e487b7100000000000000000000000000000000000000000000000000000000600052602260045260246000fd5b7f4e487b7100000000000000000000000000000000000000000000000000000000600052604160045260246000fd5b6000601f19601f8301169050919050565b60008160601b9050919050565b613b1e816138b5565b8114613b2957600080fd5b50565b613b35816138c7565b8114613b4057600080fd5b50565b613b4c816138d3565b8114613b5757600080fd5b50565b613b638161391f565b8114613b6e57600080fd5b5056fe4142434445464748494a4b4c4d4e4f505152535455565758595a6162636465666768696a6b6c6d6e6f707172737475767778797a303132333435363738392b2fa2646970667358221220bd93ad924b48fa305b3b9d80b74aec6b8244264582bee4d54f1fac3e72619d1e64736f6c63430008000033",
  "linkReferences": {},
  "deployedLinkReferences": {}
}