{
  "_format": "hh-sol-artifact-1",
  "contractName": "VaxNFT",
  "sourceName": "contracts/vaxNFT.sol",
  "abi": [
    {
      "inputs": [],
      "stateMutability": "nonpayable",
      "type": "constructor"
    },
    {
      "anonymous": false,
      "inputs": [
        {
          "indexed": true,
          "internalType": "address",
          "name": "owner",
          "type": "address"
        },
        {
          "indexed": true,
          "internalType": "address",
          "name": "approved",
          "type": "address"
        },
        {
          "indexed": true,
          "internalType": "uint256",
          "name": "tokenId",
          "type": "uint256"
        }
      ],
      "name": "Approval",
      "type": "event"
    },
    {
      "anonymous": false,
      "inputs": [
        {
          "indexed": true,
          "internalType": "address",
          "name": "owner",
          "type": "address"
        },
        {
          "indexed": true,
          "internalType": "address",
          "name": "operator",
          "type": "address"
        },
        {
          "indexed": false,
          "internalType": "bool",
          "name": "approved",
          "type": "bool"
        }
      ],
      "name": "ApprovalForAll",
      "type": "event"
    },
    {
      "anonymous": false,
      "inputs": [
        {
          "indexed": true,
          "internalType": "address",
          "name": "previousOwner",
          "type": "address"
        },
        {
          "indexed": true,
          "internalType": "address",
          "name": "newOwner",
          "type": "address"
        }
      ],
      "name": "OwnershipTransferred",
      "type": "event"
    },
    {
      "anonymous": false,
      "inputs": [
        {
          "indexed": true,
          "internalType": "address",
          "name": "from",
          "type": "address"
        },
        {
          "indexed": true,
          "internalType": "address",
          "name": "to",
          "type": "address"
        },
        {
          "indexed": true,
          "internalType": "uint256",
          "name": "tokenId",
          "type": "uint256"
        }
      ],
      "name": "Transfer",
      "type": "event"
    },
    {
      "inputs": [
        {
          "internalType": "address",
          "name": "to",
          "type": "address"
        },
        {
          "internalType": "uint256",
          "name": "tokenId",
          "type": "uint256"
        }
      ],
      "name": "approve",
      "outputs": [],
      "stateMutability": "nonpayable",
      "type": "function"
    },
    {
      "inputs": [
        {
          "internalType": "address",
          "name": "owner",
          "type": "address"
        }
      ],
      "name": "balanceOf",
      "outputs": [
        {
          "internalType": "uint256",
          "name": "",
          "type": "uint256"
        }
      ],
      "stateMutability": "view",
      "type": "function"
    },
    {
      "inputs": [
        {
          "internalType": "uint256",
          "name": "tokenId",
          "type": "uint256"
        }
      ],
      "name": "getApproved",
      "outputs": [
        {
          "internalType": "address",
          "name": "",
          "type": "address"
        }
      ],
      "stateMutability": "view",
      "type": "function"
    },
    {
      "inputs": [
        {
          "internalType": "address",
          "name": "owner",
          "type": "address"
        },
        {
          "internalType": "address",
          "name": "operator",
          "type": "address"
        }
      ],
      "name": "isApprovedForAll",
      "outputs": [
        {
          "internalType": "bool",
          "name": "",
          "type": "bool"
        }
      ],
      "stateMutability": "view",
      "type": "function"
    },
    {
      "inputs": [
        {
          "internalType": "string",
          "name": "_firstName",
          "type": "string"
        },
        {
          "internalType": "string",
          "name": "_lastName",
          "type": "string"
        },
        {
          "internalType": "string",
          "name": "_manufacturer",
          "type": "string"
        },
        {
          "internalType": "uint256",
          "name": "_dosePhase",
          "type": "uint256"
        }
      ],
      "name": "mintNFT",
      "outputs": [
        {
          "internalType": "uint256",
          "name": "",
          "type": "uint256"
        }
      ],
      "stateMutability": "nonpayable",
      "type": "function"
    },
    {
      "inputs": [],
      "name": "name",
      "outputs": [
        {
          "internalType": "string",
          "name": "",
          "type": "string"
        }
      ],
      "stateMutability": "view",
      "type": "function"
    },
    {
      "inputs": [],
      "name": "owner",
      "outputs": [
        {
          "internalType": "address",
          "name": "",
          "type": "address"
        }
      ],
      "stateMutability": "view",
      "type": "function"
    },
    {
      "inputs": [
        {
          "internalType": "uint256",
          "name": "tokenId",
          "type": "uint256"
        }
      ],
      "name": "ownerOf",
      "outputs": [
        {
          "internalType": "address",
          "name": "",
          "type": "address"
        }
      ],
      "stateMutability": "view",
      "type": "function"
    },
    {
      "inputs": [],
      "name": "renounceOwnership",
      "outputs": [],
      "stateMutability": "nonpayable",
      "type": "function"
    },
    {
      "inputs": [
        {
          "internalType": "address",
          "name": "from",
          "type": "address"
        },
        {
          "internalType": "address",
          "name": "to",
          "type": "address"
        },
        {
          "internalType": "uint256",
          "name": "tokenId",
          "type": "uint256"
        }
      ],
      "name": "safeTransferFrom",
      "outputs": [],
      "stateMutability": "nonpayable",
      "type": "function"
    },
    {
      "inputs": [
        {
          "internalType": "address",
          "name": "from",
          "type": "address"
        },
        {
          "internalType": "address",
          "name": "to",
          "type": "address"
        },
        {
          "internalType": "uint256",
          "name": "tokenId",
          "type": "uint256"
        },
        {
          "internalType": "bytes",
          "name": "_data",
          "type": "bytes"
        }
      ],
      "name": "safeTransferFrom",
      "outputs": [],
      "stateMutability": "nonpayable",
      "type": "function"
    },
    {
      "inputs": [
        {
          "internalType": "address",
          "name": "operator",
          "type": "address"
        },
        {
          "internalType": "bool",
          "name": "approved",
          "type": "bool"
        }
      ],
      "name": "setApprovalForAll",
      "outputs": [],
      "stateMutability": "nonpayable",
      "type": "function"
    },
    {
      "inputs": [
        {
          "internalType": "bytes4",
          "name": "interfaceId",
          "type": "bytes4"
        }
      ],
      "name": "supportsInterface",
      "outputs": [
        {
          "internalType": "bool",
          "name": "",
          "type": "bool"
        }
      ],
      "stateMutability": "view",
      "type": "function"
    },
    {
      "inputs": [],
      "name": "symbol",
      "outputs": [
        {
          "internalType": "string",
          "name": "",
          "type": "string"
        }
      ],
      "stateMutability": "view",
      "type": "function"
    },
    {
      "inputs": [
        {
          "internalType": "uint256",
          "name": "tokenId",
          "type": "uint256"
        }
      ],
      "name": "tokenURI",
      "outputs": [
        {
          "internalType": "string",
          "name": "",
          "type": "string"
        }
      ],
      "stateMutability": "view",
      "type": "function"
    },
    {
      "inputs": [
        {
          "internalType": "address",
          "name": "_owner",
          "type": "address"
        }
      ],
      "name": "tokensOfOwner",
      "outputs": [
        {
          "components": [
            {
              "internalType": "address",
              "name": "mintAddress",
              "type": "address"
            },
            {
              "internalType": "string",
              "name": "firstName",
              "type": "string"
            },
            {
              "internalType": "string",
              "name": "lastName",
              "type": "string"
            },
            {
              "internalType": "string",
              "name": "manufacturer",
              "type": "string"
            },
            {
              "internalType": "uint256",
              "name": "dosePhase",
              "type": "uint256"
            }
          ],
          "internalType": "struct VaxNFT.TokenInfo[]",
          "name": "",
          "type": "tuple[]"
        }
      ],
      "stateMutability": "nonpayable",
      "type": "function"
    },
    {
      "inputs": [
        {
          "internalType": "address",
          "name": "from",
          "type": "address"
        },
        {
          "internalType": "address",
          "name": "to",
          "type": "address"
        },
        {
          "internalType": "uint256",
          "name": "tokenId",
          "type": "uint256"
        }
      ],
      "name": "transferFrom",
      "outputs": [],
      "stateMutability": "nonpayable",
      "type": "function"
    },
    {
      "inputs": [
        {
          "internalType": "address",
          "name": "newOwner",
          "type": "address"
        }
      ],
      "name": "transferOwnership",
      "outputs": [],
      "stateMutability": "nonpayable",
      "type": "function"
    }
  ],
  "bytecode": "0x60806040523480156200001157600080fd5b506040518060400160405280600681526020017f5661784e465400000000000000000000000000000000000000000000000000008152506040518060400160405280600381526020017f4e46540000000000000000000000000000000000000000000000000000000000815250816000908051906020019062000096929190620001a6565b508060019080519060200190620000af929190620001a6565b505050620000d2620000c6620000d860201b60201c565b620000e060201b60201c565b620002bb565b600033905090565b6000600660009054906101000a900473ffffffffffffffffffffffffffffffffffffffff16905081600660006101000a81548173ffffffffffffffffffffffffffffffffffffffff021916908373ffffffffffffffffffffffffffffffffffffffff1602179055508173ffffffffffffffffffffffffffffffffffffffff168173ffffffffffffffffffffffffffffffffffffffff167f8be0079c531659141344cd1fd0a4f28419497f9722a3daafe3b4186f6b6457e060405160405180910390a35050565b828054620001b49062000256565b90600052602060002090601f016020900481019282620001d8576000855562000224565b82601f10620001f357805160ff191683800117855562000224565b8280016001018555821562000224579182015b828111156200022357825182559160200191906001019062000206565b5b50905062000233919062000237565b5090565b5b808211156200025257600081600090555060010162000238565b5090565b600060028204905060018216806200026f57607f821691505b602082108114156200028657620002856200028c565b5b50919050565b7f4e487b7100000000000000000000000000000000000000000000000000000000600052602260045260246000fd5b61395280620002cb6000396000f3fe608060405234801561001057600080fd5b50600436106101165760003560e01c8063715018a6116100a2578063a22cb46511610071578063a22cb465146102f3578063b88d4fde1461030f578063c87b56dd1461032b578063e985e9c51461035b578063f2fde38b1461038b57610116565b8063715018a61461027d5780638462151c146102875780638da5cb5b146102b757806395d89b41146102d557610116565b806323b872dd116100e957806323b872dd146101b5578063345a98c4146101d157806342842e0e146102015780636352211e1461021d57806370a082311461024d57610116565b806301ffc9a71461011b57806306fdde031461014b578063081812fc14610169578063095ea7b314610199575b600080fd5b61013560048036038101906101309190612468565b6103a7565b6040516101429190613195565b60405180910390f35b610153610489565b60405161016091906131b0565b60405180910390f35b610183600480360381019061017e9190612565565b61051b565b604051610190919061310c565b60405180910390f35b6101b360048036038101906101ae919061242c565b6105a0565b005b6101cf60048036038101906101ca9190612326565b6106b8565b005b6101eb60048036038101906101e691906124ba565b610718565b6040516101f891906133b2565b60405180910390f35b61021b60048036038101906102169190612326565b610851565b005b61023760048036038101906102329190612565565b610871565b604051610244919061310c565b60405180910390f35b610267600480360381019061026291906122c1565b610923565b60405161027491906133b2565b60405180910390f35b6102856109db565b005b6102a1600480360381019061029c91906122c1565b610a63565b6040516102ae9190613173565b60405180910390f35b6102bf610e7d565b6040516102cc919061310c565b60405180910390f35b6102dd610ea7565b6040516102ea91906131b0565b60405180910390f35b61030d600480360381019061030891906123f0565b610f39565b005b61032960048036038101906103249190612375565b610f4f565b005b61034560048036038101906103409190612565565b610fb1565b60405161035291906131b0565b60405180910390f35b610375600480360381019061037091906122ea565b6110bb565b6040516103829190613195565b60405180910390f35b6103a560048036038101906103a091906122c1565b61114f565b005b60007f80ac58cd000000000000000000000000000000000000000000000000000000007bffffffffffffffffffffffffffffffffffffffffffffffffffffffff1916827bffffffffffffffffffffffffffffffffffffffffffffffffffffffff1916148061047257507f5b5e139f000000000000000000000000000000000000000000000000000000007bffffffffffffffffffffffffffffffffffffffffffffffffffffffff1916827bffffffffffffffffffffffffffffffffffffffffffffffffffffffff1916145b80610482575061048182611247565b5b9050919050565b606060008054610498906136d6565b80601f01602080910402602001604051908101604052809291908181526020018280546104c4906136d6565b80156105115780601f106104e657610100808354040283529160200191610511565b820191906000526020600020905b8154815290600101906020018083116104f457829003601f168201915b5050505050905090565b6000610526826112b1565b610565576040517f08c379a000000000000000000000000000000000000000000000000000000000815260040161055c90613312565b60405180910390fd5b6004600083815260200190815260200160002060009054906101000a900473ffffffffffffffffffffffffffffffffffffffff169050919050565b60006105ab82610871565b90508073ffffffffffffffffffffffffffffffffffffffff168373ffffffffffffffffffffffffffffffffffffffff16141561061c576040517f08c379a000000000000000000000000000000000000000000000000000000000815260040161061390613372565b60405180910390fd5b8073ffffffffffffffffffffffffffffffffffffffff1661063b61131d565b73ffffffffffffffffffffffffffffffffffffffff16148061066a57506106698161066461131d565b6110bb565b5b6106a9576040517f08c379a00000000000000000000000000000000000000000000000000000000081526004016106a090613292565b60405180910390fd5b6106b38383611325565b505050565b6106c96106c361131d565b826113de565b610708576040517f08c379a00000000000000000000000000000000000000000000000000000000081526004016106ff90613392565b60405180910390fd5b6107138383836114bc565b505050565b60006107246007611718565b6000610730600761172e565b905061074361073d61131d565b8261173c565b6040518060a0016040528061075661131d565b73ffffffffffffffffffffffffffffffffffffffff168152602001878152602001868152602001858152602001848152506008600083815260200190815260200160002060008201518160000160006101000a81548173ffffffffffffffffffffffffffffffffffffffff021916908373ffffffffffffffffffffffffffffffffffffffff16021790555060208201518160010190805190602001906107fd9291906120a0565b50604082015181600201908051906020019061081a9291906120a0565b5060608201518160030190805190602001906108379291906120a0565b506080820151816004015590505080915050949350505050565b61086c83838360405180602001604052806000815250610f4f565b505050565b6000806002600084815260200190815260200160002060009054906101000a900473ffffffffffffffffffffffffffffffffffffffff169050600073ffffffffffffffffffffffffffffffffffffffff168173ffffffffffffffffffffffffffffffffffffffff16141561091a576040517f08c379a0000000000000000000000000000000000000000000000000000000008152600401610911906132d2565b60405180910390fd5b80915050919050565b60008073ffffffffffffffffffffffffffffffffffffffff168273ffffffffffffffffffffffffffffffffffffffff161415610994576040517f08c379a000000000000000000000000000000000000000000000000000000000815260040161098b906132b2565b60405180910390fd5b600360008373ffffffffffffffffffffffffffffffffffffffff1673ffffffffffffffffffffffffffffffffffffffff168152602001908152602001600020549050919050565b6109e361131d565b73ffffffffffffffffffffffffffffffffffffffff16610a01610e7d565b73ffffffffffffffffffffffffffffffffffffffff1614610a57576040517f08c379a0000000000000000000000000000000000000000000000000000000008152600401610a4e90613332565b60405180910390fd5b610a61600061190a565b565b60606000610a7083610923565b90506000811415610afe57600067ffffffffffffffff811115610abc577f4e487b7100000000000000000000000000000000000000000000000000000000600052604160045260246000fd5b604051908082528060200260200182016040528015610af557816020015b610ae2612126565b815260200190600190039081610ada5790505b50915050610e78565b60008167ffffffffffffffff811115610b40577f4e487b7100000000000000000000000000000000000000000000000000000000600052604160045260246000fd5b604051908082528060200260200182016040528015610b7957816020015b610b66612126565b815260200190600190039081610b5e5790505b5090506000610b88600761172e565b9050600080600190505b828111610e6f578673ffffffffffffffffffffffffffffffffffffffff16610bb982610871565b73ffffffffffffffffffffffffffffffffffffffff161415610e5c57600860008281526020019081526020016000206040518060a00160405290816000820160009054906101000a900473ffffffffffffffffffffffffffffffffffffffff1673ffffffffffffffffffffffffffffffffffffffff1673ffffffffffffffffffffffffffffffffffffffff168152602001600182018054610c59906136d6565b80601f0160208091040260200160405190810160405280929190818152602001828054610c85906136d6565b8015610cd25780601f10610ca757610100808354040283529160200191610cd2565b820191906000526020600020905b815481529060010190602001808311610cb557829003601f168201915b50505050508152602001600282018054610ceb906136d6565b80601f0160208091040260200160405190810160405280929190818152602001828054610d17906136d6565b8015610d645780601f10610d3957610100808354040283529160200191610d64565b820191906000526020600020905b815481529060010190602001808311610d4757829003601f168201915b50505050508152602001600382018054610d7d906136d6565b80601f0160208091040260200160405190810160405280929190818152602001828054610da9906136d6565b8015610df65780601f10610dcb57610100808354040283529160200191610df6565b820191906000526020600020905b815481529060010190602001808311610dd957829003601f168201915b50505050508152602001600482015481525050848381518110610e42577f4e487b7100000000000000000000000000000000000000000000000000000000600052603260045260246000fd5b60200260200101819052508180610e5890613708565b9250505b8080610e6790613708565b915050610b92565b83955050505050505b919050565b6000600660009054906101000a900473ffffffffffffffffffffffffffffffffffffffff16905090565b606060018054610eb6906136d6565b80601f0160208091040260200160405190810160405280929190818152602001828054610ee2906136d6565b8015610f2f5780601f10610f0457610100808354040283529160200191610f2f565b820191906000526020600020905b815481529060010190602001808311610f1257829003601f168201915b5050505050905090565b610f4b610f4461131d565b83836119d0565b5050565b610f60610f5a61131d565b836113de565b610f9f576040517f08c379a0000000000000000000000000000000000000000000000000000000008152600401610f9690613392565b60405180910390fd5b610fab84848484611b3d565b50505050565b60606110956008600084815260200190815260200160002060010160086000858152602001908152602001600020600201600860008681526020019081526020016000206003016110176008600088815260200190815260200160002060040154611b99565b6008600088815260200190815260200160002060000160009054906101000a900473ffffffffffffffffffffffffffffffffffffffff1660405160200161105e9190613037565b604051602081830303815290604052604051602001611081959493929190613052565b604051602081830303815290604052611d46565b6040516020016110a591906130ea565b6040516020818303038152906040529050919050565b6000600560008473ffffffffffffffffffffffffffffffffffffffff1673ffffffffffffffffffffffffffffffffffffffff16815260200190815260200160002060008373ffffffffffffffffffffffffffffffffffffffff1673ffffffffffffffffffffffffffffffffffffffff16815260200190815260200160002060009054906101000a900460ff16905092915050565b61115761131d565b73ffffffffffffffffffffffffffffffffffffffff16611175610e7d565b73ffffffffffffffffffffffffffffffffffffffff16146111cb576040517f08c379a00000000000000000000000000000000000000000000000000000000081526004016111c290613332565b60405180910390fd5b600073ffffffffffffffffffffffffffffffffffffffff168173ffffffffffffffffffffffffffffffffffffffff16141561123b576040517f08c379a0000000000000000000000000000000000000000000000000000000008152600401611232906131f2565b60405180910390fd5b6112448161190a565b50565b60007f01ffc9a7000000000000000000000000000000000000000000000000000000007bffffffffffffffffffffffffffffffffffffffffffffffffffffffff1916827bffffffffffffffffffffffffffffffffffffffffffffffffffffffff1916149050919050565b60008073ffffffffffffffffffffffffffffffffffffffff166002600084815260200190815260200160002060009054906101000a900473ffffffffffffffffffffffffffffffffffffffff1673ffffffffffffffffffffffffffffffffffffffff1614159050919050565b600033905090565b816004600083815260200190815260200160002060006101000a81548173ffffffffffffffffffffffffffffffffffffffff021916908373ffffffffffffffffffffffffffffffffffffffff160217905550808273ffffffffffffffffffffffffffffffffffffffff1661139883610871565b73ffffffffffffffffffffffffffffffffffffffff167f8c5be1e5ebec7d5bd14f71427d1e84f3dd0314c0f7b2291e5b200ac8c7c3b92560405160405180910390a45050565b60006113e9826112b1565b611428576040517f08c379a000000000000000000000000000000000000000000000000000000000815260040161141f90613272565b60405180910390fd5b600061143383610871565b90508073ffffffffffffffffffffffffffffffffffffffff168473ffffffffffffffffffffffffffffffffffffffff1614806114a257508373ffffffffffffffffffffffffffffffffffffffff1661148a8461051b565b73ffffffffffffffffffffffffffffffffffffffff16145b806114b357506114b281856110bb565b5b91505092915050565b8273ffffffffffffffffffffffffffffffffffffffff166114dc82610871565b73ffffffffffffffffffffffffffffffffffffffff1614611532576040517f08c379a000000000000000000000000000000000000000000000000000000000815260040161152990613352565b60405180910390fd5b600073ffffffffffffffffffffffffffffffffffffffff168273ffffffffffffffffffffffffffffffffffffffff1614156115a2576040517f08c379a000000000000000000000000000000000000000000000000000000000815260040161159990613232565b60405180910390fd5b6115ad838383611ef1565b6115b8600082611325565b6001600360008573ffffffffffffffffffffffffffffffffffffffff1673ffffffffffffffffffffffffffffffffffffffff168152602001908152602001600020600082825461160891906135ec565b925050819055506001600360008473ffffffffffffffffffffffffffffffffffffffff1673ffffffffffffffffffffffffffffffffffffffff168152602001908152602001600020600082825461165f919061350b565b92505081905550816002600083815260200190815260200160002060006101000a81548173ffffffffffffffffffffffffffffffffffffffff021916908373ffffffffffffffffffffffffffffffffffffffff160217905550808273ffffffffffffffffffffffffffffffffffffffff168473ffffffffffffffffffffffffffffffffffffffff167fddf252ad1be2c89b69c2b068fc378daa952ba7f163c4a11628f55a4df523b3ef60405160405180910390a4505050565b6001816000016000828254019250508190555050565b600081600001549050919050565b600073ffffffffffffffffffffffffffffffffffffffff168273ffffffffffffffffffffffffffffffffffffffff1614156117ac576040517f08c379a00000000000000000000000000000000000000000000000000000000081526004016117a3906132f2565b60405180910390fd5b6117b5816112b1565b156117f5576040517f08c379a00000000000000000000000000000000000000000000000000000000081526004016117ec90613212565b60405180910390fd5b61180160008383611ef1565b6001600360008473ffffffffffffffffffffffffffffffffffffffff1673ffffffffffffffffffffffffffffffffffffffff1681526020019081526020016000206000828254611851919061350b565b92505081905550816002600083815260200190815260200160002060006101000a81548173ffffffffffffffffffffffffffffffffffffffff021916908373ffffffffffffffffffffffffffffffffffffffff160217905550808273ffffffffffffffffffffffffffffffffffffffff16600073ffffffffffffffffffffffffffffffffffffffff167fddf252ad1be2c89b69c2b068fc378daa952ba7f163c4a11628f55a4df523b3ef60405160405180910390a45050565b6000600660009054906101000a900473ffffffffffffffffffffffffffffffffffffffff16905081600660006101000a81548173ffffffffffffffffffffffffffffffffffffffff021916908373ffffffffffffffffffffffffffffffffffffffff1602179055508173ffffffffffffffffffffffffffffffffffffffff168173ffffffffffffffffffffffffffffffffffffffff167f8be0079c531659141344cd1fd0a4f28419497f9722a3daafe3b4186f6b6457e060405160405180910390a35050565b8173ffffffffffffffffffffffffffffffffffffffff168373ffffffffffffffffffffffffffffffffffffffff161415611a3f576040517f08c379a0000000000000000000000000000000000000000000000000000000008152600401611a3690613252565b60405180910390fd5b80600560008573ffffffffffffffffffffffffffffffffffffffff1673ffffffffffffffffffffffffffffffffffffffff16815260200190815260200160002060008473ffffffffffffffffffffffffffffffffffffffff1673ffffffffffffffffffffffffffffffffffffffff16815260200190815260200160002060006101000a81548160ff0219169083151502179055508173ffffffffffffffffffffffffffffffffffffffff168373ffffffffffffffffffffffffffffffffffffffff167f17307eab39ab6107e8899845ad3d59bd9653f200f220920489ca2b5937696c3183604051611b309190613195565b60405180910390a3505050565b611b488484846114bc565b611b5484848484611ef6565b611b93576040517f08c379a0000000000000000000000000000000000000000000000000000000008152600401611b8a906131d2565b60405180910390fd5b50505050565b60606000821415611be1576040518060400160405280600181526020017f30000000000000000000000000000000000000000000000000000000000000008152509050611d41565b600082905060005b60008214611c13578080611bfc90613708565b915050600a82611c0c9190613561565b9150611be9565b60008167ffffffffffffffff811115611c55577f4e487b7100000000000000000000000000000000000000000000000000000000600052604160045260246000fd5b6040519080825280601f01601f191660200182016040528015611c875781602001600182028036833780820191505090505b5090505b60008514611d3a57600182611ca091906135ec565b9150600a85611caf9190613775565b6030611cbb919061350b565b60f81b818381518110611cf7577f4e487b7100000000000000000000000000000000000000000000000000000000600052603260045260246000fd5b60200101907effffffffffffffffffffffffffffffffffffffffffffffffffffffffffffff1916908160001a905350600a85611d339190613561565b9450611c8b565b8093505050505b919050565b6060600082511415611d6957604051806020016040528060008152509050611eec565b60006040518060600160405280604081526020016138dd6040913990506000600360028551611d98919061350b565b611da29190613561565b6004611dae9190613592565b90506000602082611dbf919061350b565b67ffffffffffffffff811115611dfe577f4e487b7100000000000000000000000000000000000000000000000000000000600052604160045260246000fd5b6040519080825280601f01601f191660200182016040528015611e305781602001600182028036833780820191505090505b509050818152600183018586518101602084015b81831015611eab576003830192508251603f8160121c1685015160f81b8252600182019150603f81600c1c1685015160f81b8252600182019150603f8160061c1685015160f81b8252600182019150603f811685015160f81b825260018201915050611e44565b600389510660018114611ec55760028114611ed557611ee0565b613d3d60f01b6002830352611ee0565b603d60f81b60018303525b50505050508093505050505b919050565b505050565b6000611f178473ffffffffffffffffffffffffffffffffffffffff1661208d565b15612080578373ffffffffffffffffffffffffffffffffffffffff1663150b7a02611f4061131d565b8786866040518563ffffffff1660e01b8152600401611f629493929190613127565b602060405180830381600087803b158015611f7c57600080fd5b505af1925050508015611fad57506040513d601f19601f82011682018060405250810190611faa9190612491565b60015b612030573d8060008114611fdd576040519150601f19603f3d011682016040523d82523d6000602084013e611fe2565b606091505b50600081511415612028576040517f08c379a000000000000000000000000000000000000000000000000000000000815260040161201f906131d2565b60405180910390fd5b805181602001fd5b63150b7a0260e01b7bffffffffffffffffffffffffffffffffffffffffffffffffffffffff1916817bffffffffffffffffffffffffffffffffffffffffffffffffffffffff191614915050612085565b600190505b949350505050565b600080823b905060008111915050919050565b8280546120ac906136d6565b90600052602060002090601f0160209004810192826120ce5760008555612115565b82601f106120e757805160ff1916838001178555612115565b82800160010185558215612115579182015b828111156121145782518255916020019190600101906120f9565b5b509050612122919061216b565b5090565b6040518060a00160405280600073ffffffffffffffffffffffffffffffffffffffff168152602001606081526020016060815260200160608152602001600081525090565b5b8082111561218457600081600090555060010161216c565b5090565b600061219b612196846133fe565b6133cd565b9050828152602081018484840111156121b357600080fd5b6121be848285613694565b509392505050565b60006121d96121d48461342e565b6133cd565b9050828152602081018484840111156121f157600080fd5b6121fc848285613694565b509392505050565b60008135905061221381613880565b92915050565b60008135905061222881613897565b92915050565b60008135905061223d816138ae565b92915050565b600081519050612252816138ae565b92915050565b600082601f83011261226957600080fd5b8135612279848260208601612188565b91505092915050565b600082601f83011261229357600080fd5b81356122a38482602086016121c6565b91505092915050565b6000813590506122bb816138c5565b92915050565b6000602082840312156122d357600080fd5b60006122e184828501612204565b91505092915050565b600080604083850312156122fd57600080fd5b600061230b85828601612204565b925050602061231c85828601612204565b9150509250929050565b60008060006060848603121561233b57600080fd5b600061234986828701612204565b935050602061235a86828701612204565b925050604061236b868287016122ac565b9150509250925092565b6000806000806080858703121561238b57600080fd5b600061239987828801612204565b94505060206123aa87828801612204565b93505060406123bb878288016122ac565b925050606085013567ffffffffffffffff8111156123d857600080fd5b6123e487828801612258565b91505092959194509250565b6000806040838503121561240357600080fd5b600061241185828601612204565b925050602061242285828601612219565b9150509250929050565b6000806040838503121561243f57600080fd5b600061244d85828601612204565b925050602061245e858286016122ac565b9150509250929050565b60006020828403121561247a57600080fd5b60006124888482850161222e565b91505092915050565b6000602082840312156124a357600080fd5b60006124b184828501612243565b91505092915050565b600080600080608085870312156124d057600080fd5b600085013567ffffffffffffffff8111156124ea57600080fd5b6124f687828801612282565b945050602085013567ffffffffffffffff81111561251357600080fd5b61251f87828801612282565b935050604085013567ffffffffffffffff81111561253c57600080fd5b61254887828801612282565b9250506060612559878288016122ac565b91505092959194509250565b60006020828403121561257757600080fd5b6000612585848285016122ac565b91505092915050565b600061259a8383612f95565b905092915050565b6125ab81613620565b82525050565b6125ba81613620565b82525050565b6125d16125cc82613620565b613751565b82525050565b60006125e282613483565b6125ec81856134b1565b9350836020820285016125fe8561345e565b8060005b8581101561263a578484038952815161261b858261258e565b9450612626836134a4565b925060208a01995050600181019050612602565b50829750879550505050505092915050565b61265581613632565b82525050565b60006126668261348e565b61267081856134c2565b93506126808185602086016136a3565b61268981613862565b840191505092915050565b600061269f8261348e565b6126a981856134d3565b93506126b98185602086016136a3565b80840191505092915050565b60006126d082613499565b6126da81856134de565b93506126ea8185602086016136a3565b6126f381613862565b840191505092915050565b600061270982613499565b61271381856134ef565b93506127238185602086016136a3565b61272c81613862565b840191505092915050565b600061274282613499565b61274c8185613500565b935061275c8185602086016136a3565b80840191505092915050565b60008154612775816136d6565b61277f8186613500565b9450600182166000811461279a57600181146127ab576127de565b60ff198316865281860193506127de565b6127b48561346e565b60005b838110156127d6578154818901526001820191506020810190506127b7565b838801955050505b50505092915050565b60006127f4600f83613500565b91507f222c20226c6173744e616d65223a2200000000000000000000000000000000006000830152600f82019050919050565b60006128346032836134ef565b91507f4552433732313a207472616e7366657220746f206e6f6e20455243373231526560008301527f63656976657220696d706c656d656e74657200000000000000000000000000006020830152604082019050919050565b600061289a6026836134ef565b91507f4f776e61626c653a206e6577206f776e657220697320746865207a65726f206160008301527f64647265737300000000000000000000000000000000000000000000000000006020830152604082019050919050565b6000612900601c836134ef565b91507f4552433732313a20746f6b656e20616c7265616479206d696e746564000000006000830152602082019050919050565b60006129406024836134ef565b91507f4552433732313a207472616e7366657220746f20746865207a65726f2061646460008301527f72657373000000000000000000000000000000000000000000000000000000006020830152604082019050919050565b60006129a66019836134ef565b91507f4552433732313a20617070726f766520746f2063616c6c6572000000000000006000830152602082019050919050565b60006129e6601283613500565b91507f7b226e616d65223a22566178204e4654222c00000000000000000000000000006000830152601282019050919050565b6000612a26602c836134ef565b91507f4552433732313a206f70657261746f7220717565727920666f72206e6f6e657860008301527f697374656e7420746f6b656e00000000000000000000000000000000000000006020830152604082019050919050565b6000612a8c6038836134ef565b91507f4552433732313a20617070726f76652063616c6c6572206973206e6f74206f7760008301527f6e6572206e6f7220617070726f76656420666f7220616c6c00000000000000006020830152604082019050919050565b6000612af2602a836134ef565b91507f4552433732313a2062616c616e636520717565727920666f7220746865207a6560008301527f726f2061646472657373000000000000000000000000000000000000000000006020830152604082019050919050565b6000612b586029836134ef565b91507f4552433732313a206f776e657220717565727920666f72206e6f6e657869737460008301527f656e7420746f6b656e00000000000000000000000000000000000000000000006020830152604082019050919050565b6000612bbe601283613500565b91507f222c226d616e756661637475726572223a2200000000000000000000000000006000830152601282019050919050565b6000612bfe600283613500565b91507f227d0000000000000000000000000000000000000000000000000000000000006000830152600282019050919050565b6000612c3e6020836134ef565b91507f4552433732313a206d696e7420746f20746865207a65726f20616464726573736000830152602082019050919050565b6000612c7e602c836134ef565b91507f4552433732313a20617070726f76656420717565727920666f72206e6f6e657860008301527f697374656e7420746f6b656e00000000000000000000000000000000000000006020830152604082019050919050565b6000612ce46020836134ef565b91507f4f776e61626c653a2063616c6c6572206973206e6f7420746865206f776e65726000830152602082019050919050565b6000612d24600c83613500565b91507f222c226f726967696e223a2200000000000000000000000000000000000000006000830152600c82019050919050565b6000612d646029836134ef565b91507f4552433732313a207472616e73666572206f6620746f6b656e2074686174206960008301527f73206e6f74206f776e00000000000000000000000000000000000000000000006020830152604082019050919050565b6000612dca6021836134ef565b91507f4552433732313a20617070726f76616c20746f2063757272656e74206f776e6560008301527f72000000000000000000000000000000000000000000000000000000000000006020830152604082019050919050565b6000612e30601d83613500565b91507f646174613a6170706c69636174696f6e2f6a736f6e3b6261736536342c0000006000830152601d82019050919050565b6000612e706031836134ef565b91507f4552433732313a207472616e736665722063616c6c6572206973206e6f74206f60008301527f776e6572206e6f7220617070726f7665640000000000000000000000000000006020830152604082019050919050565b6000612ed6604783613500565b91507f226465736372697074696f6e223a22416e204e465420666f722076616363696e60008301527f6174696f6e73222c202261747472696275746573223a22222c2022666972737460208301527f4e616d65223a22000000000000000000000000000000000000000000000000006040830152604782019050919050565b6000612f62601083613500565b91507f222c2022646f73655068617365223a22000000000000000000000000000000006000830152601082019050919050565b600060a083016000830151612fad60008601826125a2565b5060208301518482036020860152612fc582826126c5565b91505060408301518482036040860152612fdf82826126c5565b91505060608301518482036060860152612ff982826126c5565b915050608083015161300e6080860182613019565b508091505092915050565b6130228161368a565b82525050565b6130318161368a565b82525050565b600061304382846125c0565b60148201915081905092915050565b600061305d826129d9565b915061306882612ec9565b91506130748288612768565b915061307f826127e7565b915061308b8287612768565b915061309682612bb1565b91506130a28286612768565b91506130ad82612f55565b91506130b98285612737565b91506130c482612d17565b91506130d08284612694565b91506130db82612bf1565b91508190509695505050505050565b60006130f582612e23565b91506131018284612737565b915081905092915050565b600060208201905061312160008301846125b1565b92915050565b600060808201905061313c60008301876125b1565b61314960208301866125b1565b6131566040830185613028565b8181036060830152613168818461265b565b905095945050505050565b6000602082019050818103600083015261318d81846125d7565b905092915050565b60006020820190506131aa600083018461264c565b92915050565b600060208201905081810360008301526131ca81846126fe565b905092915050565b600060208201905081810360008301526131eb81612827565b9050919050565b6000602082019050818103600083015261320b8161288d565b9050919050565b6000602082019050818103600083015261322b816128f3565b9050919050565b6000602082019050818103600083015261324b81612933565b9050919050565b6000602082019050818103600083015261326b81612999565b9050919050565b6000602082019050818103600083015261328b81612a19565b9050919050565b600060208201905081810360008301526132ab81612a7f565b9050919050565b600060208201905081810360008301526132cb81612ae5565b9050919050565b600060208201905081810360008301526132eb81612b4b565b9050919050565b6000602082019050818103600083015261330b81612c31565b9050919050565b6000602082019050818103600083015261332b81612c71565b9050919050565b6000602082019050818103600083015261334b81612cd7565b9050919050565b6000602082019050818103600083015261336b81612d57565b9050919050565b6000602082019050818103600083015261338b81612dbd565b9050919050565b600060208201905081810360008301526133ab81612e63565b9050919050565b60006020820190506133c76000830184613028565b92915050565b6000604051905081810181811067ffffffffffffffff821117156133f4576133f3613833565b5b8060405250919050565b600067ffffffffffffffff82111561341957613418613833565b5b601f19601f8301169050602081019050919050565b600067ffffffffffffffff82111561344957613448613833565b5b601f19601f8301169050602081019050919050565b6000819050602082019050919050565b60008190508160005260206000209050919050565b600081519050919050565b600081519050919050565b600081519050919050565b6000602082019050919050565b600082825260208201905092915050565b600082825260208201905092915050565b600081905092915050565b600082825260208201905092915050565b600082825260208201905092915050565b600081905092915050565b60006135168261368a565b91506135218361368a565b9250827fffffffffffffffffffffffffffffffffffffffffffffffffffffffffffffffff03821115613556576135556137a6565b5b828201905092915050565b600061356c8261368a565b91506135778361368a565b925082613587576135866137d5565b5b828204905092915050565b600061359d8261368a565b91506135a88361368a565b9250817fffffffffffffffffffffffffffffffffffffffffffffffffffffffffffffffff04831182151516156135e1576135e06137a6565b5b828202905092915050565b60006135f78261368a565b91506136028361368a565b925082821015613615576136146137a6565b5b828203905092915050565b600061362b8261366a565b9050919050565b60008115159050919050565b60007fffffffff0000000000000000000000000000000000000000000000000000000082169050919050565b600073ffffffffffffffffffffffffffffffffffffffff82169050919050565b6000819050919050565b82818337600083830152505050565b60005b838110156136c15780820151818401526020810190506136a6565b838111156136d0576000848401525b50505050565b600060028204905060018216806136ee57607f821691505b6020821081141561370257613701613804565b5b50919050565b60006137138261368a565b91507fffffffffffffffffffffffffffffffffffffffffffffffffffffffffffffffff821415613746576137456137a6565b5b600182019050919050565b600061375c82613763565b9050919050565b600061376e82613873565b9050919050565b60006137808261368a565b915061378b8361368a565b92508261379b5761379a6137d5565b5b828206905092915050565b7f4e487b7100000000000000000000000000000000000000000000000000000000600052601160045260246000fd5b7f4e487b7100000000000000000000000000000000000000000000000000000000600052601260045260246000fd5b7f4e487b7100000000000000000000000000000000000000000000000000000000600052602260045260246000fd5b7f4e487b7100000000000000000000000000000000000000000000000000000000600052604160045260246000fd5b6000601f19601f8301169050919050565b60008160601b9050919050565b61388981613620565b811461389457600080fd5b50565b6138a081613632565b81146138ab57600080fd5b50565b6138b78161363e565b81146138c257600080fd5b50565b6138ce8161368a565b81146138d957600080fd5b5056fe4142434445464748494a4b4c4d4e4f505152535455565758595a6162636465666768696a6b6c6d6e6f707172737475767778797a303132333435363738392b2fa2646970667358221220b6b98f539b2a33f28f46222375090ed5890db6f3b601635a3e93270f3443d32664736f6c63430008000033",
  "linkReferences": {},
  "deployedLinkReferences": {}
}