{
  "_format": "hh-sol-artifact-1",
  "contractName": "VaxNFT",
  "sourceName": "contracts/vaxNFT.sol",
  "abi": [
    {
      "inputs": [],
      "stateMutability": "nonpayable",
      "type": "constructor"
    },
    {
      "anonymous": false,
      "inputs": [
        {
          "indexed": true,
          "internalType": "address",
          "name": "owner",
          "type": "address"
        },
        {
          "indexed": true,
          "internalType": "address",
          "name": "approved",
          "type": "address"
        },
        {
          "indexed": true,
          "internalType": "uint256",
          "name": "tokenId",
          "type": "uint256"
        }
      ],
      "name": "Approval",
      "type": "event"
    },
    {
      "anonymous": false,
      "inputs": [
        {
          "indexed": true,
          "internalType": "address",
          "name": "owner",
          "type": "address"
        },
        {
          "indexed": true,
          "internalType": "address",
          "name": "operator",
          "type": "address"
        },
        {
          "indexed": false,
          "internalType": "bool",
          "name": "approved",
          "type": "bool"
        }
      ],
      "name": "ApprovalForAll",
      "type": "event"
    },
    {
      "anonymous": false,
      "inputs": [
        {
          "indexed": true,
          "internalType": "address",
          "name": "previousOwner",
          "type": "address"
        },
        {
          "indexed": true,
          "internalType": "address",
          "name": "newOwner",
          "type": "address"
        }
      ],
      "name": "OwnershipTransferred",
      "type": "event"
    },
    {
      "anonymous": false,
      "inputs": [
        {
          "indexed": true,
          "internalType": "address",
          "name": "from",
          "type": "address"
        },
        {
          "indexed": true,
          "internalType": "address",
          "name": "to",
          "type": "address"
        },
        {
          "indexed": true,
          "internalType": "uint256",
          "name": "tokenId",
          "type": "uint256"
        }
      ],
      "name": "Transfer",
      "type": "event"
    },
    {
      "anonymous": false,
      "inputs": [
        {
          "indexed": false,
          "internalType": "uint256",
          "name": "tokenId",
          "type": "uint256"
        }
      ],
      "name": "Vaccine",
      "type": "event"
    },
    {
      "inputs": [
        {
          "internalType": "address",
          "name": "to",
          "type": "address"
        },
        {
          "internalType": "uint256",
          "name": "tokenId",
          "type": "uint256"
        }
      ],
      "name": "approve",
      "outputs": [],
      "stateMutability": "nonpayable",
      "type": "function"
    },
    {
      "inputs": [
        {
          "internalType": "address",
          "name": "owner",
          "type": "address"
        }
      ],
      "name": "balanceOf",
      "outputs": [
        {
          "internalType": "uint256",
          "name": "",
          "type": "uint256"
        }
      ],
      "stateMutability": "view",
      "type": "function"
    },
    {
      "inputs": [
        {
          "internalType": "string",
          "name": "_name",
          "type": "string"
        },
        {
          "internalType": "string",
          "name": "_p_address",
          "type": "string"
        },
        {
          "internalType": "string",
          "name": "_email",
          "type": "string"
        },
        {
          "internalType": "address",
          "name": "_walletId",
          "type": "address"
        }
      ],
      "name": "clinicSignup",
      "outputs": [
        {
          "components": [
            {
              "internalType": "string",
              "name": "name",
              "type": "string"
            },
            {
              "internalType": "string",
              "name": "p_address",
              "type": "string"
            },
            {
              "internalType": "string",
              "name": "email",
              "type": "string"
            }
          ],
          "internalType": "struct VaxNFT.Clinic",
          "name": "",
          "type": "tuple"
        }
      ],
      "stateMutability": "nonpayable",
      "type": "function"
    },
    {
      "inputs": [
        {
          "internalType": "uint256",
          "name": "tokenId",
          "type": "uint256"
        }
      ],
      "name": "getApproved",
      "outputs": [
        {
          "internalType": "address",
          "name": "",
          "type": "address"
        }
      ],
      "stateMutability": "view",
      "type": "function"
    },
    {
      "inputs": [
        {
          "internalType": "address",
          "name": "owner",
          "type": "address"
        },
        {
          "internalType": "address",
          "name": "operator",
          "type": "address"
        }
      ],
      "name": "isApprovedForAll",
      "outputs": [
        {
          "internalType": "bool",
          "name": "",
          "type": "bool"
        }
      ],
      "stateMutability": "view",
      "type": "function"
    },
    {
      "inputs": [
        {
          "internalType": "string",
          "name": "_product",
          "type": "string"
        },
        {
          "internalType": "string",
          "name": "_lot",
          "type": "string"
        },
        {
          "internalType": "uint256",
          "name": "_phase",
          "type": "uint256"
        },
        {
          "internalType": "string",
          "name": "_date",
          "type": "string"
        }
      ],
      "name": "mintNFT",
      "outputs": [
        {
          "internalType": "uint256",
          "name": "",
          "type": "uint256"
        }
      ],
      "stateMutability": "nonpayable",
      "type": "function"
    },
    {
      "inputs": [],
      "name": "name",
      "outputs": [
        {
          "internalType": "string",
          "name": "",
          "type": "string"
        }
      ],
      "stateMutability": "view",
      "type": "function"
    },
    {
      "inputs": [],
      "name": "owner",
      "outputs": [
        {
          "internalType": "address",
          "name": "",
          "type": "address"
        }
      ],
      "stateMutability": "view",
      "type": "function"
    },
    {
      "inputs": [
        {
          "internalType": "uint256",
          "name": "tokenId",
          "type": "uint256"
        }
      ],
      "name": "ownerOf",
      "outputs": [
        {
          "internalType": "address",
          "name": "",
          "type": "address"
        }
      ],
      "stateMutability": "view",
      "type": "function"
    },
    {
      "inputs": [
        {
          "internalType": "string",
          "name": "_hash",
          "type": "string"
        },
        {
          "internalType": "address",
          "name": "_walletId",
          "type": "address"
        }
      ],
      "name": "patientSignup",
      "outputs": [
        {
          "internalType": "string",
          "name": "",
          "type": "string"
        }
      ],
      "stateMutability": "nonpayable",
      "type": "function"
    },
    {
      "inputs": [],
      "name": "renounceOwnership",
      "outputs": [],
      "stateMutability": "nonpayable",
      "type": "function"
    },
    {
      "inputs": [
        {
          "internalType": "address",
          "name": "from",
          "type": "address"
        },
        {
          "internalType": "address",
          "name": "to",
          "type": "address"
        },
        {
          "internalType": "uint256",
          "name": "tokenId",
          "type": "uint256"
        }
      ],
      "name": "safeTransferFrom",
      "outputs": [],
      "stateMutability": "nonpayable",
      "type": "function"
    },
    {
      "inputs": [
        {
          "internalType": "address",
          "name": "from",
          "type": "address"
        },
        {
          "internalType": "address",
          "name": "to",
          "type": "address"
        },
        {
          "internalType": "uint256",
          "name": "tokenId",
          "type": "uint256"
        },
        {
          "internalType": "bytes",
          "name": "_data",
          "type": "bytes"
        }
      ],
      "name": "safeTransferFrom",
      "outputs": [],
      "stateMutability": "nonpayable",
      "type": "function"
    },
    {
      "inputs": [
        {
          "internalType": "address",
          "name": "operator",
          "type": "address"
        },
        {
          "internalType": "bool",
          "name": "approved",
          "type": "bool"
        }
      ],
      "name": "setApprovalForAll",
      "outputs": [],
      "stateMutability": "nonpayable",
      "type": "function"
    },
    {
      "inputs": [
        {
          "internalType": "bytes4",
          "name": "interfaceId",
          "type": "bytes4"
        }
      ],
      "name": "supportsInterface",
      "outputs": [
        {
          "internalType": "bool",
          "name": "",
          "type": "bool"
        }
      ],
      "stateMutability": "view",
      "type": "function"
    },
    {
      "inputs": [],
      "name": "symbol",
      "outputs": [
        {
          "internalType": "string",
          "name": "",
          "type": "string"
        }
      ],
      "stateMutability": "view",
      "type": "function"
    },
    {
      "inputs": [
        {
          "internalType": "uint256",
          "name": "",
          "type": "uint256"
        }
      ],
      "name": "tokenIdToTokenInfo",
      "outputs": [
        {
          "internalType": "address",
          "name": "issuer",
          "type": "address"
        },
        {
          "internalType": "string",
          "name": "product",
          "type": "string"
        },
        {
          "internalType": "string",
          "name": "lot",
          "type": "string"
        },
        {
          "internalType": "uint256",
          "name": "phase",
          "type": "uint256"
        },
        {
          "internalType": "string",
          "name": "date",
          "type": "string"
        }
      ],
      "stateMutability": "view",
      "type": "function"
    },
    {
      "inputs": [
        {
          "internalType": "uint256",
          "name": "tokenId",
          "type": "uint256"
        }
      ],
      "name": "tokenURI",
      "outputs": [
        {
          "internalType": "string",
          "name": "",
          "type": "string"
        }
      ],
      "stateMutability": "view",
      "type": "function"
    },
    {
      "inputs": [
        {
          "internalType": "address",
          "name": "_owner",
          "type": "address"
        }
      ],
      "name": "tokensOfOwner",
      "outputs": [
        {
          "components": [
            {
              "internalType": "address",
              "name": "issuer",
              "type": "address"
            },
            {
              "internalType": "string",
              "name": "product",
              "type": "string"
            },
            {
              "internalType": "string",
              "name": "lot",
              "type": "string"
            },
            {
              "internalType": "uint256",
              "name": "phase",
              "type": "uint256"
            },
            {
              "internalType": "string",
              "name": "date",
              "type": "string"
            }
          ],
          "internalType": "struct VaxNFT.TokenInfo[]",
          "name": "",
          "type": "tuple[]"
        }
      ],
      "stateMutability": "nonpayable",
      "type": "function"
    },
    {
      "inputs": [
        {
          "internalType": "address",
          "name": "from",
          "type": "address"
        },
        {
          "internalType": "address",
          "name": "to",
          "type": "address"
        },
        {
          "internalType": "uint256",
          "name": "tokenId",
          "type": "uint256"
        }
      ],
      "name": "transferFrom",
      "outputs": [],
      "stateMutability": "nonpayable",
      "type": "function"
    },
    {
      "inputs": [
        {
          "internalType": "address",
          "name": "newOwner",
          "type": "address"
        }
      ],
      "name": "transferOwnership",
      "outputs": [],
      "stateMutability": "nonpayable",
      "type": "function"
    },
    {
      "inputs": [
        {
          "internalType": "address",
          "name": "",
          "type": "address"
        }
      ],
      "name": "walletIdToClinic",
      "outputs": [
        {
          "internalType": "string",
          "name": "name",
          "type": "string"
        },
        {
          "internalType": "string",
          "name": "p_address",
          "type": "string"
        },
        {
          "internalType": "string",
          "name": "email",
          "type": "string"
        }
      ],
      "stateMutability": "view",
      "type": "function"
    },
    {
      "inputs": [
        {
          "internalType": "address",
          "name": "",
          "type": "address"
        }
      ],
      "name": "walletIdToPatientHash",
      "outputs": [
        {
          "internalType": "string",
          "name": "",
          "type": "string"
        }
      ],
      "stateMutability": "view",
      "type": "function"
    }
  ],
  "bytecode": "0x60806040523480156200001157600080fd5b506040518060400160405280600681526020017f5661784e465400000000000000000000000000000000000000000000000000008152506040518060400160405280600381526020017f4e46540000000000000000000000000000000000000000000000000000000000815250816000908051906020019062000096929190620001a6565b508060019080519060200190620000af929190620001a6565b505050620000d2620000c6620000d860201b60201c565b620000e060201b60201c565b620002bb565b600033905090565b6000600660009054906101000a900473ffffffffffffffffffffffffffffffffffffffff16905081600660006101000a81548173ffffffffffffffffffffffffffffffffffffffff021916908373ffffffffffffffffffffffffffffffffffffffff1602179055508173ffffffffffffffffffffffffffffffffffffffff168173ffffffffffffffffffffffffffffffffffffffff167f8be0079c531659141344cd1fd0a4f28419497f9722a3daafe3b4186f6b6457e060405160405180910390a35050565b828054620001b49062000256565b90600052602060002090601f016020900481019282620001d8576000855562000224565b82601f10620001f357805160ff191683800117855562000224565b8280016001018555821562000224579182015b828111156200022357825182559160200191906001019062000206565b5b50905062000233919062000237565b5090565b5b808211156200025257600081600090555060010162000238565b5090565b600060028204905060018216806200026f57607f821691505b602082108114156200028657620002856200028c565b5b50919050565b7f4e487b7100000000000000000000000000000000000000000000000000000000600052602260045260246000fd5b613f2680620002cb6000396000f3fe608060405234801561001057600080fd5b506004361061014d5760003560e01c8063715018a6116100c3578063a570c3aa1161007c578063a570c3aa146103dc578063b88d4fde1461040c578063c87b56dd14610428578063dcc992c614610458578063e985e9c514610488578063f2fde38b146104b85761014d565b8063715018a6146103185780638462151c146103225780638da5cb5b146103525780639347200c1461037057806395d89b41146103a2578063a22cb465146103c05761014d565b80632ffd0d82116101155780632ffd0d821461020857806330ea158e1461023857806342842e0e146102685780635fb8bcd5146102845780636352211e146102b857806370a08231146102e85761014d565b806301ffc9a71461015257806306fdde0314610182578063081812fc146101a0578063095ea7b3146101d057806323b872dd146101ec575b600080fd5b61016c60048036038101906101679190612c32565b6104d4565b60405161017991906137c6565b60405180910390f35b61018a6105b6565b60405161019791906137e1565b60405180910390f35b6101ba60048036038101906101b59190612e2e565b610648565b6040516101c791906136d5565b60405180910390f35b6101ea60048036038101906101e59190612bf6565b6106cd565b005b61020660048036038101906102019190612af0565b6107e5565b005b610222600480360381019061021d9190612a8b565b610845565b60405161022f91906137e1565b60405180910390f35b610252600480360381019061024d9190612cd8565b6108e5565b60405161025f9190613a4f565b60405180910390f35b610282600480360381019061027d9190612af0565b610bab565b005b61029e60048036038101906102999190612e2e565b610bcb565b6040516102af95949392919061373c565b60405180910390f35b6102d260048036038101906102cd9190612e2e565b610db9565b6040516102df91906136d5565b60405180910390f35b61030260048036038101906102fd9190612a8b565b610e6b565b60405161030f9190613a71565b60405180910390f35b610320610f23565b005b61033c60048036038101906103379190612a8b565b610fab565b60405161034991906137a4565b60405180910390f35b61035a6113c5565b60405161036791906136d5565b60405180910390f35b61038a60048036038101906103859190612a8b565b6113ef565b60405161039993929190613803565b60405180910390f35b6103aa6115b1565b6040516103b791906137e1565b60405180910390f35b6103da60048036038101906103d59190612bba565b611643565b005b6103f660048036038101906103f19190612d83565b611659565b6040516104039190613a71565b60405180910390f35b61042660048036038101906104219190612b3f565b6117c9565b005b610442600480360381019061043d9190612e2e565b61182b565b60405161044f91906137e1565b60405180910390f35b610472600480360381019061046d9190612c84565b6118d2565b60405161047f91906137e1565b60405180910390f35b6104a2600480360381019061049d9190612ab4565b6119f8565b6040516104af91906137c6565b60405180910390f35b6104d260048036038101906104cd9190612a8b565b611a8c565b005b60007f80ac58cd000000000000000000000000000000000000000000000000000000007bffffffffffffffffffffffffffffffffffffffffffffffffffffffff1916827bffffffffffffffffffffffffffffffffffffffffffffffffffffffff1916148061059f57507f5b5e139f000000000000000000000000000000000000000000000000000000007bffffffffffffffffffffffffffffffffffffffffffffffffffffffff1916827bffffffffffffffffffffffffffffffffffffffffffffffffffffffff1916145b806105af57506105ae82611b84565b5b9050919050565b6060600080546105c590613d1b565b80601f01602080910402602001604051908101604052809291908181526020018280546105f190613d1b565b801561063e5780601f106106135761010080835404028352916020019161063e565b820191906000526020600020905b81548152906001019060200180831161062157829003601f168201915b5050505050905090565b600061065382611bee565b610692576040517f08c379a00000000000000000000000000000000000000000000000000000000081526004016106899061398f565b60405180910390fd5b6004600083815260200190815260200160002060009054906101000a900473ffffffffffffffffffffffffffffffffffffffff169050919050565b60006106d882610db9565b90508073ffffffffffffffffffffffffffffffffffffffff168373ffffffffffffffffffffffffffffffffffffffff161415610749576040517f08c379a000000000000000000000000000000000000000000000000000000000815260040161074090613a0f565b60405180910390fd5b8073ffffffffffffffffffffffffffffffffffffffff16610768611c5a565b73ffffffffffffffffffffffffffffffffffffffff161480610797575061079681610791611c5a565b6119f8565b5b6107d6576040517f08c379a00000000000000000000000000000000000000000000000000000000081526004016107cd9061390f565b60405180910390fd5b6107e08383611c62565b505050565b6107f66107f0611c5a565b82611d1b565b610835576040517f08c379a000000000000000000000000000000000000000000000000000000000815260040161082c90613a2f565b60405180910390fd5b610840838383611df9565b505050565b6009602052806000526040600020600091509050805461086490613d1b565b80601f016020809104026020016040519081016040528092919081815260200182805461089090613d1b565b80156108dd5780601f106108b2576101008083540402835291602001916108dd565b820191906000526020600020905b8154815290600101906020018083116108c057829003601f168201915b505050505081565b6108ed612849565b604051806060016040528086815260200185815260200184815250600a60008473ffffffffffffffffffffffffffffffffffffffff1673ffffffffffffffffffffffffffffffffffffffff168152602001908152602001600020600082015181600001908051906020019061096392919061286a565b50602082015181600101908051906020019061098092919061286a565b50604082015181600201908051906020019061099d92919061286a565b50905050600a60008373ffffffffffffffffffffffffffffffffffffffff1673ffffffffffffffffffffffffffffffffffffffff1681526020019081526020016000206040518060600160405290816000820180546109fb90613d1b565b80601f0160208091040260200160405190810160405280929190818152602001828054610a2790613d1b565b8015610a745780601f10610a4957610100808354040283529160200191610a74565b820191906000526020600020905b815481529060010190602001808311610a5757829003601f168201915b50505050508152602001600182018054610a8d90613d1b565b80601f0160208091040260200160405190810160405280929190818152602001828054610ab990613d1b565b8015610b065780601f10610adb57610100808354040283529160200191610b06565b820191906000526020600020905b815481529060010190602001808311610ae957829003601f168201915b50505050508152602001600282018054610b1f90613d1b565b80601f0160208091040260200160405190810160405280929190818152602001828054610b4b90613d1b565b8015610b985780601f10610b6d57610100808354040283529160200191610b98565b820191906000526020600020905b815481529060010190602001808311610b7b57829003601f168201915b5050505050815250509050949350505050565b610bc6838383604051806020016040528060008152506117c9565b505050565b60086020528060005260406000206000915090508060000160009054906101000a900473ffffffffffffffffffffffffffffffffffffffff1690806001018054610c1490613d1b565b80601f0160208091040260200160405190810160405280929190818152602001828054610c4090613d1b565b8015610c8d5780601f10610c6257610100808354040283529160200191610c8d565b820191906000526020600020905b815481529060010190602001808311610c7057829003601f168201915b505050505090806002018054610ca290613d1b565b80601f0160208091040260200160405190810160405280929190818152602001828054610cce90613d1b565b8015610d1b5780601f10610cf057610100808354040283529160200191610d1b565b820191906000526020600020905b815481529060010190602001808311610cfe57829003601f168201915b505050505090806003015490806004018054610d3690613d1b565b80601f0160208091040260200160405190810160405280929190818152602001828054610d6290613d1b565b8015610daf5780601f10610d8457610100808354040283529160200191610daf565b820191906000526020600020905b815481529060010190602001808311610d9257829003601f168201915b5050505050905085565b6000806002600084815260200190815260200160002060009054906101000a900473ffffffffffffffffffffffffffffffffffffffff169050600073ffffffffffffffffffffffffffffffffffffffff168173ffffffffffffffffffffffffffffffffffffffff161415610e62576040517f08c379a0000000000000000000000000000000000000000000000000000000008152600401610e599061394f565b60405180910390fd5b80915050919050565b60008073ffffffffffffffffffffffffffffffffffffffff168273ffffffffffffffffffffffffffffffffffffffff161415610edc576040517f08c379a0000000000000000000000000000000000000000000000000000000008152600401610ed39061392f565b60405180910390fd5b600360008373ffffffffffffffffffffffffffffffffffffffff1673ffffffffffffffffffffffffffffffffffffffff168152602001908152602001600020549050919050565b610f2b611c5a565b73ffffffffffffffffffffffffffffffffffffffff16610f496113c5565b73ffffffffffffffffffffffffffffffffffffffff1614610f9f576040517f08c379a0000000000000000000000000000000000000000000000000000000008152600401610f96906139af565b60405180910390fd5b610fa96000612055565b565b60606000610fb883610e6b565b9050600081141561104657600067ffffffffffffffff811115611004577f4e487b7100000000000000000000000000000000000000000000000000000000600052604160045260246000fd5b60405190808252806020026020018201604052801561103d57816020015b61102a6128f0565b8152602001906001900390816110225790505b509150506113c0565b60008167ffffffffffffffff811115611088577f4e487b7100000000000000000000000000000000000000000000000000000000600052604160045260246000fd5b6040519080825280602002602001820160405280156110c157816020015b6110ae6128f0565b8152602001906001900390816110a65790505b50905060006110d0600761211b565b9050600080600190505b8281116113b7578673ffffffffffffffffffffffffffffffffffffffff1661110182610db9565b73ffffffffffffffffffffffffffffffffffffffff1614156113a457600860008281526020019081526020016000206040518060a00160405290816000820160009054906101000a900473ffffffffffffffffffffffffffffffffffffffff1673ffffffffffffffffffffffffffffffffffffffff1673ffffffffffffffffffffffffffffffffffffffff1681526020016001820180546111a190613d1b565b80601f01602080910402602001604051908101604052809291908181526020018280546111cd90613d1b565b801561121a5780601f106111ef5761010080835404028352916020019161121a565b820191906000526020600020905b8154815290600101906020018083116111fd57829003601f168201915b5050505050815260200160028201805461123390613d1b565b80601f016020809104026020016040519081016040528092919081815260200182805461125f90613d1b565b80156112ac5780601f10611281576101008083540402835291602001916112ac565b820191906000526020600020905b81548152906001019060200180831161128f57829003601f168201915b50505050508152602001600382015481526020016004820180546112cf90613d1b565b80601f01602080910402602001604051908101604052809291908181526020018280546112fb90613d1b565b80156113485780601f1061131d57610100808354040283529160200191611348565b820191906000526020600020905b81548152906001019060200180831161132b57829003601f168201915b50505050508152505084838151811061138a577f4e487b7100000000000000000000000000000000000000000000000000000000600052603260045260246000fd5b602002602001018190525081806113a090613d4d565b9250505b80806113af90613d4d565b9150506110da565b83955050505050505b919050565b6000600660009054906101000a900473ffffffffffffffffffffffffffffffffffffffff16905090565b600a60205280600052604060002060009150905080600001805461141290613d1b565b80601f016020809104026020016040519081016040528092919081815260200182805461143e90613d1b565b801561148b5780601f106114605761010080835404028352916020019161148b565b820191906000526020600020905b81548152906001019060200180831161146e57829003601f168201915b5050505050908060010180546114a090613d1b565b80601f01602080910402602001604051908101604052809291908181526020018280546114cc90613d1b565b80156115195780601f106114ee57610100808354040283529160200191611519565b820191906000526020600020905b8154815290600101906020018083116114fc57829003601f168201915b50505050509080600201805461152e90613d1b565b80601f016020809104026020016040519081016040528092919081815260200182805461155a90613d1b565b80156115a75780601f1061157c576101008083540402835291602001916115a7565b820191906000526020600020905b81548152906001019060200180831161158a57829003601f168201915b5050505050905083565b6060600180546115c090613d1b565b80601f01602080910402602001604051908101604052809291908181526020018280546115ec90613d1b565b80156116395780601f1061160e57610100808354040283529160200191611639565b820191906000526020600020905b81548152906001019060200180831161161c57829003601f168201915b5050505050905090565b61165561164e611c5a565b8383612129565b5050565b60006116656007612296565b6000611671600761211b565b905061168461167e611c5a565b826122ac565b6040518060a00160405280611697611c5a565b73ffffffffffffffffffffffffffffffffffffffff168152602001878152602001868152602001858152602001848152506008600083815260200190815260200160002060008201518160000160006101000a81548173ffffffffffffffffffffffffffffffffffffffff021916908373ffffffffffffffffffffffffffffffffffffffff160217905550602082015181600101908051906020019061173e92919061286a565b50604082015181600201908051906020019061175b92919061286a565b5060608201518160030155608082015181600401908051906020019061178292919061286a565b509050507f65f4dc08c4c2661a2ccb6e433da77c60168189d45e70829ac6cac16dc09e4984816040516117b59190613a71565b60405180910390a180915050949350505050565b6117da6117d4611c5a565b83611d1b565b611819576040517f08c379a000000000000000000000000000000000000000000000000000000000815260040161181090613a2f565b60405180910390fd5b6118258484848461247a565b50505050565b606061183682611bee565b611875576040517f08c379a000000000000000000000000000000000000000000000000000000000815260040161186c906139ef565b60405180910390fd5b600061187f6124d6565b9050600081511161189f57604051806020016040528060008152506118ca565b806118a9846124ed565b6040516020016118ba9291906136b1565b6040516020818303038152906040525b915050919050565b606082600960008473ffffffffffffffffffffffffffffffffffffffff1673ffffffffffffffffffffffffffffffffffffffff168152602001908152602001600020908051906020019061192792919061286a565b50600960008373ffffffffffffffffffffffffffffffffffffffff1673ffffffffffffffffffffffffffffffffffffffff168152602001908152602001600020805461197290613d1b565b80601f016020809104026020016040519081016040528092919081815260200182805461199e90613d1b565b80156119eb5780601f106119c0576101008083540402835291602001916119eb565b820191906000526020600020905b8154815290600101906020018083116119ce57829003601f168201915b5050505050905092915050565b6000600560008473ffffffffffffffffffffffffffffffffffffffff1673ffffffffffffffffffffffffffffffffffffffff16815260200190815260200160002060008373ffffffffffffffffffffffffffffffffffffffff1673ffffffffffffffffffffffffffffffffffffffff16815260200190815260200160002060009054906101000a900460ff16905092915050565b611a94611c5a565b73ffffffffffffffffffffffffffffffffffffffff16611ab26113c5565b73ffffffffffffffffffffffffffffffffffffffff1614611b08576040517f08c379a0000000000000000000000000000000000000000000000000000000008152600401611aff906139af565b60405180910390fd5b600073ffffffffffffffffffffffffffffffffffffffff168173ffffffffffffffffffffffffffffffffffffffff161415611b78576040517f08c379a0000000000000000000000000000000000000000000000000000000008152600401611b6f9061386f565b60405180910390fd5b611b8181612055565b50565b60007f01ffc9a7000000000000000000000000000000000000000000000000000000007bffffffffffffffffffffffffffffffffffffffffffffffffffffffff1916827bffffffffffffffffffffffffffffffffffffffffffffffffffffffff1916149050919050565b60008073ffffffffffffffffffffffffffffffffffffffff166002600084815260200190815260200160002060009054906101000a900473ffffffffffffffffffffffffffffffffffffffff1673ffffffffffffffffffffffffffffffffffffffff1614159050919050565b600033905090565b816004600083815260200190815260200160002060006101000a81548173ffffffffffffffffffffffffffffffffffffffff021916908373ffffffffffffffffffffffffffffffffffffffff160217905550808273ffffffffffffffffffffffffffffffffffffffff16611cd583610db9565b73ffffffffffffffffffffffffffffffffffffffff167f8c5be1e5ebec7d5bd14f71427d1e84f3dd0314c0f7b2291e5b200ac8c7c3b92560405160405180910390a45050565b6000611d2682611bee565b611d65576040517f08c379a0000000000000000000000000000000000000000000000000000000008152600401611d5c906138ef565b60405180910390fd5b6000611d7083610db9565b90508073ffffffffffffffffffffffffffffffffffffffff168473ffffffffffffffffffffffffffffffffffffffff161480611ddf57508373ffffffffffffffffffffffffffffffffffffffff16611dc784610648565b73ffffffffffffffffffffffffffffffffffffffff16145b80611df05750611def81856119f8565b5b91505092915050565b8273ffffffffffffffffffffffffffffffffffffffff16611e1982610db9565b73ffffffffffffffffffffffffffffffffffffffff1614611e6f576040517f08c379a0000000000000000000000000000000000000000000000000000000008152600401611e66906139cf565b60405180910390fd5b600073ffffffffffffffffffffffffffffffffffffffff168273ffffffffffffffffffffffffffffffffffffffff161415611edf576040517f08c379a0000000000000000000000000000000000000000000000000000000008152600401611ed6906138af565b60405180910390fd5b611eea83838361269a565b611ef5600082611c62565b6001600360008573ffffffffffffffffffffffffffffffffffffffff1673ffffffffffffffffffffffffffffffffffffffff1681526020019081526020016000206000828254611f459190613c31565b925050819055506001600360008473ffffffffffffffffffffffffffffffffffffffff1673ffffffffffffffffffffffffffffffffffffffff1681526020019081526020016000206000828254611f9c9190613baa565b92505081905550816002600083815260200190815260200160002060006101000a81548173ffffffffffffffffffffffffffffffffffffffff021916908373ffffffffffffffffffffffffffffffffffffffff160217905550808273ffffffffffffffffffffffffffffffffffffffff168473ffffffffffffffffffffffffffffffffffffffff167fddf252ad1be2c89b69c2b068fc378daa952ba7f163c4a11628f55a4df523b3ef60405160405180910390a4505050565b6000600660009054906101000a900473ffffffffffffffffffffffffffffffffffffffff16905081600660006101000a81548173ffffffffffffffffffffffffffffffffffffffff021916908373ffffffffffffffffffffffffffffffffffffffff1602179055508173ffffffffffffffffffffffffffffffffffffffff168173ffffffffffffffffffffffffffffffffffffffff167f8be0079c531659141344cd1fd0a4f28419497f9722a3daafe3b4186f6b6457e060405160405180910390a35050565b600081600001549050919050565b8173ffffffffffffffffffffffffffffffffffffffff168373ffffffffffffffffffffffffffffffffffffffff161415612198576040517f08c379a000000000000000000000000000000000000000000000000000000000815260040161218f906138cf565b60405180910390fd5b80600560008573ffffffffffffffffffffffffffffffffffffffff1673ffffffffffffffffffffffffffffffffffffffff16815260200190815260200160002060008473ffffffffffffffffffffffffffffffffffffffff1673ffffffffffffffffffffffffffffffffffffffff16815260200190815260200160002060006101000a81548160ff0219169083151502179055508173ffffffffffffffffffffffffffffffffffffffff168373ffffffffffffffffffffffffffffffffffffffff167f17307eab39ab6107e8899845ad3d59bd9653f200f220920489ca2b5937696c318360405161228991906137c6565b60405180910390a3505050565b6001816000016000828254019250508190555050565b600073ffffffffffffffffffffffffffffffffffffffff168273ffffffffffffffffffffffffffffffffffffffff16141561231c576040517f08c379a00000000000000000000000000000000000000000000000000000000081526004016123139061396f565b60405180910390fd5b61232581611bee565b15612365576040517f08c379a000000000000000000000000000000000000000000000000000000000815260040161235c9061388f565b60405180910390fd5b6123716000838361269a565b6001600360008473ffffffffffffffffffffffffffffffffffffffff1673ffffffffffffffffffffffffffffffffffffffff16815260200190815260200160002060008282546123c19190613baa565b92505081905550816002600083815260200190815260200160002060006101000a81548173ffffffffffffffffffffffffffffffffffffffff021916908373ffffffffffffffffffffffffffffffffffffffff160217905550808273ffffffffffffffffffffffffffffffffffffffff16600073ffffffffffffffffffffffffffffffffffffffff167fddf252ad1be2c89b69c2b068fc378daa952ba7f163c4a11628f55a4df523b3ef60405160405180910390a45050565b612485848484611df9565b6124918484848461269f565b6124d0576040517f08c379a00000000000000000000000000000000000000000000000000000000081526004016124c79061384f565b60405180910390fd5b50505050565b606060405180602001604052806000815250905090565b60606000821415612535576040518060400160405280600181526020017f30000000000000000000000000000000000000000000000000000000000000008152509050612695565b600082905060005b6000821461256757808061255090613d4d565b915050600a826125609190613c00565b915061253d565b60008167ffffffffffffffff8111156125a9577f4e487b7100000000000000000000000000000000000000000000000000000000600052604160045260246000fd5b6040519080825280601f01601f1916602001820160405280156125db5781602001600182028036833780820191505090505b5090505b6000851461268e576001826125f49190613c31565b9150600a856126039190613d96565b603061260f9190613baa565b60f81b81838151811061264b577f4e487b7100000000000000000000000000000000000000000000000000000000600052603260045260246000fd5b60200101907effffffffffffffffffffffffffffffffffffffffffffffffffffffffffffff1916908160001a905350600a856126879190613c00565b94506125df565b8093505050505b919050565b505050565b60006126c08473ffffffffffffffffffffffffffffffffffffffff16612836565b15612829578373ffffffffffffffffffffffffffffffffffffffff1663150b7a026126e9611c5a565b8786866040518563ffffffff1660e01b815260040161270b94939291906136f0565b602060405180830381600087803b15801561272557600080fd5b505af192505050801561275657506040513d601f19601f820116820180604052508101906127539190612c5b565b60015b6127d9573d8060008114612786576040519150601f19603f3d011682016040523d82523d6000602084013e61278b565b606091505b506000815114156127d1576040517f08c379a00000000000000000000000000000000000000000000000000000000081526004016127c89061384f565b60405180910390fd5b805181602001fd5b63150b7a0260e01b7bffffffffffffffffffffffffffffffffffffffffffffffffffffffff1916817bffffffffffffffffffffffffffffffffffffffffffffffffffffffff19161491505061282e565b600190505b949350505050565b600080823b905060008111915050919050565b60405180606001604052806060815260200160608152602001606081525090565b82805461287690613d1b565b90600052602060002090601f01602090048101928261289857600085556128df565b82601f106128b157805160ff19168380011785556128df565b828001600101855582156128df579182015b828111156128de5782518255916020019190600101906128c3565b5b5090506128ec9190612935565b5090565b6040518060a00160405280600073ffffffffffffffffffffffffffffffffffffffff168152602001606081526020016060815260200160008152602001606081525090565b5b8082111561294e576000816000905550600101612936565b5090565b600061296561296084613abd565b613a8c565b90508281526020810184848401111561297d57600080fd5b612988848285613cd9565b509392505050565b60006129a361299e84613aed565b613a8c565b9050828152602081018484840111156129bb57600080fd5b6129c6848285613cd9565b509392505050565b6000813590506129dd81613e94565b92915050565b6000813590506129f281613eab565b92915050565b600081359050612a0781613ec2565b92915050565b600081519050612a1c81613ec2565b92915050565b600082601f830112612a3357600080fd5b8135612a43848260208601612952565b91505092915050565b600082601f830112612a5d57600080fd5b8135612a6d848260208601612990565b91505092915050565b600081359050612a8581613ed9565b92915050565b600060208284031215612a9d57600080fd5b6000612aab848285016129ce565b91505092915050565b60008060408385031215612ac757600080fd5b6000612ad5858286016129ce565b9250506020612ae6858286016129ce565b9150509250929050565b600080600060608486031215612b0557600080fd5b6000612b13868287016129ce565b9350506020612b24868287016129ce565b9250506040612b3586828701612a76565b9150509250925092565b60008060008060808587031215612b5557600080fd5b6000612b63878288016129ce565b9450506020612b74878288016129ce565b9350506040612b8587828801612a76565b925050606085013567ffffffffffffffff811115612ba257600080fd5b612bae87828801612a22565b91505092959194509250565b60008060408385031215612bcd57600080fd5b6000612bdb858286016129ce565b9250506020612bec858286016129e3565b9150509250929050565b60008060408385031215612c0957600080fd5b6000612c17858286016129ce565b9250506020612c2885828601612a76565b9150509250929050565b600060208284031215612c4457600080fd5b6000612c52848285016129f8565b91505092915050565b600060208284031215612c6d57600080fd5b6000612c7b84828501612a0d565b91505092915050565b60008060408385031215612c9757600080fd5b600083013567ffffffffffffffff811115612cb157600080fd5b612cbd85828601612a4c565b9250506020612cce858286016129ce565b9150509250929050565b60008060008060808587031215612cee57600080fd5b600085013567ffffffffffffffff811115612d0857600080fd5b612d1487828801612a4c565b945050602085013567ffffffffffffffff811115612d3157600080fd5b612d3d87828801612a4c565b935050604085013567ffffffffffffffff811115612d5a57600080fd5b612d6687828801612a4c565b9250506060612d77878288016129ce565b91505092959194509250565b60008060008060808587031215612d9957600080fd5b600085013567ffffffffffffffff811115612db357600080fd5b612dbf87828801612a4c565b945050602085013567ffffffffffffffff811115612ddc57600080fd5b612de887828801612a4c565b9350506040612df987828801612a76565b925050606085013567ffffffffffffffff811115612e1657600080fd5b612e2287828801612a4c565b91505092959194509250565b600060208284031215612e4057600080fd5b6000612e4e84828501612a76565b91505092915050565b6000612e63838361360f565b905092915050565b612e7481613c65565b82525050565b612e8381613c65565b82525050565b6000612e9482613b2d565b612e9e8185613b5b565b935083602082028501612eb085613b1d565b8060005b85811015612eec5784840389528151612ecd8582612e57565b9450612ed883613b4e565b925060208a01995050600181019050612eb4565b50829750879550505050505092915050565b612f0781613c77565b82525050565b6000612f1882613b38565b612f228185613b6c565b9350612f32818560208601613ce8565b612f3b81613e83565b840191505092915050565b6000612f5182613b43565b612f5b8185613b7d565b9350612f6b818560208601613ce8565b612f7481613e83565b840191505092915050565b6000612f8a82613b43565b612f948185613b8e565b9350612fa4818560208601613ce8565b612fad81613e83565b840191505092915050565b6000612fc382613b43565b612fcd8185613b9f565b9350612fdd818560208601613ce8565b80840191505092915050565b6000612ff6603283613b8e565b91507f4552433732313a207472616e7366657220746f206e6f6e20455243373231526560008301527f63656976657220696d706c656d656e74657200000000000000000000000000006020830152604082019050919050565b600061305c602683613b8e565b91507f4f776e61626c653a206e6577206f776e657220697320746865207a65726f206160008301527f64647265737300000000000000000000000000000000000000000000000000006020830152604082019050919050565b60006130c2601c83613b8e565b91507f4552433732313a20746f6b656e20616c7265616479206d696e746564000000006000830152602082019050919050565b6000613102602483613b8e565b91507f4552433732313a207472616e7366657220746f20746865207a65726f2061646460008301527f72657373000000000000000000000000000000000000000000000000000000006020830152604082019050919050565b6000613168601983613b8e565b91507f4552433732313a20617070726f766520746f2063616c6c6572000000000000006000830152602082019050919050565b60006131a8602c83613b8e565b91507f4552433732313a206f70657261746f7220717565727920666f72206e6f6e657860008301527f697374656e7420746f6b656e00000000000000000000000000000000000000006020830152604082019050919050565b600061320e603883613b8e565b91507f4552433732313a20617070726f76652063616c6c6572206973206e6f74206f7760008301527f6e6572206e6f7220617070726f76656420666f7220616c6c00000000000000006020830152604082019050919050565b6000613274602a83613b8e565b91507f4552433732313a2062616c616e636520717565727920666f7220746865207a6560008301527f726f2061646472657373000000000000000000000000000000000000000000006020830152604082019050919050565b60006132da602983613b8e565b91507f4552433732313a206f776e657220717565727920666f72206e6f6e657869737460008301527f656e7420746f6b656e00000000000000000000000000000000000000000000006020830152604082019050919050565b6000613340602083613b8e565b91507f4552433732313a206d696e7420746f20746865207a65726f20616464726573736000830152602082019050919050565b6000613380602c83613b8e565b91507f4552433732313a20617070726f76656420717565727920666f72206e6f6e657860008301527f697374656e7420746f6b656e00000000000000000000000000000000000000006020830152604082019050919050565b60006133e6602083613b8e565b91507f4f776e61626c653a2063616c6c6572206973206e6f7420746865206f776e65726000830152602082019050919050565b6000613426602983613b8e565b91507f4552433732313a207472616e73666572206f6620746f6b656e2074686174206960008301527f73206e6f74206f776e00000000000000000000000000000000000000000000006020830152604082019050919050565b600061348c602f83613b8e565b91507f4552433732314d657461646174613a2055524920717565727920666f72206e6f60008301527f6e6578697374656e7420746f6b656e00000000000000000000000000000000006020830152604082019050919050565b60006134f2602183613b8e565b91507f4552433732313a20617070726f76616c20746f2063757272656e74206f776e6560008301527f72000000000000000000000000000000000000000000000000000000000000006020830152604082019050919050565b6000613558603183613b8e565b91507f4552433732313a207472616e736665722063616c6c6572206973206e6f74206f60008301527f776e6572206e6f7220617070726f7665640000000000000000000000000000006020830152604082019050919050565b600060608301600083015184820360008601526135ce8282612f46565b915050602083015184820360208601526135e88282612f46565b915050604083015184820360408601526136028282612f46565b9150508091505092915050565b600060a0830160008301516136276000860182612e6b565b506020830151848203602086015261363f8282612f46565b915050604083015184820360408601526136598282612f46565b915050606083015161366e6060860182613693565b50608083015184820360808601526136868282612f46565b9150508091505092915050565b61369c81613ccf565b82525050565b6136ab81613ccf565b82525050565b60006136bd8285612fb8565b91506136c98284612fb8565b91508190509392505050565b60006020820190506136ea6000830184612e7a565b92915050565b60006080820190506137056000830187612e7a565b6137126020830186612e7a565b61371f60408301856136a2565b81810360608301526137318184612f0d565b905095945050505050565b600060a0820190506137516000830188612e7a565b81810360208301526137638187612f7f565b905081810360408301526137778186612f7f565b905061378660608301856136a2565b81810360808301526137988184612f7f565b90509695505050505050565b600060208201905081810360008301526137be8184612e89565b905092915050565b60006020820190506137db6000830184612efe565b92915050565b600060208201905081810360008301526137fb8184612f7f565b905092915050565b6000606082019050818103600083015261381d8186612f7f565b905081810360208301526138318185612f7f565b905081810360408301526138458184612f7f565b9050949350505050565b6000602082019050818103600083015261386881612fe9565b9050919050565b600060208201905081810360008301526138888161304f565b9050919050565b600060208201905081810360008301526138a8816130b5565b9050919050565b600060208201905081810360008301526138c8816130f5565b9050919050565b600060208201905081810360008301526138e88161315b565b9050919050565b600060208201905081810360008301526139088161319b565b9050919050565b6000602082019050818103600083015261392881613201565b9050919050565b6000602082019050818103600083015261394881613267565b9050919050565b60006020820190508181036000830152613968816132cd565b9050919050565b6000602082019050818103600083015261398881613333565b9050919050565b600060208201905081810360008301526139a881613373565b9050919050565b600060208201905081810360008301526139c8816133d9565b9050919050565b600060208201905081810360008301526139e881613419565b9050919050565b60006020820190508181036000830152613a088161347f565b9050919050565b60006020820190508181036000830152613a28816134e5565b9050919050565b60006020820190508181036000830152613a488161354b565b9050919050565b60006020820190508181036000830152613a6981846135b1565b905092915050565b6000602082019050613a8660008301846136a2565b92915050565b6000604051905081810181811067ffffffffffffffff82111715613ab357613ab2613e54565b5b8060405250919050565b600067ffffffffffffffff821115613ad857613ad7613e54565b5b601f19601f8301169050602081019050919050565b600067ffffffffffffffff821115613b0857613b07613e54565b5b601f19601f8301169050602081019050919050565b6000819050602082019050919050565b600081519050919050565b600081519050919050565b600081519050919050565b6000602082019050919050565b600082825260208201905092915050565b600082825260208201905092915050565b600082825260208201905092915050565b600082825260208201905092915050565b600081905092915050565b6000613bb582613ccf565b9150613bc083613ccf565b9250827fffffffffffffffffffffffffffffffffffffffffffffffffffffffffffffffff03821115613bf557613bf4613dc7565b5b828201905092915050565b6000613c0b82613ccf565b9150613c1683613ccf565b925082613c2657613c25613df6565b5b828204905092915050565b6000613c3c82613ccf565b9150613c4783613ccf565b925082821015613c5a57613c59613dc7565b5b828203905092915050565b6000613c7082613caf565b9050919050565b60008115159050919050565b60007fffffffff0000000000000000000000000000000000000000000000000000000082169050919050565b600073ffffffffffffffffffffffffffffffffffffffff82169050919050565b6000819050919050565b82818337600083830152505050565b60005b83811015613d06578082015181840152602081019050613ceb565b83811115613d15576000848401525b50505050565b60006002820490506001821680613d3357607f821691505b60208210811415613d4757613d46613e25565b5b50919050565b6000613d5882613ccf565b91507fffffffffffffffffffffffffffffffffffffffffffffffffffffffffffffffff821415613d8b57613d8a613dc7565b5b600182019050919050565b6000613da182613ccf565b9150613dac83613ccf565b925082613dbc57613dbb613df6565b5b828206905092915050565b7f4e487b7100000000000000000000000000000000000000000000000000000000600052601160045260246000fd5b7f4e487b7100000000000000000000000000000000000000000000000000000000600052601260045260246000fd5b7f4e487b7100000000000000000000000000000000000000000000000000000000600052602260045260246000fd5b7f4e487b7100000000000000000000000000000000000000000000000000000000600052604160045260246000fd5b6000601f19601f8301169050919050565b613e9d81613c65565b8114613ea857600080fd5b50565b613eb481613c77565b8114613ebf57600080fd5b50565b613ecb81613c83565b8114613ed657600080fd5b50565b613ee281613ccf565b8114613eed57600080fd5b5056fea2646970667358221220068409e4090bb765c1b807d291d852ca36bd6f25997bc8bd1786e31309b04f1d64736f6c63430008000033",
  "linkReferences": {},
  "deployedLinkReferences": {}
}