{
  "_format": "hh-sol-artifact-1",
  "contractName": "VaxNFT",
  "sourceName": "contracts/vaxNFT.sol",
  "abi": [
    {
      "inputs": [],
      "stateMutability": "nonpayable",
      "type": "constructor"
    },
    {
      "anonymous": false,
      "inputs": [
        {
          "indexed": true,
          "internalType": "address",
          "name": "owner",
          "type": "address"
        },
        {
          "indexed": true,
          "internalType": "address",
          "name": "approved",
          "type": "address"
        },
        {
          "indexed": true,
          "internalType": "uint256",
          "name": "tokenId",
          "type": "uint256"
        }
      ],
      "name": "Approval",
      "type": "event"
    },
    {
      "anonymous": false,
      "inputs": [
        {
          "indexed": true,
          "internalType": "address",
          "name": "owner",
          "type": "address"
        },
        {
          "indexed": true,
          "internalType": "address",
          "name": "operator",
          "type": "address"
        },
        {
          "indexed": false,
          "internalType": "bool",
          "name": "approved",
          "type": "bool"
        }
      ],
      "name": "ApprovalForAll",
      "type": "event"
    },
    {
      "anonymous": false,
      "inputs": [
        {
          "indexed": true,
          "internalType": "address",
          "name": "previousOwner",
          "type": "address"
        },
        {
          "indexed": true,
          "internalType": "address",
          "name": "newOwner",
          "type": "address"
        }
      ],
      "name": "OwnershipTransferred",
      "type": "event"
    },
    {
      "anonymous": false,
      "inputs": [
        {
          "indexed": true,
          "internalType": "address",
          "name": "from",
          "type": "address"
        },
        {
          "indexed": true,
          "internalType": "address",
          "name": "to",
          "type": "address"
        },
        {
          "indexed": true,
          "internalType": "uint256",
          "name": "tokenId",
          "type": "uint256"
        }
      ],
      "name": "Transfer",
      "type": "event"
    },
    {
      "anonymous": false,
      "inputs": [
        {
          "indexed": false,
          "internalType": "uint256",
          "name": "tokenId",
          "type": "uint256"
        }
      ],
      "name": "Vaccine",
      "type": "event"
    },
    {
      "inputs": [
        {
          "internalType": "address",
          "name": "to",
          "type": "address"
        },
        {
          "internalType": "uint256",
          "name": "tokenId",
          "type": "uint256"
        }
      ],
      "name": "approve",
      "outputs": [],
      "stateMutability": "nonpayable",
      "type": "function"
    },
    {
      "inputs": [
        {
          "internalType": "address",
          "name": "owner",
          "type": "address"
        }
      ],
      "name": "balanceOf",
      "outputs": [
        {
          "internalType": "uint256",
          "name": "",
          "type": "uint256"
        }
      ],
      "stateMutability": "view",
      "type": "function"
    },
    {
      "inputs": [
        {
          "internalType": "string",
          "name": "_name",
          "type": "string"
        },
        {
          "internalType": "string",
          "name": "_p_address",
          "type": "string"
        },
        {
          "internalType": "string",
          "name": "_email",
          "type": "string"
        }
      ],
      "name": "clinicSignup",
      "outputs": [
        {
          "components": [
            {
              "internalType": "string",
              "name": "name",
              "type": "string"
            },
            {
              "internalType": "string",
              "name": "p_address",
              "type": "string"
            },
            {
              "internalType": "string",
              "name": "email",
              "type": "string"
            }
          ],
          "internalType": "struct VaxNFT.Clinic",
          "name": "",
          "type": "tuple"
        }
      ],
      "stateMutability": "nonpayable",
      "type": "function"
    },
    {
      "inputs": [
        {
          "internalType": "uint256",
          "name": "tokenId",
          "type": "uint256"
        }
      ],
      "name": "getApproved",
      "outputs": [
        {
          "internalType": "address",
          "name": "",
          "type": "address"
        }
      ],
      "stateMutability": "view",
      "type": "function"
    },
    {
      "inputs": [
        {
          "internalType": "address",
          "name": "owner",
          "type": "address"
        },
        {
          "internalType": "address",
          "name": "operator",
          "type": "address"
        }
      ],
      "name": "isApprovedForAll",
      "outputs": [
        {
          "internalType": "bool",
          "name": "",
          "type": "bool"
        }
      ],
      "stateMutability": "view",
      "type": "function"
    },
    {
      "inputs": [
        {
          "internalType": "string",
          "name": "_product",
          "type": "string"
        },
        {
          "internalType": "string",
          "name": "_lot",
          "type": "string"
        },
        {
          "internalType": "uint256",
          "name": "_phase",
          "type": "uint256"
        },
        {
          "internalType": "string",
          "name": "_date",
          "type": "string"
        }
      ],
      "name": "mintNFT",
      "outputs": [
        {
          "internalType": "uint256",
          "name": "",
          "type": "uint256"
        }
      ],
      "stateMutability": "nonpayable",
      "type": "function"
    },
    {
      "inputs": [],
      "name": "name",
      "outputs": [
        {
          "internalType": "string",
          "name": "",
          "type": "string"
        }
      ],
      "stateMutability": "view",
      "type": "function"
    },
    {
      "inputs": [],
      "name": "owner",
      "outputs": [
        {
          "internalType": "address",
          "name": "",
          "type": "address"
        }
      ],
      "stateMutability": "view",
      "type": "function"
    },
    {
      "inputs": [
        {
          "internalType": "uint256",
          "name": "tokenId",
          "type": "uint256"
        }
      ],
      "name": "ownerOf",
      "outputs": [
        {
          "internalType": "address",
          "name": "",
          "type": "address"
        }
      ],
      "stateMutability": "view",
      "type": "function"
    },
    {
      "inputs": [
        {
          "internalType": "string",
          "name": "_hash",
          "type": "string"
        }
      ],
      "name": "patientSignup",
      "outputs": [
        {
          "internalType": "string",
          "name": "",
          "type": "string"
        }
      ],
      "stateMutability": "nonpayable",
      "type": "function"
    },
    {
      "inputs": [],
      "name": "renounceOwnership",
      "outputs": [],
      "stateMutability": "nonpayable",
      "type": "function"
    },
    {
      "inputs": [
        {
          "internalType": "address",
          "name": "from",
          "type": "address"
        },
        {
          "internalType": "address",
          "name": "to",
          "type": "address"
        },
        {
          "internalType": "uint256",
          "name": "tokenId",
          "type": "uint256"
        }
      ],
      "name": "safeTransferFrom",
      "outputs": [],
      "stateMutability": "nonpayable",
      "type": "function"
    },
    {
      "inputs": [
        {
          "internalType": "address",
          "name": "from",
          "type": "address"
        },
        {
          "internalType": "address",
          "name": "to",
          "type": "address"
        },
        {
          "internalType": "uint256",
          "name": "tokenId",
          "type": "uint256"
        },
        {
          "internalType": "bytes",
          "name": "_data",
          "type": "bytes"
        }
      ],
      "name": "safeTransferFrom",
      "outputs": [],
      "stateMutability": "nonpayable",
      "type": "function"
    },
    {
      "inputs": [
        {
          "internalType": "address",
          "name": "operator",
          "type": "address"
        },
        {
          "internalType": "bool",
          "name": "approved",
          "type": "bool"
        }
      ],
      "name": "setApprovalForAll",
      "outputs": [],
      "stateMutability": "nonpayable",
      "type": "function"
    },
    {
      "inputs": [
        {
          "internalType": "bytes4",
          "name": "interfaceId",
          "type": "bytes4"
        }
      ],
      "name": "supportsInterface",
      "outputs": [
        {
          "internalType": "bool",
          "name": "",
          "type": "bool"
        }
      ],
      "stateMutability": "view",
      "type": "function"
    },
    {
      "inputs": [],
      "name": "symbol",
      "outputs": [
        {
          "internalType": "string",
          "name": "",
          "type": "string"
        }
      ],
      "stateMutability": "view",
      "type": "function"
    },
    {
      "inputs": [
        {
          "internalType": "uint256",
          "name": "",
          "type": "uint256"
        }
      ],
      "name": "tokenIdToTokenInfo",
      "outputs": [
        {
          "internalType": "address",
          "name": "issuer",
          "type": "address"
        },
        {
          "internalType": "string",
          "name": "product",
          "type": "string"
        },
        {
          "internalType": "string",
          "name": "lot",
          "type": "string"
        },
        {
          "internalType": "uint256",
          "name": "phase",
          "type": "uint256"
        },
        {
          "internalType": "string",
          "name": "date",
          "type": "string"
        }
      ],
      "stateMutability": "view",
      "type": "function"
    },
    {
      "inputs": [
        {
          "internalType": "uint256",
          "name": "tokenId",
          "type": "uint256"
        }
      ],
      "name": "tokenURI",
      "outputs": [
        {
          "internalType": "string",
          "name": "",
          "type": "string"
        }
      ],
      "stateMutability": "view",
      "type": "function"
    },
    {
      "inputs": [
        {
          "internalType": "address",
          "name": "_owner",
          "type": "address"
        }
      ],
      "name": "tokensOfOwner",
      "outputs": [
        {
          "components": [
            {
              "internalType": "address",
              "name": "issuer",
              "type": "address"
            },
            {
              "internalType": "string",
              "name": "product",
              "type": "string"
            },
            {
              "internalType": "string",
              "name": "lot",
              "type": "string"
            },
            {
              "internalType": "uint256",
              "name": "phase",
              "type": "uint256"
            },
            {
              "internalType": "string",
              "name": "date",
              "type": "string"
            }
          ],
          "internalType": "struct VaxNFT.TokenInfo[]",
          "name": "",
          "type": "tuple[]"
        }
      ],
      "stateMutability": "nonpayable",
      "type": "function"
    },
    {
      "inputs": [
        {
          "internalType": "address",
          "name": "from",
          "type": "address"
        },
        {
          "internalType": "address",
          "name": "to",
          "type": "address"
        },
        {
          "internalType": "uint256",
          "name": "tokenId",
          "type": "uint256"
        }
      ],
      "name": "transferFrom",
      "outputs": [],
      "stateMutability": "nonpayable",
      "type": "function"
    },
    {
      "inputs": [
        {
          "internalType": "address",
          "name": "newOwner",
          "type": "address"
        }
      ],
      "name": "transferOwnership",
      "outputs": [],
      "stateMutability": "nonpayable",
      "type": "function"
    },
    {
      "inputs": [
        {
          "internalType": "address",
          "name": "",
          "type": "address"
        }
      ],
      "name": "walletIdToClinic",
      "outputs": [
        {
          "internalType": "string",
          "name": "name",
          "type": "string"
        },
        {
          "internalType": "string",
          "name": "p_address",
          "type": "string"
        },
        {
          "internalType": "string",
          "name": "email",
          "type": "string"
        }
      ],
      "stateMutability": "view",
      "type": "function"
    },
    {
      "inputs": [
        {
          "internalType": "address",
          "name": "",
          "type": "address"
        }
      ],
      "name": "walletIdToPatientHash",
      "outputs": [
        {
          "internalType": "string",
          "name": "",
          "type": "string"
        }
      ],
      "stateMutability": "view",
      "type": "function"
    }
  ],
  "bytecode": "0x60806040523480156200001157600080fd5b506040518060400160405280600681526020017f5661784e465400000000000000000000000000000000000000000000000000008152506040518060400160405280600381526020017f4e46540000000000000000000000000000000000000000000000000000000000815250816000908051906020019062000096929190620001a6565b508060019080519060200190620000af929190620001a6565b505050620000d2620000c6620000d860201b60201c565b620000e060201b60201c565b620002bb565b600033905090565b6000600660009054906101000a900473ffffffffffffffffffffffffffffffffffffffff16905081600660006101000a81548173ffffffffffffffffffffffffffffffffffffffff021916908373ffffffffffffffffffffffffffffffffffffffff1602179055508173ffffffffffffffffffffffffffffffffffffffff168173ffffffffffffffffffffffffffffffffffffffff167f8be0079c531659141344cd1fd0a4f28419497f9722a3daafe3b4186f6b6457e060405160405180910390a35050565b828054620001b49062000256565b90600052602060002090601f016020900481019282620001d8576000855562000224565b82601f10620001f357805160ff191683800117855562000224565b8280016001018555821562000224579182015b828111156200022357825182559160200191906001019062000206565b5b50905062000233919062000237565b5090565b5b808211156200025257600081600090555060010162000238565b5090565b600060028204905060018216806200026f57607f821691505b602082108114156200028657620002856200028c565b5b50919050565b7f4e487b7100000000000000000000000000000000000000000000000000000000600052602260045260246000fd5b613f1980620002cb6000396000f3fe608060405234801561001057600080fd5b506004361061014d5760003560e01c806370a08231116100c3578063a22cb4651161007c578063a22cb465146103f0578063a570c3aa1461040c578063b88d4fde1461043c578063c87b56dd14610458578063e985e9c514610488578063f2fde38b146104b85761014d565b806370a0823114610318578063715018a6146103485780638462151c146103525780638da5cb5b146103825780639347200c146103a057806395d89b41146103d25761014d565b806323b872dd1161011557806323b872dd1461021c5780632bc01145146102385780632ffd0d821461026857806342842e0e146102985780635fb8bcd5146102b45780636352211e146102e85761014d565b806301ffc9a71461015257806306fdde0314610182578063081812fc146101a0578063095ea7b3146101d057806310b6977e146101ec575b600080fd5b61016c60048036038101906101679190612c4c565b6104d4565b60405161017991906137b9565b60405180910390f35b61018a6105b6565b60405161019791906137d4565b60405180910390f35b6101ba60048036038101906101b59190612e21565b610648565b6040516101c791906136c8565b60405180910390f35b6101ea60048036038101906101e59190612c10565b6106cd565b005b61020660048036038101906102019190612c9e565b6107e5565b60405161021391906137d4565b60405180910390f35b61023660048036038101906102319190612b0a565b610918565b005b610252600480360381019061024d9190612cdf565b610978565b60405161025f9190613a42565b60405180910390f35b610282600480360381019061027d9190612aa5565b610c4b565b60405161028f91906137d4565b60405180910390f35b6102b260048036038101906102ad9190612b0a565b610ceb565b005b6102ce60048036038101906102c99190612e21565b610d0b565b6040516102df95949392919061372f565b60405180910390f35b61030260048036038101906102fd9190612e21565b610ef9565b60405161030f91906136c8565b60405180910390f35b610332600480360381019061032d9190612aa5565b610fab565b60405161033f9190613a64565b60405180910390f35b610350611063565b005b61036c60048036038101906103679190612aa5565b6110eb565b6040516103799190613797565b60405180910390f35b61038a611505565b60405161039791906136c8565b60405180910390f35b6103ba60048036038101906103b59190612aa5565b61152f565b6040516103c9939291906137f6565b60405180910390f35b6103da6116f1565b6040516103e791906137d4565b60405180910390f35b61040a60048036038101906104059190612bd4565b611783565b005b61042660048036038101906104219190612d76565b611799565b6040516104339190613a64565b60405180910390f35b61045660048036038101906104519190612b59565b611909565b005b610472600480360381019061046d9190612e21565b61196b565b60405161047f91906137d4565b60405180910390f35b6104a2600480360381019061049d9190612ace565b611a12565b6040516104af91906137b9565b60405180910390f35b6104d260048036038101906104cd9190612aa5565b611aa6565b005b60007f80ac58cd000000000000000000000000000000000000000000000000000000007bffffffffffffffffffffffffffffffffffffffffffffffffffffffff1916827bffffffffffffffffffffffffffffffffffffffffffffffffffffffff1916148061059f57507f5b5e139f000000000000000000000000000000000000000000000000000000007bffffffffffffffffffffffffffffffffffffffffffffffffffffffff1916827bffffffffffffffffffffffffffffffffffffffffffffffffffffffff1916145b806105af57506105ae82611b9e565b5b9050919050565b6060600080546105c590613d0e565b80601f01602080910402602001604051908101604052809291908181526020018280546105f190613d0e565b801561063e5780601f106106135761010080835404028352916020019161063e565b820191906000526020600020905b81548152906001019060200180831161062157829003601f168201915b5050505050905090565b600061065382611c08565b610692576040517f08c379a000000000000000000000000000000000000000000000000000000000815260040161068990613982565b60405180910390fd5b6004600083815260200190815260200160002060009054906101000a900473ffffffffffffffffffffffffffffffffffffffff169050919050565b60006106d882610ef9565b90508073ffffffffffffffffffffffffffffffffffffffff168373ffffffffffffffffffffffffffffffffffffffff161415610749576040517f08c379a000000000000000000000000000000000000000000000000000000000815260040161074090613a02565b60405180910390fd5b8073ffffffffffffffffffffffffffffffffffffffff16610768611c74565b73ffffffffffffffffffffffffffffffffffffffff161480610797575061079681610791611c74565b611a12565b5b6107d6576040517f08c379a00000000000000000000000000000000000000000000000000000000081526004016107cd90613902565b60405180910390fd5b6107e08383611c7c565b505050565b606081600960006107f4611c74565b73ffffffffffffffffffffffffffffffffffffffff1673ffffffffffffffffffffffffffffffffffffffff1681526020019081526020016000209080519060200190610841929190612863565b506009600061084e611c74565b73ffffffffffffffffffffffffffffffffffffffff1673ffffffffffffffffffffffffffffffffffffffff168152602001908152602001600020805461089390613d0e565b80601f01602080910402602001604051908101604052809291908181526020018280546108bf90613d0e565b801561090c5780601f106108e15761010080835404028352916020019161090c565b820191906000526020600020905b8154815290600101906020018083116108ef57829003601f168201915b50505050509050919050565b610929610923611c74565b82611d35565b610968576040517f08c379a000000000000000000000000000000000000000000000000000000000815260040161095f90613a22565b60405180910390fd5b610973838383611e13565b505050565b6109806128e9565b604051806060016040528085815260200184815260200183815250600a60006109a7611c74565b73ffffffffffffffffffffffffffffffffffffffff1673ffffffffffffffffffffffffffffffffffffffff16815260200190815260200160002060008201518160000190805190602001906109fd929190612863565b506020820151816001019080519060200190610a1a929190612863565b506040820151816002019080519060200190610a37929190612863565b50905050600a6000610a47611c74565b73ffffffffffffffffffffffffffffffffffffffff1673ffffffffffffffffffffffffffffffffffffffff168152602001908152602001600020604051806060016040529081600082018054610a9c90613d0e565b80601f0160208091040260200160405190810160405280929190818152602001828054610ac890613d0e565b8015610b155780601f10610aea57610100808354040283529160200191610b15565b820191906000526020600020905b815481529060010190602001808311610af857829003601f168201915b50505050508152602001600182018054610b2e90613d0e565b80601f0160208091040260200160405190810160405280929190818152602001828054610b5a90613d0e565b8015610ba75780601f10610b7c57610100808354040283529160200191610ba7565b820191906000526020600020905b815481529060010190602001808311610b8a57829003601f168201915b50505050508152602001600282018054610bc090613d0e565b80601f0160208091040260200160405190810160405280929190818152602001828054610bec90613d0e565b8015610c395780601f10610c0e57610100808354040283529160200191610c39565b820191906000526020600020905b815481529060010190602001808311610c1c57829003601f168201915b50505050508152505090509392505050565b60096020528060005260406000206000915090508054610c6a90613d0e565b80601f0160208091040260200160405190810160405280929190818152602001828054610c9690613d0e565b8015610ce35780601f10610cb857610100808354040283529160200191610ce3565b820191906000526020600020905b815481529060010190602001808311610cc657829003601f168201915b505050505081565b610d0683838360405180602001604052806000815250611909565b505050565b60086020528060005260406000206000915090508060000160009054906101000a900473ffffffffffffffffffffffffffffffffffffffff1690806001018054610d5490613d0e565b80601f0160208091040260200160405190810160405280929190818152602001828054610d8090613d0e565b8015610dcd5780601f10610da257610100808354040283529160200191610dcd565b820191906000526020600020905b815481529060010190602001808311610db057829003601f168201915b505050505090806002018054610de290613d0e565b80601f0160208091040260200160405190810160405280929190818152602001828054610e0e90613d0e565b8015610e5b5780601f10610e3057610100808354040283529160200191610e5b565b820191906000526020600020905b815481529060010190602001808311610e3e57829003601f168201915b505050505090806003015490806004018054610e7690613d0e565b80601f0160208091040260200160405190810160405280929190818152602001828054610ea290613d0e565b8015610eef5780601f10610ec457610100808354040283529160200191610eef565b820191906000526020600020905b815481529060010190602001808311610ed257829003601f168201915b5050505050905085565b6000806002600084815260200190815260200160002060009054906101000a900473ffffffffffffffffffffffffffffffffffffffff169050600073ffffffffffffffffffffffffffffffffffffffff168173ffffffffffffffffffffffffffffffffffffffff161415610fa2576040517f08c379a0000000000000000000000000000000000000000000000000000000008152600401610f9990613942565b60405180910390fd5b80915050919050565b60008073ffffffffffffffffffffffffffffffffffffffff168273ffffffffffffffffffffffffffffffffffffffff16141561101c576040517f08c379a000000000000000000000000000000000000000000000000000000000815260040161101390613922565b60405180910390fd5b600360008373ffffffffffffffffffffffffffffffffffffffff1673ffffffffffffffffffffffffffffffffffffffff168152602001908152602001600020549050919050565b61106b611c74565b73ffffffffffffffffffffffffffffffffffffffff16611089611505565b73ffffffffffffffffffffffffffffffffffffffff16146110df576040517f08c379a00000000000000000000000000000000000000000000000000000000081526004016110d6906139a2565b60405180910390fd5b6110e9600061206f565b565b606060006110f883610fab565b9050600081141561118657600067ffffffffffffffff811115611144577f4e487b7100000000000000000000000000000000000000000000000000000000600052604160045260246000fd5b60405190808252806020026020018201604052801561117d57816020015b61116a61290a565b8152602001906001900390816111625790505b50915050611500565b60008167ffffffffffffffff8111156111c8577f4e487b7100000000000000000000000000000000000000000000000000000000600052604160045260246000fd5b60405190808252806020026020018201604052801561120157816020015b6111ee61290a565b8152602001906001900390816111e65790505b50905060006112106007612135565b9050600080600190505b8281116114f7578673ffffffffffffffffffffffffffffffffffffffff1661124182610ef9565b73ffffffffffffffffffffffffffffffffffffffff1614156114e457600860008281526020019081526020016000206040518060a00160405290816000820160009054906101000a900473ffffffffffffffffffffffffffffffffffffffff1673ffffffffffffffffffffffffffffffffffffffff1673ffffffffffffffffffffffffffffffffffffffff1681526020016001820180546112e190613d0e565b80601f016020809104026020016040519081016040528092919081815260200182805461130d90613d0e565b801561135a5780601f1061132f5761010080835404028352916020019161135a565b820191906000526020600020905b81548152906001019060200180831161133d57829003601f168201915b5050505050815260200160028201805461137390613d0e565b80601f016020809104026020016040519081016040528092919081815260200182805461139f90613d0e565b80156113ec5780601f106113c1576101008083540402835291602001916113ec565b820191906000526020600020905b8154815290600101906020018083116113cf57829003601f168201915b505050505081526020016003820154815260200160048201805461140f90613d0e565b80601f016020809104026020016040519081016040528092919081815260200182805461143b90613d0e565b80156114885780601f1061145d57610100808354040283529160200191611488565b820191906000526020600020905b81548152906001019060200180831161146b57829003601f168201915b5050505050815250508483815181106114ca577f4e487b7100000000000000000000000000000000000000000000000000000000600052603260045260246000fd5b602002602001018190525081806114e090613d40565b9250505b80806114ef90613d40565b91505061121a565b83955050505050505b919050565b6000600660009054906101000a900473ffffffffffffffffffffffffffffffffffffffff16905090565b600a60205280600052604060002060009150905080600001805461155290613d0e565b80601f016020809104026020016040519081016040528092919081815260200182805461157e90613d0e565b80156115cb5780601f106115a0576101008083540402835291602001916115cb565b820191906000526020600020905b8154815290600101906020018083116115ae57829003601f168201915b5050505050908060010180546115e090613d0e565b80601f016020809104026020016040519081016040528092919081815260200182805461160c90613d0e565b80156116595780601f1061162e57610100808354040283529160200191611659565b820191906000526020600020905b81548152906001019060200180831161163c57829003601f168201915b50505050509080600201805461166e90613d0e565b80601f016020809104026020016040519081016040528092919081815260200182805461169a90613d0e565b80156116e75780601f106116bc576101008083540402835291602001916116e7565b820191906000526020600020905b8154815290600101906020018083116116ca57829003601f168201915b5050505050905083565b60606001805461170090613d0e565b80601f016020809104026020016040519081016040528092919081815260200182805461172c90613d0e565b80156117795780601f1061174e57610100808354040283529160200191611779565b820191906000526020600020905b81548152906001019060200180831161175c57829003601f168201915b5050505050905090565b61179561178e611c74565b8383612143565b5050565b60006117a560076122b0565b60006117b16007612135565b90506117c46117be611c74565b826122c6565b6040518060a001604052806117d7611c74565b73ffffffffffffffffffffffffffffffffffffffff168152602001878152602001868152602001858152602001848152506008600083815260200190815260200160002060008201518160000160006101000a81548173ffffffffffffffffffffffffffffffffffffffff021916908373ffffffffffffffffffffffffffffffffffffffff160217905550602082015181600101908051906020019061187e929190612863565b50604082015181600201908051906020019061189b929190612863565b506060820151816003015560808201518160040190805190602001906118c2929190612863565b509050507f65f4dc08c4c2661a2ccb6e433da77c60168189d45e70829ac6cac16dc09e4984816040516118f59190613a64565b60405180910390a180915050949350505050565b61191a611914611c74565b83611d35565b611959576040517f08c379a000000000000000000000000000000000000000000000000000000000815260040161195090613a22565b60405180910390fd5b61196584848484612494565b50505050565b606061197682611c08565b6119b5576040517f08c379a00000000000000000000000000000000000000000000000000000000081526004016119ac906139e2565b60405180910390fd5b60006119bf6124f0565b905060008151116119df5760405180602001604052806000815250611a0a565b806119e984612507565b6040516020016119fa9291906136a4565b6040516020818303038152906040525b915050919050565b6000600560008473ffffffffffffffffffffffffffffffffffffffff1673ffffffffffffffffffffffffffffffffffffffff16815260200190815260200160002060008373ffffffffffffffffffffffffffffffffffffffff1673ffffffffffffffffffffffffffffffffffffffff16815260200190815260200160002060009054906101000a900460ff16905092915050565b611aae611c74565b73ffffffffffffffffffffffffffffffffffffffff16611acc611505565b73ffffffffffffffffffffffffffffffffffffffff1614611b22576040517f08c379a0000000000000000000000000000000000000000000000000000000008152600401611b19906139a2565b60405180910390fd5b600073ffffffffffffffffffffffffffffffffffffffff168173ffffffffffffffffffffffffffffffffffffffff161415611b92576040517f08c379a0000000000000000000000000000000000000000000000000000000008152600401611b8990613862565b60405180910390fd5b611b9b8161206f565b50565b60007f01ffc9a7000000000000000000000000000000000000000000000000000000007bffffffffffffffffffffffffffffffffffffffffffffffffffffffff1916827bffffffffffffffffffffffffffffffffffffffffffffffffffffffff1916149050919050565b60008073ffffffffffffffffffffffffffffffffffffffff166002600084815260200190815260200160002060009054906101000a900473ffffffffffffffffffffffffffffffffffffffff1673ffffffffffffffffffffffffffffffffffffffff1614159050919050565b600033905090565b816004600083815260200190815260200160002060006101000a81548173ffffffffffffffffffffffffffffffffffffffff021916908373ffffffffffffffffffffffffffffffffffffffff160217905550808273ffffffffffffffffffffffffffffffffffffffff16611cef83610ef9565b73ffffffffffffffffffffffffffffffffffffffff167f8c5be1e5ebec7d5bd14f71427d1e84f3dd0314c0f7b2291e5b200ac8c7c3b92560405160405180910390a45050565b6000611d4082611c08565b611d7f576040517f08c379a0000000000000000000000000000000000000000000000000000000008152600401611d76906138e2565b60405180910390fd5b6000611d8a83610ef9565b90508073ffffffffffffffffffffffffffffffffffffffff168473ffffffffffffffffffffffffffffffffffffffff161480611df957508373ffffffffffffffffffffffffffffffffffffffff16611de184610648565b73ffffffffffffffffffffffffffffffffffffffff16145b80611e0a5750611e098185611a12565b5b91505092915050565b8273ffffffffffffffffffffffffffffffffffffffff16611e3382610ef9565b73ffffffffffffffffffffffffffffffffffffffff1614611e89576040517f08c379a0000000000000000000000000000000000000000000000000000000008152600401611e80906139c2565b60405180910390fd5b600073ffffffffffffffffffffffffffffffffffffffff168273ffffffffffffffffffffffffffffffffffffffff161415611ef9576040517f08c379a0000000000000000000000000000000000000000000000000000000008152600401611ef0906138a2565b60405180910390fd5b611f048383836126b4565b611f0f600082611c7c565b6001600360008573ffffffffffffffffffffffffffffffffffffffff1673ffffffffffffffffffffffffffffffffffffffff1681526020019081526020016000206000828254611f5f9190613c24565b925050819055506001600360008473ffffffffffffffffffffffffffffffffffffffff1673ffffffffffffffffffffffffffffffffffffffff1681526020019081526020016000206000828254611fb69190613b9d565b92505081905550816002600083815260200190815260200160002060006101000a81548173ffffffffffffffffffffffffffffffffffffffff021916908373ffffffffffffffffffffffffffffffffffffffff160217905550808273ffffffffffffffffffffffffffffffffffffffff168473ffffffffffffffffffffffffffffffffffffffff167fddf252ad1be2c89b69c2b068fc378daa952ba7f163c4a11628f55a4df523b3ef60405160405180910390a4505050565b6000600660009054906101000a900473ffffffffffffffffffffffffffffffffffffffff16905081600660006101000a81548173ffffffffffffffffffffffffffffffffffffffff021916908373ffffffffffffffffffffffffffffffffffffffff1602179055508173ffffffffffffffffffffffffffffffffffffffff168173ffffffffffffffffffffffffffffffffffffffff167f8be0079c531659141344cd1fd0a4f28419497f9722a3daafe3b4186f6b6457e060405160405180910390a35050565b600081600001549050919050565b8173ffffffffffffffffffffffffffffffffffffffff168373ffffffffffffffffffffffffffffffffffffffff1614156121b2576040517f08c379a00000000000000000000000000000000000000000000000000000000081526004016121a9906138c2565b60405180910390fd5b80600560008573ffffffffffffffffffffffffffffffffffffffff1673ffffffffffffffffffffffffffffffffffffffff16815260200190815260200160002060008473ffffffffffffffffffffffffffffffffffffffff1673ffffffffffffffffffffffffffffffffffffffff16815260200190815260200160002060006101000a81548160ff0219169083151502179055508173ffffffffffffffffffffffffffffffffffffffff168373ffffffffffffffffffffffffffffffffffffffff167f17307eab39ab6107e8899845ad3d59bd9653f200f220920489ca2b5937696c31836040516122a391906137b9565b60405180910390a3505050565b6001816000016000828254019250508190555050565b600073ffffffffffffffffffffffffffffffffffffffff168273ffffffffffffffffffffffffffffffffffffffff161415612336576040517f08c379a000000000000000000000000000000000000000000000000000000000815260040161232d90613962565b60405180910390fd5b61233f81611c08565b1561237f576040517f08c379a000000000000000000000000000000000000000000000000000000000815260040161237690613882565b60405180910390fd5b61238b600083836126b4565b6001600360008473ffffffffffffffffffffffffffffffffffffffff1673ffffffffffffffffffffffffffffffffffffffff16815260200190815260200160002060008282546123db9190613b9d565b92505081905550816002600083815260200190815260200160002060006101000a81548173ffffffffffffffffffffffffffffffffffffffff021916908373ffffffffffffffffffffffffffffffffffffffff160217905550808273ffffffffffffffffffffffffffffffffffffffff16600073ffffffffffffffffffffffffffffffffffffffff167fddf252ad1be2c89b69c2b068fc378daa952ba7f163c4a11628f55a4df523b3ef60405160405180910390a45050565b61249f848484611e13565b6124ab848484846126b9565b6124ea576040517f08c379a00000000000000000000000000000000000000000000000000000000081526004016124e190613842565b60405180910390fd5b50505050565b606060405180602001604052806000815250905090565b6060600082141561254f576040518060400160405280600181526020017f300000000000000000000000000000000000000000000000000000000000000081525090506126af565b600082905060005b6000821461258157808061256a90613d40565b915050600a8261257a9190613bf3565b9150612557565b60008167ffffffffffffffff8111156125c3577f4e487b7100000000000000000000000000000000000000000000000000000000600052604160045260246000fd5b6040519080825280601f01601f1916602001820160405280156125f55781602001600182028036833780820191505090505b5090505b600085146126a85760018261260e9190613c24565b9150600a8561261d9190613d89565b60306126299190613b9d565b60f81b818381518110612665577f4e487b7100000000000000000000000000000000000000000000000000000000600052603260045260246000fd5b60200101907effffffffffffffffffffffffffffffffffffffffffffffffffffffffffffff1916908160001a905350600a856126a19190613bf3565b94506125f9565b8093505050505b919050565b505050565b60006126da8473ffffffffffffffffffffffffffffffffffffffff16612850565b15612843578373ffffffffffffffffffffffffffffffffffffffff1663150b7a02612703611c74565b8786866040518563ffffffff1660e01b815260040161272594939291906136e3565b602060405180830381600087803b15801561273f57600080fd5b505af192505050801561277057506040513d601f19601f8201168201806040525081019061276d9190612c75565b60015b6127f3573d80600081146127a0576040519150601f19603f3d011682016040523d82523d6000602084013e6127a5565b606091505b506000815114156127eb576040517f08c379a00000000000000000000000000000000000000000000000000000000081526004016127e290613842565b60405180910390fd5b805181602001fd5b63150b7a0260e01b7bffffffffffffffffffffffffffffffffffffffffffffffffffffffff1916817bffffffffffffffffffffffffffffffffffffffffffffffffffffffff191614915050612848565b600190505b949350505050565b600080823b905060008111915050919050565b82805461286f90613d0e565b90600052602060002090601f01602090048101928261289157600085556128d8565b82601f106128aa57805160ff19168380011785556128d8565b828001600101855582156128d8579182015b828111156128d75782518255916020019190600101906128bc565b5b5090506128e5919061294f565b5090565b60405180606001604052806060815260200160608152602001606081525090565b6040518060a00160405280600073ffffffffffffffffffffffffffffffffffffffff168152602001606081526020016060815260200160008152602001606081525090565b5b80821115612968576000816000905550600101612950565b5090565b600061297f61297a84613ab0565b613a7f565b90508281526020810184848401111561299757600080fd5b6129a2848285613ccc565b509392505050565b60006129bd6129b884613ae0565b613a7f565b9050828152602081018484840111156129d557600080fd5b6129e0848285613ccc565b509392505050565b6000813590506129f781613e87565b92915050565b600081359050612a0c81613e9e565b92915050565b600081359050612a2181613eb5565b92915050565b600081519050612a3681613eb5565b92915050565b600082601f830112612a4d57600080fd5b8135612a5d84826020860161296c565b91505092915050565b600082601f830112612a7757600080fd5b8135612a878482602086016129aa565b91505092915050565b600081359050612a9f81613ecc565b92915050565b600060208284031215612ab757600080fd5b6000612ac5848285016129e8565b91505092915050565b60008060408385031215612ae157600080fd5b6000612aef858286016129e8565b9250506020612b00858286016129e8565b9150509250929050565b600080600060608486031215612b1f57600080fd5b6000612b2d868287016129e8565b9350506020612b3e868287016129e8565b9250506040612b4f86828701612a90565b9150509250925092565b60008060008060808587031215612b6f57600080fd5b6000612b7d878288016129e8565b9450506020612b8e878288016129e8565b9350506040612b9f87828801612a90565b925050606085013567ffffffffffffffff811115612bbc57600080fd5b612bc887828801612a3c565b91505092959194509250565b60008060408385031215612be757600080fd5b6000612bf5858286016129e8565b9250506020612c06858286016129fd565b9150509250929050565b60008060408385031215612c2357600080fd5b6000612c31858286016129e8565b9250506020612c4285828601612a90565b9150509250929050565b600060208284031215612c5e57600080fd5b6000612c6c84828501612a12565b91505092915050565b600060208284031215612c8757600080fd5b6000612c9584828501612a27565b91505092915050565b600060208284031215612cb057600080fd5b600082013567ffffffffffffffff811115612cca57600080fd5b612cd684828501612a66565b91505092915050565b600080600060608486031215612cf457600080fd5b600084013567ffffffffffffffff811115612d0e57600080fd5b612d1a86828701612a66565b935050602084013567ffffffffffffffff811115612d3757600080fd5b612d4386828701612a66565b925050604084013567ffffffffffffffff811115612d6057600080fd5b612d6c86828701612a66565b9150509250925092565b60008060008060808587031215612d8c57600080fd5b600085013567ffffffffffffffff811115612da657600080fd5b612db287828801612a66565b945050602085013567ffffffffffffffff811115612dcf57600080fd5b612ddb87828801612a66565b9350506040612dec87828801612a90565b925050606085013567ffffffffffffffff811115612e0957600080fd5b612e1587828801612a66565b91505092959194509250565b600060208284031215612e3357600080fd5b6000612e4184828501612a90565b91505092915050565b6000612e568383613602565b905092915050565b612e6781613c58565b82525050565b612e7681613c58565b82525050565b6000612e8782613b20565b612e918185613b4e565b935083602082028501612ea385613b10565b8060005b85811015612edf5784840389528151612ec08582612e4a565b9450612ecb83613b41565b925060208a01995050600181019050612ea7565b50829750879550505050505092915050565b612efa81613c6a565b82525050565b6000612f0b82613b2b565b612f158185613b5f565b9350612f25818560208601613cdb565b612f2e81613e76565b840191505092915050565b6000612f4482613b36565b612f4e8185613b70565b9350612f5e818560208601613cdb565b612f6781613e76565b840191505092915050565b6000612f7d82613b36565b612f878185613b81565b9350612f97818560208601613cdb565b612fa081613e76565b840191505092915050565b6000612fb682613b36565b612fc08185613b92565b9350612fd0818560208601613cdb565b80840191505092915050565b6000612fe9603283613b81565b91507f4552433732313a207472616e7366657220746f206e6f6e20455243373231526560008301527f63656976657220696d706c656d656e74657200000000000000000000000000006020830152604082019050919050565b600061304f602683613b81565b91507f4f776e61626c653a206e6577206f776e657220697320746865207a65726f206160008301527f64647265737300000000000000000000000000000000000000000000000000006020830152604082019050919050565b60006130b5601c83613b81565b91507f4552433732313a20746f6b656e20616c7265616479206d696e746564000000006000830152602082019050919050565b60006130f5602483613b81565b91507f4552433732313a207472616e7366657220746f20746865207a65726f2061646460008301527f72657373000000000000000000000000000000000000000000000000000000006020830152604082019050919050565b600061315b601983613b81565b91507f4552433732313a20617070726f766520746f2063616c6c6572000000000000006000830152602082019050919050565b600061319b602c83613b81565b91507f4552433732313a206f70657261746f7220717565727920666f72206e6f6e657860008301527f697374656e7420746f6b656e00000000000000000000000000000000000000006020830152604082019050919050565b6000613201603883613b81565b91507f4552433732313a20617070726f76652063616c6c6572206973206e6f74206f7760008301527f6e6572206e6f7220617070726f76656420666f7220616c6c00000000000000006020830152604082019050919050565b6000613267602a83613b81565b91507f4552433732313a2062616c616e636520717565727920666f7220746865207a6560008301527f726f2061646472657373000000000000000000000000000000000000000000006020830152604082019050919050565b60006132cd602983613b81565b91507f4552433732313a206f776e657220717565727920666f72206e6f6e657869737460008301527f656e7420746f6b656e00000000000000000000000000000000000000000000006020830152604082019050919050565b6000613333602083613b81565b91507f4552433732313a206d696e7420746f20746865207a65726f20616464726573736000830152602082019050919050565b6000613373602c83613b81565b91507f4552433732313a20617070726f76656420717565727920666f72206e6f6e657860008301527f697374656e7420746f6b656e00000000000000000000000000000000000000006020830152604082019050919050565b60006133d9602083613b81565b91507f4f776e61626c653a2063616c6c6572206973206e6f7420746865206f776e65726000830152602082019050919050565b6000613419602983613b81565b91507f4552433732313a207472616e73666572206f6620746f6b656e2074686174206960008301527f73206e6f74206f776e00000000000000000000000000000000000000000000006020830152604082019050919050565b600061347f602f83613b81565b91507f4552433732314d657461646174613a2055524920717565727920666f72206e6f60008301527f6e6578697374656e7420746f6b656e00000000000000000000000000000000006020830152604082019050919050565b60006134e5602183613b81565b91507f4552433732313a20617070726f76616c20746f2063757272656e74206f776e6560008301527f72000000000000000000000000000000000000000000000000000000000000006020830152604082019050919050565b600061354b603183613b81565b91507f4552433732313a207472616e736665722063616c6c6572206973206e6f74206f60008301527f776e6572206e6f7220617070726f7665640000000000000000000000000000006020830152604082019050919050565b600060608301600083015184820360008601526135c18282612f39565b915050602083015184820360208601526135db8282612f39565b915050604083015184820360408601526135f58282612f39565b9150508091505092915050565b600060a08301600083015161361a6000860182612e5e565b50602083015184820360208601526136328282612f39565b9150506040830151848203604086015261364c8282612f39565b91505060608301516136616060860182613686565b50608083015184820360808601526136798282612f39565b9150508091505092915050565b61368f81613cc2565b82525050565b61369e81613cc2565b82525050565b60006136b08285612fab565b91506136bc8284612fab565b91508190509392505050565b60006020820190506136dd6000830184612e6d565b92915050565b60006080820190506136f86000830187612e6d565b6137056020830186612e6d565b6137126040830185613695565b81810360608301526137248184612f00565b905095945050505050565b600060a0820190506137446000830188612e6d565b81810360208301526137568187612f72565b9050818103604083015261376a8186612f72565b90506137796060830185613695565b818103608083015261378b8184612f72565b90509695505050505050565b600060208201905081810360008301526137b18184612e7c565b905092915050565b60006020820190506137ce6000830184612ef1565b92915050565b600060208201905081810360008301526137ee8184612f72565b905092915050565b600060608201905081810360008301526138108186612f72565b905081810360208301526138248185612f72565b905081810360408301526138388184612f72565b9050949350505050565b6000602082019050818103600083015261385b81612fdc565b9050919050565b6000602082019050818103600083015261387b81613042565b9050919050565b6000602082019050818103600083015261389b816130a8565b9050919050565b600060208201905081810360008301526138bb816130e8565b9050919050565b600060208201905081810360008301526138db8161314e565b9050919050565b600060208201905081810360008301526138fb8161318e565b9050919050565b6000602082019050818103600083015261391b816131f4565b9050919050565b6000602082019050818103600083015261393b8161325a565b9050919050565b6000602082019050818103600083015261395b816132c0565b9050919050565b6000602082019050818103600083015261397b81613326565b9050919050565b6000602082019050818103600083015261399b81613366565b9050919050565b600060208201905081810360008301526139bb816133cc565b9050919050565b600060208201905081810360008301526139db8161340c565b9050919050565b600060208201905081810360008301526139fb81613472565b9050919050565b60006020820190508181036000830152613a1b816134d8565b9050919050565b60006020820190508181036000830152613a3b8161353e565b9050919050565b60006020820190508181036000830152613a5c81846135a4565b905092915050565b6000602082019050613a796000830184613695565b92915050565b6000604051905081810181811067ffffffffffffffff82111715613aa657613aa5613e47565b5b8060405250919050565b600067ffffffffffffffff821115613acb57613aca613e47565b5b601f19601f8301169050602081019050919050565b600067ffffffffffffffff821115613afb57613afa613e47565b5b601f19601f8301169050602081019050919050565b6000819050602082019050919050565b600081519050919050565b600081519050919050565b600081519050919050565b6000602082019050919050565b600082825260208201905092915050565b600082825260208201905092915050565b600082825260208201905092915050565b600082825260208201905092915050565b600081905092915050565b6000613ba882613cc2565b9150613bb383613cc2565b9250827fffffffffffffffffffffffffffffffffffffffffffffffffffffffffffffffff03821115613be857613be7613dba565b5b828201905092915050565b6000613bfe82613cc2565b9150613c0983613cc2565b925082613c1957613c18613de9565b5b828204905092915050565b6000613c2f82613cc2565b9150613c3a83613cc2565b925082821015613c4d57613c4c613dba565b5b828203905092915050565b6000613c6382613ca2565b9050919050565b60008115159050919050565b60007fffffffff0000000000000000000000000000000000000000000000000000000082169050919050565b600073ffffffffffffffffffffffffffffffffffffffff82169050919050565b6000819050919050565b82818337600083830152505050565b60005b83811015613cf9578082015181840152602081019050613cde565b83811115613d08576000848401525b50505050565b60006002820490506001821680613d2657607f821691505b60208210811415613d3a57613d39613e18565b5b50919050565b6000613d4b82613cc2565b91507fffffffffffffffffffffffffffffffffffffffffffffffffffffffffffffffff821415613d7e57613d7d613dba565b5b600182019050919050565b6000613d9482613cc2565b9150613d9f83613cc2565b925082613daf57613dae613de9565b5b828206905092915050565b7f4e487b7100000000000000000000000000000000000000000000000000000000600052601160045260246000fd5b7f4e487b7100000000000000000000000000000000000000000000000000000000600052601260045260246000fd5b7f4e487b7100000000000000000000000000000000000000000000000000000000600052602260045260246000fd5b7f4e487b7100000000000000000000000000000000000000000000000000000000600052604160045260246000fd5b6000601f19601f8301169050919050565b613e9081613c58565b8114613e9b57600080fd5b50565b613ea781613c6a565b8114613eb257600080fd5b50565b613ebe81613c76565b8114613ec957600080fd5b50565b613ed581613cc2565b8114613ee057600080fd5b5056fea26469706673582212208f2be9d22e213ca0035ff5d2eba03c89d12cf94a0ebcde2806e8bdaaa13ed75e64736f6c63430008000033",
  "linkReferences": {},
  "deployedLinkReferences": {}
}