{
  "_format": "hh-sol-artifact-1",
  "contractName": "VaxNFT",
  "sourceName": "contracts/vaxNFT.sol",
  "abi": [
    {
      "inputs": [],
      "stateMutability": "nonpayable",
      "type": "constructor"
    },
    {
      "anonymous": false,
      "inputs": [
        {
          "indexed": true,
          "internalType": "address",
          "name": "owner",
          "type": "address"
        },
        {
          "indexed": true,
          "internalType": "address",
          "name": "approved",
          "type": "address"
        },
        {
          "indexed": true,
          "internalType": "uint256",
          "name": "tokenId",
          "type": "uint256"
        }
      ],
      "name": "Approval",
      "type": "event"
    },
    {
      "anonymous": false,
      "inputs": [
        {
          "indexed": true,
          "internalType": "address",
          "name": "owner",
          "type": "address"
        },
        {
          "indexed": true,
          "internalType": "address",
          "name": "operator",
          "type": "address"
        },
        {
          "indexed": false,
          "internalType": "bool",
          "name": "approved",
          "type": "bool"
        }
      ],
      "name": "ApprovalForAll",
      "type": "event"
    },
    {
      "anonymous": false,
      "inputs": [
        {
          "indexed": true,
          "internalType": "address",
          "name": "previousOwner",
          "type": "address"
        },
        {
          "indexed": true,
          "internalType": "address",
          "name": "newOwner",
          "type": "address"
        }
      ],
      "name": "OwnershipTransferred",
      "type": "event"
    },
    {
      "anonymous": false,
      "inputs": [
        {
          "indexed": true,
          "internalType": "address",
          "name": "from",
          "type": "address"
        },
        {
          "indexed": true,
          "internalType": "address",
          "name": "to",
          "type": "address"
        },
        {
          "indexed": true,
          "internalType": "uint256",
          "name": "tokenId",
          "type": "uint256"
        }
      ],
      "name": "Transfer",
      "type": "event"
    },
    {
      "inputs": [
        {
          "internalType": "address",
          "name": "to",
          "type": "address"
        },
        {
          "internalType": "uint256",
          "name": "tokenId",
          "type": "uint256"
        }
      ],
      "name": "approve",
      "outputs": [],
      "stateMutability": "nonpayable",
      "type": "function"
    },
    {
      "inputs": [
        {
          "internalType": "address",
          "name": "owner",
          "type": "address"
        }
      ],
      "name": "balanceOf",
      "outputs": [
        {
          "internalType": "uint256",
          "name": "",
          "type": "uint256"
        }
      ],
      "stateMutability": "view",
      "type": "function"
    },
    {
      "inputs": [
        {
          "internalType": "uint256",
          "name": "tokenId",
          "type": "uint256"
        }
      ],
      "name": "getApproved",
      "outputs": [
        {
          "internalType": "address",
          "name": "",
          "type": "address"
        }
      ],
      "stateMutability": "view",
      "type": "function"
    },
    {
      "inputs": [
        {
          "internalType": "address",
          "name": "owner",
          "type": "address"
        },
        {
          "internalType": "address",
          "name": "operator",
          "type": "address"
        }
      ],
      "name": "isApprovedForAll",
      "outputs": [
        {
          "internalType": "bool",
          "name": "",
          "type": "bool"
        }
      ],
      "stateMutability": "view",
      "type": "function"
    },
    {
      "inputs": [
        {
          "internalType": "string",
          "name": "_firstName",
          "type": "string"
        },
        {
          "internalType": "string",
          "name": "_lastName",
          "type": "string"
        },
        {
          "internalType": "string",
          "name": "_manufacturer",
          "type": "string"
        },
        {
          "internalType": "uint256",
          "name": "_dosePhase",
          "type": "uint256"
        }
      ],
      "name": "mintNFT",
      "outputs": [
        {
          "internalType": "uint256",
          "name": "",
          "type": "uint256"
        }
      ],
      "stateMutability": "nonpayable",
      "type": "function"
    },
    {
      "inputs": [],
      "name": "name",
      "outputs": [
        {
          "internalType": "string",
          "name": "",
          "type": "string"
        }
      ],
      "stateMutability": "view",
      "type": "function"
    },
    {
      "inputs": [],
      "name": "owner",
      "outputs": [
        {
          "internalType": "address",
          "name": "",
          "type": "address"
        }
      ],
      "stateMutability": "view",
      "type": "function"
    },
    {
      "inputs": [
        {
          "internalType": "uint256",
          "name": "tokenId",
          "type": "uint256"
        }
      ],
      "name": "ownerOf",
      "outputs": [
        {
          "internalType": "address",
          "name": "",
          "type": "address"
        }
      ],
      "stateMutability": "view",
      "type": "function"
    },
    {
      "inputs": [],
      "name": "renounceOwnership",
      "outputs": [],
      "stateMutability": "nonpayable",
      "type": "function"
    },
    {
      "inputs": [
        {
          "internalType": "address",
          "name": "from",
          "type": "address"
        },
        {
          "internalType": "address",
          "name": "to",
          "type": "address"
        },
        {
          "internalType": "uint256",
          "name": "tokenId",
          "type": "uint256"
        }
      ],
      "name": "safeTransferFrom",
      "outputs": [],
      "stateMutability": "nonpayable",
      "type": "function"
    },
    {
      "inputs": [
        {
          "internalType": "address",
          "name": "from",
          "type": "address"
        },
        {
          "internalType": "address",
          "name": "to",
          "type": "address"
        },
        {
          "internalType": "uint256",
          "name": "tokenId",
          "type": "uint256"
        },
        {
          "internalType": "bytes",
          "name": "_data",
          "type": "bytes"
        }
      ],
      "name": "safeTransferFrom",
      "outputs": [],
      "stateMutability": "nonpayable",
      "type": "function"
    },
    {
      "inputs": [
        {
          "internalType": "address",
          "name": "operator",
          "type": "address"
        },
        {
          "internalType": "bool",
          "name": "approved",
          "type": "bool"
        }
      ],
      "name": "setApprovalForAll",
      "outputs": [],
      "stateMutability": "nonpayable",
      "type": "function"
    },
    {
      "inputs": [
        {
          "internalType": "bytes4",
          "name": "interfaceId",
          "type": "bytes4"
        }
      ],
      "name": "supportsInterface",
      "outputs": [
        {
          "internalType": "bool",
          "name": "",
          "type": "bool"
        }
      ],
      "stateMutability": "view",
      "type": "function"
    },
    {
      "inputs": [],
      "name": "symbol",
      "outputs": [
        {
          "internalType": "string",
          "name": "",
          "type": "string"
        }
      ],
      "stateMutability": "view",
      "type": "function"
    },
    {
      "inputs": [
        {
          "internalType": "uint256",
          "name": "",
          "type": "uint256"
        }
      ],
      "name": "tokenIdTokenInfo",
      "outputs": [
        {
          "internalType": "address",
          "name": "mintAddress",
          "type": "address"
        },
        {
          "internalType": "string",
          "name": "firstName",
          "type": "string"
        },
        {
          "internalType": "string",
          "name": "lastName",
          "type": "string"
        },
        {
          "internalType": "string",
          "name": "manufacturer",
          "type": "string"
        },
        {
          "internalType": "uint256",
          "name": "dosePhase",
          "type": "uint256"
        }
      ],
      "stateMutability": "view",
      "type": "function"
    },
    {
      "inputs": [
        {
          "internalType": "uint256",
          "name": "tokenId",
          "type": "uint256"
        }
      ],
      "name": "tokenURI",
      "outputs": [
        {
          "internalType": "string",
          "name": "",
          "type": "string"
        }
      ],
      "stateMutability": "view",
      "type": "function"
    },
    {
      "inputs": [
        {
          "internalType": "address",
          "name": "_owner",
          "type": "address"
        }
      ],
      "name": "tokensOfOwner",
      "outputs": [
        {
          "components": [
            {
              "internalType": "address",
              "name": "mintAddress",
              "type": "address"
            },
            {
              "internalType": "string",
              "name": "firstName",
              "type": "string"
            },
            {
              "internalType": "string",
              "name": "lastName",
              "type": "string"
            },
            {
              "internalType": "string",
              "name": "manufacturer",
              "type": "string"
            },
            {
              "internalType": "uint256",
              "name": "dosePhase",
              "type": "uint256"
            }
          ],
          "internalType": "struct VaxNFT.TokenInfo[]",
          "name": "",
          "type": "tuple[]"
        }
      ],
      "stateMutability": "nonpayable",
      "type": "function"
    },
    {
      "inputs": [
        {
          "internalType": "address",
          "name": "from",
          "type": "address"
        },
        {
          "internalType": "address",
          "name": "to",
          "type": "address"
        },
        {
          "internalType": "uint256",
          "name": "tokenId",
          "type": "uint256"
        }
      ],
      "name": "transferFrom",
      "outputs": [],
      "stateMutability": "nonpayable",
      "type": "function"
    },
    {
      "inputs": [
        {
          "internalType": "address",
          "name": "toAddress",
          "type": "address"
        }
      ],
      "name": "transferNFT",
      "outputs": [
        {
          "internalType": "uint256",
          "name": "",
          "type": "uint256"
        }
      ],
      "stateMutability": "nonpayable",
      "type": "function"
    },
    {
      "inputs": [
        {
          "internalType": "address",
          "name": "newOwner",
          "type": "address"
        }
      ],
      "name": "transferOwnership",
      "outputs": [],
      "stateMutability": "nonpayable",
      "type": "function"
    }
  ],
  "bytecode": "0x60806040523480156200001157600080fd5b506040518060400160405280600681526020017f5661784e465400000000000000000000000000000000000000000000000000008152506040518060400160405280600381526020017f4e46540000000000000000000000000000000000000000000000000000000000815250816000908051906020019062000096929190620001a6565b508060019080519060200190620000af929190620001a6565b505050620000d2620000c6620000d860201b60201c565b620000e060201b60201c565b620002bb565b600033905090565b6000600660009054906101000a900473ffffffffffffffffffffffffffffffffffffffff16905081600660006101000a81548173ffffffffffffffffffffffffffffffffffffffff021916908373ffffffffffffffffffffffffffffffffffffffff1602179055508173ffffffffffffffffffffffffffffffffffffffff168173ffffffffffffffffffffffffffffffffffffffff167f8be0079c531659141344cd1fd0a4f28419497f9722a3daafe3b4186f6b6457e060405160405180910390a35050565b828054620001b49062000256565b90600052602060002090601f016020900481019282620001d8576000855562000224565b82601f10620001f357805160ff191683800117855562000224565b8280016001018555821562000224579182015b828111156200022357825182559160200191906001019062000206565b5b50905062000233919062000237565b5090565b5b808211156200025257600081600090555060010162000238565b5090565b600060028204905060018216806200026f57607f821691505b602082108114156200028657620002856200028c565b5b50919050565b7f4e487b7100000000000000000000000000000000000000000000000000000000600052602260045260246000fd5b613d5f80620002cb6000396000f3fe608060405234801561001057600080fd5b506004361061012c5760003560e01c806370a08231116100ad578063a22cb46511610071578063a22cb4651461036d578063b88d4fde14610389578063c87b56dd146103a5578063e985e9c5146103d5578063f2fde38b146104055761012c565b806370a08231146102c7578063715018a6146102f75780638462151c146103015780638da5cb5b1461033157806395d89b411461034f5761012c565b8063345a98c4116100f4578063345a98c4146101e757806336e986ef1461021757806342842e0e146102475780634eab18fb146102635780636352211e146102975761012c565b806301ffc9a71461013157806306fdde0314610161578063081812fc1461017f578063095ea7b3146101af57806323b872dd146101cb575b600080fd5b61014b60048036038101906101469190612787565b610421565b6040516101589190613582565b60405180910390f35b610169610503565b604051610176919061359d565b60405180910390f35b61019960048036038101906101949190612884565b610595565b6040516101a69190613491565b60405180910390f35b6101c960048036038101906101c4919061274b565b61061a565b005b6101e560048036038101906101e09190612645565b610732565b005b61020160048036038101906101fc91906127d9565b610792565b60405161020e91906137bf565b60405180910390f35b610231600480360381019061022c91906125e0565b6108cb565b60405161023e91906137bf565b60405180910390f35b610261600480360381019061025c9190612645565b610982565b005b61027d60048036038101906102789190612884565b6109a2565b60405161028e9594939291906134f8565b60405180910390f35b6102b160048036038101906102ac9190612884565b610b90565b6040516102be9190613491565b60405180910390f35b6102e160048036038101906102dc91906125e0565b610c42565b6040516102ee91906137bf565b60405180910390f35b6102ff610cfa565b005b61031b600480360381019061031691906125e0565b610d82565b6040516103289190613560565b60405180910390f35b61033961119c565b6040516103469190613491565b60405180910390f35b6103576111c6565b604051610364919061359d565b60405180910390f35b6103876004803603810190610382919061270f565b611258565b005b6103a3600480360381019061039e9190612694565b61126e565b005b6103bf60048036038101906103ba9190612884565b6112d0565b6040516103cc919061359d565b60405180910390f35b6103ef60048036038101906103ea9190612609565b6113da565b6040516103fc9190613582565b60405180910390f35b61041f600480360381019061041a91906125e0565b61146e565b005b60007f80ac58cd000000000000000000000000000000000000000000000000000000007bffffffffffffffffffffffffffffffffffffffffffffffffffffffff1916827bffffffffffffffffffffffffffffffffffffffffffffffffffffffff191614806104ec57507f5b5e139f000000000000000000000000000000000000000000000000000000007bffffffffffffffffffffffffffffffffffffffffffffffffffffffff1916827bffffffffffffffffffffffffffffffffffffffffffffffffffffffff1916145b806104fc57506104fb82611566565b5b9050919050565b60606000805461051290613ae3565b80601f016020809104026020016040519081016040528092919081815260200182805461053e90613ae3565b801561058b5780601f106105605761010080835404028352916020019161058b565b820191906000526020600020905b81548152906001019060200180831161056e57829003601f168201915b5050505050905090565b60006105a0826115d0565b6105df576040517f08c379a00000000000000000000000000000000000000000000000000000000081526004016105d6906136ff565b60405180910390fd5b6004600083815260200190815260200160002060009054906101000a900473ffffffffffffffffffffffffffffffffffffffff169050919050565b600061062582610b90565b90508073ffffffffffffffffffffffffffffffffffffffff168373ffffffffffffffffffffffffffffffffffffffff161415610696576040517f08c379a000000000000000000000000000000000000000000000000000000000815260040161068d9061375f565b60405180910390fd5b8073ffffffffffffffffffffffffffffffffffffffff166106b561163c565b73ffffffffffffffffffffffffffffffffffffffff1614806106e457506106e3816106de61163c565b6113da565b5b610723576040517f08c379a000000000000000000000000000000000000000000000000000000000815260040161071a9061367f565b60405180910390fd5b61072d8383611644565b505050565b61074361073d61163c565b826116fd565b610782576040517f08c379a00000000000000000000000000000000000000000000000000000000081526004016107799061379f565b60405180910390fd5b61078d8383836117db565b505050565b600061079e6007611a37565b60006107aa6007611a4d565b90506107bd6107b761163c565b82611a5b565b6040518060a001604052806107d061163c565b73ffffffffffffffffffffffffffffffffffffffff168152602001878152602001868152602001858152602001848152506008600083815260200190815260200160002060008201518160000160006101000a81548173ffffffffffffffffffffffffffffffffffffffff021916908373ffffffffffffffffffffffffffffffffffffffff16021790555060208201518160010190805190602001906108779291906123bf565b5060408201518160020190805190602001906108949291906123bf565b5060608201518160030190805190602001906108b19291906123bf565b506080820151816004015590505080915050949350505050565b6000806108d86007611a4d565b905060006108e582610b90565b90508073ffffffffffffffffffffffffffffffffffffffff1661090661163c565b73ffffffffffffffffffffffffffffffffffffffff161461095c576040517f08c379a00000000000000000000000000000000000000000000000000000000081526004016109539061377f565b60405180910390fd5b610966848361061a565b61097861097161163c565b8584610982565b8192505050919050565b61099d8383836040518060200160405280600081525061126e565b505050565b60086020528060005260406000206000915090508060000160009054906101000a900473ffffffffffffffffffffffffffffffffffffffff16908060010180546109eb90613ae3565b80601f0160208091040260200160405190810160405280929190818152602001828054610a1790613ae3565b8015610a645780601f10610a3957610100808354040283529160200191610a64565b820191906000526020600020905b815481529060010190602001808311610a4757829003601f168201915b505050505090806002018054610a7990613ae3565b80601f0160208091040260200160405190810160405280929190818152602001828054610aa590613ae3565b8015610af25780601f10610ac757610100808354040283529160200191610af2565b820191906000526020600020905b815481529060010190602001808311610ad557829003601f168201915b505050505090806003018054610b0790613ae3565b80601f0160208091040260200160405190810160405280929190818152602001828054610b3390613ae3565b8015610b805780601f10610b5557610100808354040283529160200191610b80565b820191906000526020600020905b815481529060010190602001808311610b6357829003601f168201915b5050505050908060040154905085565b6000806002600084815260200190815260200160002060009054906101000a900473ffffffffffffffffffffffffffffffffffffffff169050600073ffffffffffffffffffffffffffffffffffffffff168173ffffffffffffffffffffffffffffffffffffffff161415610c39576040517f08c379a0000000000000000000000000000000000000000000000000000000008152600401610c30906136bf565b60405180910390fd5b80915050919050565b60008073ffffffffffffffffffffffffffffffffffffffff168273ffffffffffffffffffffffffffffffffffffffff161415610cb3576040517f08c379a0000000000000000000000000000000000000000000000000000000008152600401610caa9061369f565b60405180910390fd5b600360008373ffffffffffffffffffffffffffffffffffffffff1673ffffffffffffffffffffffffffffffffffffffff168152602001908152602001600020549050919050565b610d0261163c565b73ffffffffffffffffffffffffffffffffffffffff16610d2061119c565b73ffffffffffffffffffffffffffffffffffffffff1614610d76576040517f08c379a0000000000000000000000000000000000000000000000000000000008152600401610d6d9061371f565b60405180910390fd5b610d806000611c29565b565b60606000610d8f83610c42565b90506000811415610e1d57600067ffffffffffffffff811115610ddb577f4e487b7100000000000000000000000000000000000000000000000000000000600052604160045260246000fd5b604051908082528060200260200182016040528015610e1457816020015b610e01612445565b815260200190600190039081610df95790505b50915050611197565b60008167ffffffffffffffff811115610e5f577f4e487b7100000000000000000000000000000000000000000000000000000000600052604160045260246000fd5b604051908082528060200260200182016040528015610e9857816020015b610e85612445565b815260200190600190039081610e7d5790505b5090506000610ea76007611a4d565b9050600080600190505b82811161118e578673ffffffffffffffffffffffffffffffffffffffff16610ed882610b90565b73ffffffffffffffffffffffffffffffffffffffff16141561117b57600860008281526020019081526020016000206040518060a00160405290816000820160009054906101000a900473ffffffffffffffffffffffffffffffffffffffff1673ffffffffffffffffffffffffffffffffffffffff1673ffffffffffffffffffffffffffffffffffffffff168152602001600182018054610f7890613ae3565b80601f0160208091040260200160405190810160405280929190818152602001828054610fa490613ae3565b8015610ff15780601f10610fc657610100808354040283529160200191610ff1565b820191906000526020600020905b815481529060010190602001808311610fd457829003601f168201915b5050505050815260200160028201805461100a90613ae3565b80601f016020809104026020016040519081016040528092919081815260200182805461103690613ae3565b80156110835780601f1061105857610100808354040283529160200191611083565b820191906000526020600020905b81548152906001019060200180831161106657829003601f168201915b5050505050815260200160038201805461109c90613ae3565b80601f01602080910402602001604051908101604052809291908181526020018280546110c890613ae3565b80156111155780601f106110ea57610100808354040283529160200191611115565b820191906000526020600020905b8154815290600101906020018083116110f857829003601f168201915b50505050508152602001600482015481525050848381518110611161577f4e487b7100000000000000000000000000000000000000000000000000000000600052603260045260246000fd5b6020026020010181905250818061117790613b15565b9250505b808061118690613b15565b915050610eb1565b83955050505050505b919050565b6000600660009054906101000a900473ffffffffffffffffffffffffffffffffffffffff16905090565b6060600180546111d590613ae3565b80601f016020809104026020016040519081016040528092919081815260200182805461120190613ae3565b801561124e5780601f106112235761010080835404028352916020019161124e565b820191906000526020600020905b81548152906001019060200180831161123157829003601f168201915b5050505050905090565b61126a61126361163c565b8383611cef565b5050565b61127f61127961163c565b836116fd565b6112be576040517f08c379a00000000000000000000000000000000000000000000000000000000081526004016112b59061379f565b60405180910390fd5b6112ca84848484611e5c565b50505050565b60606113b46008600084815260200190815260200160002060010160086000858152602001908152602001600020600201600860008681526020019081526020016000206003016113366008600088815260200190815260200160002060040154611eb8565b6008600088815260200190815260200160002060000160009054906101000a900473ffffffffffffffffffffffffffffffffffffffff1660405160200161137d91906133bc565b6040516020818303038152906040526040516020016113a09594939291906133d7565b604051602081830303815290604052612065565b6040516020016113c4919061346f565b6040516020818303038152906040529050919050565b6000600560008473ffffffffffffffffffffffffffffffffffffffff1673ffffffffffffffffffffffffffffffffffffffff16815260200190815260200160002060008373ffffffffffffffffffffffffffffffffffffffff1673ffffffffffffffffffffffffffffffffffffffff16815260200190815260200160002060009054906101000a900460ff16905092915050565b61147661163c565b73ffffffffffffffffffffffffffffffffffffffff1661149461119c565b73ffffffffffffffffffffffffffffffffffffffff16146114ea576040517f08c379a00000000000000000000000000000000000000000000000000000000081526004016114e19061371f565b60405180910390fd5b600073ffffffffffffffffffffffffffffffffffffffff168173ffffffffffffffffffffffffffffffffffffffff16141561155a576040517f08c379a0000000000000000000000000000000000000000000000000000000008152600401611551906135df565b60405180910390fd5b61156381611c29565b50565b60007f01ffc9a7000000000000000000000000000000000000000000000000000000007bffffffffffffffffffffffffffffffffffffffffffffffffffffffff1916827bffffffffffffffffffffffffffffffffffffffffffffffffffffffff1916149050919050565b60008073ffffffffffffffffffffffffffffffffffffffff166002600084815260200190815260200160002060009054906101000a900473ffffffffffffffffffffffffffffffffffffffff1673ffffffffffffffffffffffffffffffffffffffff1614159050919050565b600033905090565b816004600083815260200190815260200160002060006101000a81548173ffffffffffffffffffffffffffffffffffffffff021916908373ffffffffffffffffffffffffffffffffffffffff160217905550808273ffffffffffffffffffffffffffffffffffffffff166116b783610b90565b73ffffffffffffffffffffffffffffffffffffffff167f8c5be1e5ebec7d5bd14f71427d1e84f3dd0314c0f7b2291e5b200ac8c7c3b92560405160405180910390a45050565b6000611708826115d0565b611747576040517f08c379a000000000000000000000000000000000000000000000000000000000815260040161173e9061365f565b60405180910390fd5b600061175283610b90565b90508073ffffffffffffffffffffffffffffffffffffffff168473ffffffffffffffffffffffffffffffffffffffff1614806117c157508373ffffffffffffffffffffffffffffffffffffffff166117a984610595565b73ffffffffffffffffffffffffffffffffffffffff16145b806117d257506117d181856113da565b5b91505092915050565b8273ffffffffffffffffffffffffffffffffffffffff166117fb82610b90565b73ffffffffffffffffffffffffffffffffffffffff1614611851576040517f08c379a00000000000000000000000000000000000000000000000000000000081526004016118489061373f565b60405180910390fd5b600073ffffffffffffffffffffffffffffffffffffffff168273ffffffffffffffffffffffffffffffffffffffff1614156118c1576040517f08c379a00000000000000000000000000000000000000000000000000000000081526004016118b89061361f565b60405180910390fd5b6118cc838383612210565b6118d7600082611644565b6001600360008573ffffffffffffffffffffffffffffffffffffffff1673ffffffffffffffffffffffffffffffffffffffff168152602001908152602001600020600082825461192791906139f9565b925050819055506001600360008473ffffffffffffffffffffffffffffffffffffffff1673ffffffffffffffffffffffffffffffffffffffff168152602001908152602001600020600082825461197e9190613918565b92505081905550816002600083815260200190815260200160002060006101000a81548173ffffffffffffffffffffffffffffffffffffffff021916908373ffffffffffffffffffffffffffffffffffffffff160217905550808273ffffffffffffffffffffffffffffffffffffffff168473ffffffffffffffffffffffffffffffffffffffff167fddf252ad1be2c89b69c2b068fc378daa952ba7f163c4a11628f55a4df523b3ef60405160405180910390a4505050565b6001816000016000828254019250508190555050565b600081600001549050919050565b600073ffffffffffffffffffffffffffffffffffffffff168273ffffffffffffffffffffffffffffffffffffffff161415611acb576040517f08c379a0000000000000000000000000000000000000000000000000000000008152600401611ac2906136df565b60405180910390fd5b611ad4816115d0565b15611b14576040517f08c379a0000000000000000000000000000000000000000000000000000000008152600401611b0b906135ff565b60405180910390fd5b611b2060008383612210565b6001600360008473ffffffffffffffffffffffffffffffffffffffff1673ffffffffffffffffffffffffffffffffffffffff1681526020019081526020016000206000828254611b709190613918565b92505081905550816002600083815260200190815260200160002060006101000a81548173ffffffffffffffffffffffffffffffffffffffff021916908373ffffffffffffffffffffffffffffffffffffffff160217905550808273ffffffffffffffffffffffffffffffffffffffff16600073ffffffffffffffffffffffffffffffffffffffff167fddf252ad1be2c89b69c2b068fc378daa952ba7f163c4a11628f55a4df523b3ef60405160405180910390a45050565b6000600660009054906101000a900473ffffffffffffffffffffffffffffffffffffffff16905081600660006101000a81548173ffffffffffffffffffffffffffffffffffffffff021916908373ffffffffffffffffffffffffffffffffffffffff1602179055508173ffffffffffffffffffffffffffffffffffffffff168173ffffffffffffffffffffffffffffffffffffffff167f8be0079c531659141344cd1fd0a4f28419497f9722a3daafe3b4186f6b6457e060405160405180910390a35050565b8173ffffffffffffffffffffffffffffffffffffffff168373ffffffffffffffffffffffffffffffffffffffff161415611d5e576040517f08c379a0000000000000000000000000000000000000000000000000000000008152600401611d559061363f565b60405180910390fd5b80600560008573ffffffffffffffffffffffffffffffffffffffff1673ffffffffffffffffffffffffffffffffffffffff16815260200190815260200160002060008473ffffffffffffffffffffffffffffffffffffffff1673ffffffffffffffffffffffffffffffffffffffff16815260200190815260200160002060006101000a81548160ff0219169083151502179055508173ffffffffffffffffffffffffffffffffffffffff168373ffffffffffffffffffffffffffffffffffffffff167f17307eab39ab6107e8899845ad3d59bd9653f200f220920489ca2b5937696c3183604051611e4f9190613582565b60405180910390a3505050565b611e678484846117db565b611e7384848484612215565b611eb2576040517f08c379a0000000000000000000000000000000000000000000000000000000008152600401611ea9906135bf565b60405180910390fd5b50505050565b60606000821415611f00576040518060400160405280600181526020017f30000000000000000000000000000000000000000000000000000000000000008152509050612060565b600082905060005b60008214611f32578080611f1b90613b15565b915050600a82611f2b919061396e565b9150611f08565b60008167ffffffffffffffff811115611f74577f4e487b7100000000000000000000000000000000000000000000000000000000600052604160045260246000fd5b6040519080825280601f01601f191660200182016040528015611fa65781602001600182028036833780820191505090505b5090505b6000851461205957600182611fbf91906139f9565b9150600a85611fce9190613b82565b6030611fda9190613918565b60f81b818381518110612016577f4e487b7100000000000000000000000000000000000000000000000000000000600052603260045260246000fd5b60200101907effffffffffffffffffffffffffffffffffffffffffffffffffffffffffffff1916908160001a905350600a85612052919061396e565b9450611faa565b8093505050505b919050565b60606000825114156120885760405180602001604052806000815250905061220b565b6000604051806060016040528060408152602001613cea60409139905060006003600285516120b79190613918565b6120c1919061396e565b60046120cd919061399f565b905060006020826120de9190613918565b67ffffffffffffffff81111561211d577f4e487b7100000000000000000000000000000000000000000000000000000000600052604160045260246000fd5b6040519080825280601f01601f19166020018201604052801561214f5781602001600182028036833780820191505090505b509050818152600183018586518101602084015b818310156121ca576003830192508251603f8160121c1685015160f81b8252600182019150603f81600c1c1685015160f81b8252600182019150603f8160061c1685015160f81b8252600182019150603f811685015160f81b825260018201915050612163565b6003895106600181146121e457600281146121f4576121ff565b613d3d60f01b60028303526121ff565b603d60f81b60018303525b50505050508093505050505b919050565b505050565b60006122368473ffffffffffffffffffffffffffffffffffffffff166123ac565b1561239f578373ffffffffffffffffffffffffffffffffffffffff1663150b7a0261225f61163c565b8786866040518563ffffffff1660e01b815260040161228194939291906134ac565b602060405180830381600087803b15801561229b57600080fd5b505af19250505080156122cc57506040513d601f19601f820116820180604052508101906122c991906127b0565b60015b61234f573d80600081146122fc576040519150601f19603f3d011682016040523d82523d6000602084013e612301565b606091505b50600081511415612347576040517f08c379a000000000000000000000000000000000000000000000000000000000815260040161233e906135bf565b60405180910390fd5b805181602001fd5b63150b7a0260e01b7bffffffffffffffffffffffffffffffffffffffffffffffffffffffff1916817bffffffffffffffffffffffffffffffffffffffffffffffffffffffff1916149150506123a4565b600190505b949350505050565b600080823b905060008111915050919050565b8280546123cb90613ae3565b90600052602060002090601f0160209004810192826123ed5760008555612434565b82601f1061240657805160ff1916838001178555612434565b82800160010185558215612434579182015b82811115612433578251825591602001919060010190612418565b5b509050612441919061248a565b5090565b6040518060a00160405280600073ffffffffffffffffffffffffffffffffffffffff168152602001606081526020016060815260200160608152602001600081525090565b5b808211156124a357600081600090555060010161248b565b5090565b60006124ba6124b58461380b565b6137da565b9050828152602081018484840111156124d257600080fd5b6124dd848285613aa1565b509392505050565b60006124f86124f38461383b565b6137da565b90508281526020810184848401111561251057600080fd5b61251b848285613aa1565b509392505050565b60008135905061253281613c8d565b92915050565b60008135905061254781613ca4565b92915050565b60008135905061255c81613cbb565b92915050565b60008151905061257181613cbb565b92915050565b600082601f83011261258857600080fd5b81356125988482602086016124a7565b91505092915050565b600082601f8301126125b257600080fd5b81356125c28482602086016124e5565b91505092915050565b6000813590506125da81613cd2565b92915050565b6000602082840312156125f257600080fd5b600061260084828501612523565b91505092915050565b6000806040838503121561261c57600080fd5b600061262a85828601612523565b925050602061263b85828601612523565b9150509250929050565b60008060006060848603121561265a57600080fd5b600061266886828701612523565b935050602061267986828701612523565b925050604061268a868287016125cb565b9150509250925092565b600080600080608085870312156126aa57600080fd5b60006126b887828801612523565b94505060206126c987828801612523565b93505060406126da878288016125cb565b925050606085013567ffffffffffffffff8111156126f757600080fd5b61270387828801612577565b91505092959194509250565b6000806040838503121561272257600080fd5b600061273085828601612523565b925050602061274185828601612538565b9150509250929050565b6000806040838503121561275e57600080fd5b600061276c85828601612523565b925050602061277d858286016125cb565b9150509250929050565b60006020828403121561279957600080fd5b60006127a78482850161254d565b91505092915050565b6000602082840312156127c257600080fd5b60006127d084828501612562565b91505092915050565b600080600080608085870312156127ef57600080fd5b600085013567ffffffffffffffff81111561280957600080fd5b612815878288016125a1565b945050602085013567ffffffffffffffff81111561283257600080fd5b61283e878288016125a1565b935050604085013567ffffffffffffffff81111561285b57600080fd5b612867878288016125a1565b9250506060612878878288016125cb565b91505092959194509250565b60006020828403121561289657600080fd5b60006128a4848285016125cb565b91505092915050565b60006128b9838361331a565b905092915050565b6128ca81613a2d565b82525050565b6128d981613a2d565b82525050565b6128f06128eb82613a2d565b613b5e565b82525050565b600061290182613890565b61290b81856138be565b93508360208202850161291d8561386b565b8060005b85811015612959578484038952815161293a85826128ad565b9450612945836138b1565b925060208a01995050600181019050612921565b50829750879550505050505092915050565b61297481613a3f565b82525050565b60006129858261389b565b61298f81856138cf565b935061299f818560208601613ab0565b6129a881613c6f565b840191505092915050565b60006129be8261389b565b6129c881856138e0565b93506129d8818560208601613ab0565b80840191505092915050565b60006129ef826138a6565b6129f981856138eb565b9350612a09818560208601613ab0565b612a1281613c6f565b840191505092915050565b6000612a28826138a6565b612a3281856138fc565b9350612a42818560208601613ab0565b612a4b81613c6f565b840191505092915050565b6000612a61826138a6565b612a6b818561390d565b9350612a7b818560208601613ab0565b80840191505092915050565b60008154612a9481613ae3565b612a9e818661390d565b94506001821660008114612ab95760018114612aca57612afd565b60ff19831686528186019350612afd565b612ad38561387b565b60005b83811015612af557815481890152600182019150602081019050612ad6565b838801955050505b50505092915050565b6000612b13600f8361390d565b91507f222c20226c6173744e616d65223a2200000000000000000000000000000000006000830152600f82019050919050565b6000612b536032836138fc565b91507f4552433732313a207472616e7366657220746f206e6f6e20455243373231526560008301527f63656976657220696d706c656d656e74657200000000000000000000000000006020830152604082019050919050565b6000612bb96026836138fc565b91507f4f776e61626c653a206e6577206f776e657220697320746865207a65726f206160008301527f64647265737300000000000000000000000000000000000000000000000000006020830152604082019050919050565b6000612c1f601c836138fc565b91507f4552433732313a20746f6b656e20616c7265616479206d696e746564000000006000830152602082019050919050565b6000612c5f6024836138fc565b91507f4552433732313a207472616e7366657220746f20746865207a65726f2061646460008301527f72657373000000000000000000000000000000000000000000000000000000006020830152604082019050919050565b6000612cc56019836138fc565b91507f4552433732313a20617070726f766520746f2063616c6c6572000000000000006000830152602082019050919050565b6000612d0560128361390d565b91507f7b226e616d65223a22566178204e4654222c00000000000000000000000000006000830152601282019050919050565b6000612d45602c836138fc565b91507f4552433732313a206f70657261746f7220717565727920666f72206e6f6e657860008301527f697374656e7420746f6b656e00000000000000000000000000000000000000006020830152604082019050919050565b6000612dab6038836138fc565b91507f4552433732313a20617070726f76652063616c6c6572206973206e6f74206f7760008301527f6e6572206e6f7220617070726f76656420666f7220616c6c00000000000000006020830152604082019050919050565b6000612e11602a836138fc565b91507f4552433732313a2062616c616e636520717565727920666f7220746865207a6560008301527f726f2061646472657373000000000000000000000000000000000000000000006020830152604082019050919050565b6000612e776029836138fc565b91507f4552433732313a206f776e657220717565727920666f72206e6f6e657869737460008301527f656e7420746f6b656e00000000000000000000000000000000000000000000006020830152604082019050919050565b6000612edd60128361390d565b91507f222c226d616e756661637475726572223a2200000000000000000000000000006000830152601282019050919050565b6000612f1d60028361390d565b91507f227d0000000000000000000000000000000000000000000000000000000000006000830152600282019050919050565b6000612f5d6020836138fc565b91507f4552433732313a206d696e7420746f20746865207a65726f20616464726573736000830152602082019050919050565b6000612f9d602c836138fc565b91507f4552433732313a20617070726f76656420717565727920666f72206e6f6e657860008301527f697374656e7420746f6b656e00000000000000000000000000000000000000006020830152604082019050919050565b60006130036020836138fc565b91507f4f776e61626c653a2063616c6c6572206973206e6f7420746865206f776e65726000830152602082019050919050565b6000613043600c8361390d565b91507f222c226f726967696e223a2200000000000000000000000000000000000000006000830152600c82019050919050565b60006130836029836138fc565b91507f4552433732313a207472616e73666572206f6620746f6b656e2074686174206960008301527f73206e6f74206f776e00000000000000000000000000000000000000000000006020830152604082019050919050565b60006130e96021836138fc565b91507f4552433732313a20617070726f76616c20746f2063757272656e74206f776e6560008301527f72000000000000000000000000000000000000000000000000000000000000006020830152604082019050919050565b600061314f6025836138fc565b91507f6d736753656e646572206973206e6f7420746865206f776e6572206f6620746860008301527f65204e46540000000000000000000000000000000000000000000000000000006020830152604082019050919050565b60006131b5601d8361390d565b91507f646174613a6170706c69636174696f6e2f6a736f6e3b6261736536342c0000006000830152601d82019050919050565b60006131f56031836138fc565b91507f4552433732313a207472616e736665722063616c6c6572206973206e6f74206f60008301527f776e6572206e6f7220617070726f7665640000000000000000000000000000006020830152604082019050919050565b600061325b60478361390d565b91507f226465736372697074696f6e223a22416e204e465420666f722076616363696e60008301527f6174696f6e73222c202261747472696275746573223a22222c2022666972737460208301527f4e616d65223a22000000000000000000000000000000000000000000000000006040830152604782019050919050565b60006132e760108361390d565b91507f222c2022646f73655068617365223a22000000000000000000000000000000006000830152601082019050919050565b600060a08301600083015161333260008601826128c1565b506020830151848203602086015261334a82826129e4565b9150506040830151848203604086015261336482826129e4565b9150506060830151848203606086015261337e82826129e4565b9150506080830151613393608086018261339e565b508091505092915050565b6133a781613a97565b82525050565b6133b681613a97565b82525050565b60006133c882846128df565b60148201915081905092915050565b60006133e282612cf8565b91506133ed8261324e565b91506133f98288612a87565b915061340482612b06565b91506134108287612a87565b915061341b82612ed0565b91506134278286612a87565b9150613432826132da565b915061343e8285612a56565b915061344982613036565b915061345582846129b3565b915061346082612f10565b91508190509695505050505050565b600061347a826131a8565b91506134868284612a56565b915081905092915050565b60006020820190506134a660008301846128d0565b92915050565b60006080820190506134c160008301876128d0565b6134ce60208301866128d0565b6134db60408301856133ad565b81810360608301526134ed818461297a565b905095945050505050565b600060a08201905061350d60008301886128d0565b818103602083015261351f8187612a1d565b905081810360408301526135338186612a1d565b905081810360608301526135478185612a1d565b905061355660808301846133ad565b9695505050505050565b6000602082019050818103600083015261357a81846128f6565b905092915050565b6000602082019050613597600083018461296b565b92915050565b600060208201905081810360008301526135b78184612a1d565b905092915050565b600060208201905081810360008301526135d881612b46565b9050919050565b600060208201905081810360008301526135f881612bac565b9050919050565b6000602082019050818103600083015261361881612c12565b9050919050565b6000602082019050818103600083015261363881612c52565b9050919050565b6000602082019050818103600083015261365881612cb8565b9050919050565b6000602082019050818103600083015261367881612d38565b9050919050565b6000602082019050818103600083015261369881612d9e565b9050919050565b600060208201905081810360008301526136b881612e04565b9050919050565b600060208201905081810360008301526136d881612e6a565b9050919050565b600060208201905081810360008301526136f881612f50565b9050919050565b6000602082019050818103600083015261371881612f90565b9050919050565b6000602082019050818103600083015261373881612ff6565b9050919050565b6000602082019050818103600083015261375881613076565b9050919050565b60006020820190508181036000830152613778816130dc565b9050919050565b6000602082019050818103600083015261379881613142565b9050919050565b600060208201905081810360008301526137b8816131e8565b9050919050565b60006020820190506137d460008301846133ad565b92915050565b6000604051905081810181811067ffffffffffffffff8211171561380157613800613c40565b5b8060405250919050565b600067ffffffffffffffff82111561382657613825613c40565b5b601f19601f8301169050602081019050919050565b600067ffffffffffffffff82111561385657613855613c40565b5b601f19601f8301169050602081019050919050565b6000819050602082019050919050565b60008190508160005260206000209050919050565b600081519050919050565b600081519050919050565b600081519050919050565b6000602082019050919050565b600082825260208201905092915050565b600082825260208201905092915050565b600081905092915050565b600082825260208201905092915050565b600082825260208201905092915050565b600081905092915050565b600061392382613a97565b915061392e83613a97565b9250827fffffffffffffffffffffffffffffffffffffffffffffffffffffffffffffffff0382111561396357613962613bb3565b5b828201905092915050565b600061397982613a97565b915061398483613a97565b92508261399457613993613be2565b5b828204905092915050565b60006139aa82613a97565b91506139b583613a97565b9250817fffffffffffffffffffffffffffffffffffffffffffffffffffffffffffffffff04831182151516156139ee576139ed613bb3565b5b828202905092915050565b6000613a0482613a97565b9150613a0f83613a97565b925082821015613a2257613a21613bb3565b5b828203905092915050565b6000613a3882613a77565b9050919050565b60008115159050919050565b60007fffffffff0000000000000000000000000000000000000000000000000000000082169050919050565b600073ffffffffffffffffffffffffffffffffffffffff82169050919050565b6000819050919050565b82818337600083830152505050565b60005b83811015613ace578082015181840152602081019050613ab3565b83811115613add576000848401525b50505050565b60006002820490506001821680613afb57607f821691505b60208210811415613b0f57613b0e613c11565b5b50919050565b6000613b2082613a97565b91507fffffffffffffffffffffffffffffffffffffffffffffffffffffffffffffffff821415613b5357613b52613bb3565b5b600182019050919050565b6000613b6982613b70565b9050919050565b6000613b7b82613c80565b9050919050565b6000613b8d82613a97565b9150613b9883613a97565b925082613ba857613ba7613be2565b5b828206905092915050565b7f4e487b7100000000000000000000000000000000000000000000000000000000600052601160045260246000fd5b7f4e487b7100000000000000000000000000000000000000000000000000000000600052601260045260246000fd5b7f4e487b7100000000000000000000000000000000000000000000000000000000600052602260045260246000fd5b7f4e487b7100000000000000000000000000000000000000000000000000000000600052604160045260246000fd5b6000601f19601f8301169050919050565b60008160601b9050919050565b613c9681613a2d565b8114613ca157600080fd5b50565b613cad81613a3f565b8114613cb857600080fd5b50565b613cc481613a4b565b8114613ccf57600080fd5b50565b613cdb81613a97565b8114613ce657600080fd5b5056fe4142434445464748494a4b4c4d4e4f505152535455565758595a6162636465666768696a6b6c6d6e6f707172737475767778797a303132333435363738392b2fa26469706673582212206c8090a790a8eeb40b1620db3a249184e66f5bfc2f63290ae69fbda84fb3e5fa64736f6c63430008000033",
  "linkReferences": {},
  "deployedLinkReferences": {}
}