{
  "_format": "hh-sol-artifact-1",
  "contractName": "VaxNFT",
  "sourceName": "contracts/vaxNFT.sol",
  "abi": [
    {
      "inputs": [],
      "stateMutability": "nonpayable",
      "type": "constructor"
    },
    {
      "anonymous": false,
      "inputs": [
        {
          "indexed": true,
          "internalType": "address",
          "name": "owner",
          "type": "address"
        },
        {
          "indexed": true,
          "internalType": "address",
          "name": "approved",
          "type": "address"
        },
        {
          "indexed": true,
          "internalType": "uint256",
          "name": "tokenId",
          "type": "uint256"
        }
      ],
      "name": "Approval",
      "type": "event"
    },
    {
      "anonymous": false,
      "inputs": [
        {
          "indexed": true,
          "internalType": "address",
          "name": "owner",
          "type": "address"
        },
        {
          "indexed": true,
          "internalType": "address",
          "name": "operator",
          "type": "address"
        },
        {
          "indexed": false,
          "internalType": "bool",
          "name": "approved",
          "type": "bool"
        }
      ],
      "name": "ApprovalForAll",
      "type": "event"
    },
    {
      "anonymous": false,
      "inputs": [
        {
          "indexed": true,
          "internalType": "address",
          "name": "previousOwner",
          "type": "address"
        },
        {
          "indexed": true,
          "internalType": "address",
          "name": "newOwner",
          "type": "address"
        }
      ],
      "name": "OwnershipTransferred",
      "type": "event"
    },
    {
      "anonymous": false,
      "inputs": [
        {
          "indexed": true,
          "internalType": "address",
          "name": "from",
          "type": "address"
        },
        {
          "indexed": true,
          "internalType": "address",
          "name": "to",
          "type": "address"
        },
        {
          "indexed": true,
          "internalType": "uint256",
          "name": "tokenId",
          "type": "uint256"
        }
      ],
      "name": "Transfer",
      "type": "event"
    },
    {
      "inputs": [
        {
          "internalType": "address",
          "name": "to",
          "type": "address"
        },
        {
          "internalType": "uint256",
          "name": "tokenId",
          "type": "uint256"
        }
      ],
      "name": "approve",
      "outputs": [],
      "stateMutability": "nonpayable",
      "type": "function"
    },
    {
      "inputs": [
        {
          "internalType": "address",
          "name": "owner",
          "type": "address"
        }
      ],
      "name": "balanceOf",
      "outputs": [
        {
          "internalType": "uint256",
          "name": "",
          "type": "uint256"
        }
      ],
      "stateMutability": "view",
      "type": "function"
    },
    {
      "inputs": [],
      "name": "baseURI",
      "outputs": [
        {
          "internalType": "string",
          "name": "",
          "type": "string"
        }
      ],
      "stateMutability": "view",
      "type": "function"
    },
    {
      "inputs": [
        {
          "internalType": "uint256",
          "name": "tokenId",
          "type": "uint256"
        }
      ],
      "name": "getApproved",
      "outputs": [
        {
          "internalType": "address",
          "name": "",
          "type": "address"
        }
      ],
      "stateMutability": "view",
      "type": "function"
    },
    {
      "inputs": [
        {
          "internalType": "uint256",
          "name": "tokenId",
          "type": "uint256"
        }
      ],
      "name": "getVaxInfo",
      "outputs": [
        {
          "internalType": "address",
          "name": "",
          "type": "address"
        },
        {
          "internalType": "string",
          "name": "",
          "type": "string"
        },
        {
          "internalType": "string",
          "name": "",
          "type": "string"
        },
        {
          "internalType": "string",
          "name": "",
          "type": "string"
        },
        {
          "internalType": "uint256",
          "name": "",
          "type": "uint256"
        }
      ],
      "stateMutability": "nonpayable",
      "type": "function"
    },
    {
      "inputs": [
        {
          "internalType": "address",
          "name": "owner",
          "type": "address"
        },
        {
          "internalType": "address",
          "name": "operator",
          "type": "address"
        }
      ],
      "name": "isApprovedForAll",
      "outputs": [
        {
          "internalType": "bool",
          "name": "",
          "type": "bool"
        }
      ],
      "stateMutability": "view",
      "type": "function"
    },
    {
      "inputs": [
        {
          "internalType": "string",
          "name": "_firstName",
          "type": "string"
        },
        {
          "internalType": "string",
          "name": "_lastName",
          "type": "string"
        },
        {
          "internalType": "string",
          "name": "_manufacturer",
          "type": "string"
        },
        {
          "internalType": "uint256",
          "name": "_dosePhase",
          "type": "uint256"
        }
      ],
      "name": "mintNFT",
      "outputs": [
        {
          "internalType": "uint256",
          "name": "",
          "type": "uint256"
        }
      ],
      "stateMutability": "nonpayable",
      "type": "function"
    },
    {
      "inputs": [],
      "name": "name",
      "outputs": [
        {
          "internalType": "string",
          "name": "",
          "type": "string"
        }
      ],
      "stateMutability": "view",
      "type": "function"
    },
    {
      "inputs": [],
      "name": "owner",
      "outputs": [
        {
          "internalType": "address",
          "name": "",
          "type": "address"
        }
      ],
      "stateMutability": "view",
      "type": "function"
    },
    {
      "inputs": [
        {
          "internalType": "uint256",
          "name": "tokenId",
          "type": "uint256"
        }
      ],
      "name": "ownerOf",
      "outputs": [
        {
          "internalType": "address",
          "name": "",
          "type": "address"
        }
      ],
      "stateMutability": "view",
      "type": "function"
    },
    {
      "inputs": [],
      "name": "renounceOwnership",
      "outputs": [],
      "stateMutability": "nonpayable",
      "type": "function"
    },
    {
      "inputs": [
        {
          "internalType": "address",
          "name": "from",
          "type": "address"
        },
        {
          "internalType": "address",
          "name": "to",
          "type": "address"
        },
        {
          "internalType": "uint256",
          "name": "tokenId",
          "type": "uint256"
        }
      ],
      "name": "safeTransferFrom",
      "outputs": [],
      "stateMutability": "nonpayable",
      "type": "function"
    },
    {
      "inputs": [
        {
          "internalType": "address",
          "name": "from",
          "type": "address"
        },
        {
          "internalType": "address",
          "name": "to",
          "type": "address"
        },
        {
          "internalType": "uint256",
          "name": "tokenId",
          "type": "uint256"
        },
        {
          "internalType": "bytes",
          "name": "_data",
          "type": "bytes"
        }
      ],
      "name": "safeTransferFrom",
      "outputs": [],
      "stateMutability": "nonpayable",
      "type": "function"
    },
    {
      "inputs": [
        {
          "internalType": "address",
          "name": "operator",
          "type": "address"
        },
        {
          "internalType": "bool",
          "name": "approved",
          "type": "bool"
        }
      ],
      "name": "setApprovalForAll",
      "outputs": [],
      "stateMutability": "nonpayable",
      "type": "function"
    },
    {
      "inputs": [
        {
          "internalType": "bytes4",
          "name": "interfaceId",
          "type": "bytes4"
        }
      ],
      "name": "supportsInterface",
      "outputs": [
        {
          "internalType": "bool",
          "name": "",
          "type": "bool"
        }
      ],
      "stateMutability": "view",
      "type": "function"
    },
    {
      "inputs": [],
      "name": "symbol",
      "outputs": [
        {
          "internalType": "string",
          "name": "",
          "type": "string"
        }
      ],
      "stateMutability": "view",
      "type": "function"
    },
    {
      "inputs": [
        {
          "internalType": "uint256",
          "name": "index",
          "type": "uint256"
        }
      ],
      "name": "tokenByIndex",
      "outputs": [
        {
          "internalType": "uint256",
          "name": "",
          "type": "uint256"
        }
      ],
      "stateMutability": "view",
      "type": "function"
    },
    {
      "inputs": [
        {
          "internalType": "address",
          "name": "owner",
          "type": "address"
        },
        {
          "internalType": "uint256",
          "name": "index",
          "type": "uint256"
        }
      ],
      "name": "tokenOfOwnerByIndex",
      "outputs": [
        {
          "internalType": "uint256",
          "name": "",
          "type": "uint256"
        }
      ],
      "stateMutability": "view",
      "type": "function"
    },
    {
      "inputs": [
        {
          "internalType": "uint256",
          "name": "tokenId",
          "type": "uint256"
        }
      ],
      "name": "tokenURI",
      "outputs": [
        {
          "internalType": "string",
          "name": "",
          "type": "string"
        }
      ],
      "stateMutability": "view",
      "type": "function"
    },
    {
      "inputs": [
        {
          "internalType": "address",
          "name": "_owner",
          "type": "address"
        }
      ],
      "name": "tokensOfOwner",
      "outputs": [
        {
          "internalType": "string[]",
          "name": "",
          "type": "string[]"
        }
      ],
      "stateMutability": "nonpayable",
      "type": "function"
    },
    {
      "inputs": [],
      "name": "totalSupply",
      "outputs": [
        {
          "internalType": "uint256",
          "name": "",
          "type": "uint256"
        }
      ],
      "stateMutability": "view",
      "type": "function"
    },
    {
      "inputs": [
        {
          "internalType": "address",
          "name": "from",
          "type": "address"
        },
        {
          "internalType": "address",
          "name": "to",
          "type": "address"
        },
        {
          "internalType": "uint256",
          "name": "tokenId",
          "type": "uint256"
        }
      ],
      "name": "transferFrom",
      "outputs": [],
      "stateMutability": "nonpayable",
      "type": "function"
    },
    {
      "inputs": [
        {
          "internalType": "address",
          "name": "newOwner",
          "type": "address"
        }
      ],
      "name": "transferOwnership",
      "outputs": [],
      "stateMutability": "nonpayable",
      "type": "function"
    }
  ],
  "bytecode": "0x60806040523480156200001157600080fd5b506040518060400160405280600681526020017f5661784e465400000000000000000000000000000000000000000000000000008152506040518060400160405280600381526020017f4e46540000000000000000000000000000000000000000000000000000000000815250620000966301ffc9a760e01b620001c960201b60201c565b8160069080519060200190620000ae929190620002a9565b508060079080519060200190620000c7929190620002a9565b50620000e06380ac58cd60e01b620001c960201b60201c565b620000f8635b5e139f60e01b620001c960201b60201c565b6200011063780e9d6360e01b620001c960201b60201c565b5050600062000124620002a160201b60201c565b905080600a60006101000a81548173ffffffffffffffffffffffffffffffffffffffff021916908373ffffffffffffffffffffffffffffffffffffffff1602179055508073ffffffffffffffffffffffffffffffffffffffff16600073ffffffffffffffffffffffffffffffffffffffff167f8be0079c531659141344cd1fd0a4f28419497f9722a3daafe3b4186f6b6457e060405160405180910390a350620003c4565b63ffffffff60e01b817bffffffffffffffffffffffffffffffffffffffffffffffffffffffff1916141562000235576040517f08c379a00000000000000000000000000000000000000000000000000000000081526004016200022c9062000391565b60405180910390fd5b6001600080837bffffffffffffffffffffffffffffffffffffffffffffffffffffffff19167bffffffffffffffffffffffffffffffffffffffffffffffffffffffff1916815260200190815260200160002060006101000a81548160ff02191690831515021790555050565b600033905090565b828054600181600116156101000203166002900490600052602060002090601f016020900481019282601f10620002ec57805160ff19168380011785556200031d565b828001600101855582156200031d579182015b828111156200031c578251825591602001919060010190620002ff565b5b5090506200032c919062000330565b5090565b5b808211156200034b57600081600090555060010162000331565b5090565b60006200035e601c83620003b3565b91507f4552433136353a20696e76616c696420696e74657266616365206964000000006000830152602082019050919050565b60006020820190508181036000830152620003ac816200034f565b9050919050565b600082825260208201905092915050565b613a5480620003d46000396000f3fe608060405234801561001057600080fd5b506004361061014d5760003560e01c80636c0360eb116100c357806395d89b411161007c57806395d89b41146103dc578063a22cb465146103fa578063b88d4fde14610416578063c87b56dd14610432578063e985e9c514610462578063f2fde38b146104925761014d565b80636c0360eb1461030257806370a0823114610320578063715018a6146103505780638462151c1461035a5780638da5cb5b1461038a5780638fa4e92b146103a85761014d565b806323b872dd1161011557806323b872dd1461020a5780632f745c5914610226578063345a98c41461025657806342842e0e146102865780634f6ccce7146102a25780636352211e146102d25761014d565b806301ffc9a71461015257806306fdde0314610182578063081812fc146101a0578063095ea7b3146101d057806318160ddd146101ec575b600080fd5b61016c60048036038101906101679190612996565b6104ae565b60405161017991906134b6565b60405180910390f35b61018a610515565b60405161019791906134d1565b60405180910390f35b6101ba60048036038101906101b59190612a93565b6105b7565b6040516101c791906133c5565b60405180910390f35b6101ea60048036038101906101e5919061295a565b61063c565b005b6101f4610754565b6040516102019190613733565b60405180910390f35b610224600480360381019061021f9190612854565b610765565b005b610240600480360381019061023b919061295a565b6107c5565b60405161024d9190613733565b60405180910390f35b610270600480360381019061026b91906129e8565b610820565b60405161027d9190613733565b60405180910390f35b6102a0600480360381019061029b9190612854565b610959565b005b6102bc60048036038101906102b79190612a93565b610979565b6040516102c99190613733565b60405180910390f35b6102ec60048036038101906102e79190612a93565b61099c565b6040516102f991906133c5565b60405180910390f35b61030a6109d3565b60405161031791906134d1565b60405180910390f35b61033a600480360381019061033591906127ef565b610a75565b6040516103479190613733565b60405180910390f35b610358610b34565b005b610374600480360381019061036f91906127ef565b610c8c565b6040516103819190613494565b60405180910390f35b610392610de6565b60405161039f91906133c5565b60405180910390f35b6103c260048036038101906103bd9190612a93565b610e10565b6040516103d395949392919061342c565b60405180910390f35b6103e4611090565b6040516103f191906134d1565b60405180910390f35b610414600480360381019061040f919061291e565b611132565b005b610430600480360381019061042b91906128a3565b6112b3565b005b61044c60048036038101906104479190612a93565b611315565b60405161045991906134d1565b60405180910390f35b61047c60048036038101906104779190612818565b6114a0565b60405161048991906134b6565b60405180910390f35b6104ac60048036038101906104a791906127ef565b611534565b005b6000806000837bffffffffffffffffffffffffffffffffffffffffffffffffffffffff19167bffffffffffffffffffffffffffffffffffffffffffffffffffffffff1916815260200190815260200160002060009054906101000a900460ff169050919050565b606060068054600181600116156101000203166002900480601f0160208091040260200160405190810160405280929190818152602001828054600181600116156101000203166002900480156105ad5780601f10610582576101008083540402835291602001916105ad565b820191906000526020600020905b81548152906001019060200180831161059057829003601f168201915b5050505050905090565b60006105c2826116fb565b610601576040517f08c379a00000000000000000000000000000000000000000000000000000000081526004016105f890613653565b60405180910390fd5b6004600083815260200190815260200160002060009054906101000a900473ffffffffffffffffffffffffffffffffffffffff169050919050565b60006106478261099c565b90508073ffffffffffffffffffffffffffffffffffffffff168373ffffffffffffffffffffffffffffffffffffffff1614156106b8576040517f08c379a00000000000000000000000000000000000000000000000000000000081526004016106af906136d3565b60405180910390fd5b8073ffffffffffffffffffffffffffffffffffffffff166106d7611718565b73ffffffffffffffffffffffffffffffffffffffff161480610706575061070581610700611718565b6114a0565b5b610745576040517f08c379a000000000000000000000000000000000000000000000000000000000815260040161073c906135d3565b60405180910390fd5b61074f8383611720565b505050565b600061076060026117d9565b905090565b610776610770611718565b826117ee565b6107b5576040517f08c379a00000000000000000000000000000000000000000000000000000000081526004016107ac906136f3565b60405180910390fd5b6107c08383836118cc565b505050565b600061081882600160008673ffffffffffffffffffffffffffffffffffffffff1673ffffffffffffffffffffffffffffffffffffffff168152602001908152602001600020611ae390919063ffffffff16565b905092915050565b600061082c600b611afd565b6000610838600b611b13565b905061084b610845611718565b82611b21565b6040518060a0016040528061085e611718565b73ffffffffffffffffffffffffffffffffffffffff16815260200187815260200186815260200185815260200184815250600c600083815260200190815260200160002060008201518160000160006101000a81548173ffffffffffffffffffffffffffffffffffffffff021916908373ffffffffffffffffffffffffffffffffffffffff1602179055506020820151816001019080519060200190610905929190612641565b506040820151816002019080519060200190610922929190612641565b50606082015181600301908051906020019061093f929190612641565b506080820151816004015590505080915050949350505050565b610974838383604051806020016040528060008152506112b3565b505050565b600080610990836002611caf90919063ffffffff16565b50905080915050919050565b60006109cc826040518060600160405280602981526020016139f6602991396002611cdb9092919063ffffffff16565b9050919050565b606060098054600181600116156101000203166002900480601f016020809104026020016040519081016040528092919081815260200182805460018160011615610100020316600290048015610a6b5780601f10610a4057610100808354040283529160200191610a6b565b820191906000526020600020905b815481529060010190602001808311610a4e57829003601f168201915b5050505050905090565b60008073ffffffffffffffffffffffffffffffffffffffff168273ffffffffffffffffffffffffffffffffffffffff161415610ae6576040517f08c379a0000000000000000000000000000000000000000000000000000000008152600401610add906135f3565b60405180910390fd5b610b2d600160008473ffffffffffffffffffffffffffffffffffffffff1673ffffffffffffffffffffffffffffffffffffffff168152602001908152602001600020611cfa565b9050919050565b610b3c611718565b73ffffffffffffffffffffffffffffffffffffffff16600a60009054906101000a900473ffffffffffffffffffffffffffffffffffffffff1673ffffffffffffffffffffffffffffffffffffffff1614610bcb576040517f08c379a0000000000000000000000000000000000000000000000000000000008152600401610bc290613673565b60405180910390fd5b600073ffffffffffffffffffffffffffffffffffffffff16600a60009054906101000a900473ffffffffffffffffffffffffffffffffffffffff1673ffffffffffffffffffffffffffffffffffffffff167f8be0079c531659141344cd1fd0a4f28419497f9722a3daafe3b4186f6b6457e060405160405180910390a36000600a60006101000a81548173ffffffffffffffffffffffffffffffffffffffff021916908373ffffffffffffffffffffffffffffffffffffffff160217905550565b60606000610c9983610a75565b90506000811415610cf957600067ffffffffffffffff81118015610cbc57600080fd5b50604051908082528060200260200182016040528015610cf057816020015b6060815260200190600190039081610cdb5790505b50915050610de1565b60608167ffffffffffffffff81118015610d1257600080fd5b50604051908082528060200260200182016040528015610d4657816020015b6060815260200190600190039081610d315790505b5090506000610d55600b611b13565b9050600080600190505b828111610dd8578673ffffffffffffffffffffffffffffffffffffffff16610d868261099c565b73ffffffffffffffffffffffffffffffffffffffff161415610dcb57610dab81611315565b848381518110610db757fe5b602002602001018190525081806001019250505b8080600101915050610d5f565b83955050505050505b919050565b6000600a60009054906101000a900473ffffffffffffffffffffffffffffffffffffffff16905090565b600060608060606000600c600087815260200190815260200160002060000160009054906101000a900473ffffffffffffffffffffffffffffffffffffffff16600c6000888152602001908152602001600020600101600c6000898152602001908152602001600020600201600c60008a8152602001908152602001600020600301600c60008b815260200190815260200160002060040154838054600181600116156101000203166002900480601f016020809104026020016040519081016040528092919081815260200182805460018160011615610100020316600290048015610f3e5780601f10610f1357610100808354040283529160200191610f3e565b820191906000526020600020905b815481529060010190602001808311610f2157829003601f168201915b50505050509350828054600181600116156101000203166002900480601f016020809104026020016040519081016040528092919081815260200182805460018160011615610100020316600290048015610fda5780601f10610faf57610100808354040283529160200191610fda565b820191906000526020600020905b815481529060010190602001808311610fbd57829003601f168201915b50505050509250818054600181600116156101000203166002900480601f0160208091040260200160405190810160405280929190818152602001828054600181600116156101000203166002900480156110765780601f1061104b57610100808354040283529160200191611076565b820191906000526020600020905b81548152906001019060200180831161105957829003601f168201915b505050505091509450945094509450945091939590929450565b606060078054600181600116156101000203166002900480601f0160208091040260200160405190810160405280929190818152602001828054600181600116156101000203166002900480156111285780601f106110fd57610100808354040283529160200191611128565b820191906000526020600020905b81548152906001019060200180831161110b57829003601f168201915b5050505050905090565b61113a611718565b73ffffffffffffffffffffffffffffffffffffffff168273ffffffffffffffffffffffffffffffffffffffff1614156111a8576040517f08c379a000000000000000000000000000000000000000000000000000000000815260040161119f90613593565b60405180910390fd5b80600560006111b5611718565b73ffffffffffffffffffffffffffffffffffffffff1673ffffffffffffffffffffffffffffffffffffffff16815260200190815260200160002060008473ffffffffffffffffffffffffffffffffffffffff1673ffffffffffffffffffffffffffffffffffffffff16815260200190815260200160002060006101000a81548160ff0219169083151502179055508173ffffffffffffffffffffffffffffffffffffffff16611262611718565b73ffffffffffffffffffffffffffffffffffffffff167f17307eab39ab6107e8899845ad3d59bd9653f200f220920489ca2b5937696c31836040516112a791906134b6565b60405180910390a35050565b6112c46112be611718565b836117ee565b611303576040517f08c379a00000000000000000000000000000000000000000000000000000000081526004016112fa906136f3565b60405180910390fd5b61130f84848484611d0f565b50505050565b6060611320826116fb565b61135f576040517f08c379a0000000000000000000000000000000000000000000000000000000008152600401611356906136b3565b60405180910390fd5b6060600860008481526020019081526020016000208054600181600116156101000203166002900480601f0160208091040260200160405190810160405280929190818152602001828054600181600116156101000203166002900480156114085780601f106113dd57610100808354040283529160200191611408565b820191906000526020600020905b8154815290600101906020018083116113eb57829003601f168201915b50505050509050600060098054600181600116156101000203166002900490501415611437578091505061149b565b60008151111561146c576009816040516020016114559291906133a1565b60405160208183030381529060405291505061149b565b600961147784611d6b565b6040516020016114889291906133a1565b6040516020818303038152906040529150505b919050565b6000600560008473ffffffffffffffffffffffffffffffffffffffff1673ffffffffffffffffffffffffffffffffffffffff16815260200190815260200160002060008373ffffffffffffffffffffffffffffffffffffffff1673ffffffffffffffffffffffffffffffffffffffff16815260200190815260200160002060009054906101000a900460ff16905092915050565b61153c611718565b73ffffffffffffffffffffffffffffffffffffffff16600a60009054906101000a900473ffffffffffffffffffffffffffffffffffffffff1673ffffffffffffffffffffffffffffffffffffffff16146115cb576040517f08c379a00000000000000000000000000000000000000000000000000000000081526004016115c290613673565b60405180910390fd5b600073ffffffffffffffffffffffffffffffffffffffff168173ffffffffffffffffffffffffffffffffffffffff16141561163b576040517f08c379a000000000000000000000000000000000000000000000000000000000815260040161163290613533565b60405180910390fd5b8073ffffffffffffffffffffffffffffffffffffffff16600a60009054906101000a900473ffffffffffffffffffffffffffffffffffffffff1673ffffffffffffffffffffffffffffffffffffffff167f8be0079c531659141344cd1fd0a4f28419497f9722a3daafe3b4186f6b6457e060405160405180910390a380600a60006101000a81548173ffffffffffffffffffffffffffffffffffffffff021916908373ffffffffffffffffffffffffffffffffffffffff16021790555050565b6000611711826002611eb290919063ffffffff16565b9050919050565b600033905090565b816004600083815260200190815260200160002060006101000a81548173ffffffffffffffffffffffffffffffffffffffff021916908373ffffffffffffffffffffffffffffffffffffffff160217905550808273ffffffffffffffffffffffffffffffffffffffff166117938361099c565b73ffffffffffffffffffffffffffffffffffffffff167f8c5be1e5ebec7d5bd14f71427d1e84f3dd0314c0f7b2291e5b200ac8c7c3b92560405160405180910390a45050565b60006117e782600001611ecc565b9050919050565b60006117f9826116fb565b611838576040517f08c379a000000000000000000000000000000000000000000000000000000000815260040161182f906135b3565b60405180910390fd5b60006118438361099c565b90508073ffffffffffffffffffffffffffffffffffffffff168473ffffffffffffffffffffffffffffffffffffffff1614806118b257508373ffffffffffffffffffffffffffffffffffffffff1661189a846105b7565b73ffffffffffffffffffffffffffffffffffffffff16145b806118c357506118c281856114a0565b5b91505092915050565b8273ffffffffffffffffffffffffffffffffffffffff166118ec8261099c565b73ffffffffffffffffffffffffffffffffffffffff1614611942576040517f08c379a000000000000000000000000000000000000000000000000000000000815260040161193990613693565b60405180910390fd5b600073ffffffffffffffffffffffffffffffffffffffff168273ffffffffffffffffffffffffffffffffffffffff1614156119b2576040517f08c379a00000000000000000000000000000000000000000000000000000000081526004016119a990613573565b60405180910390fd5b6119bd838383611edd565b6119c8600082611720565b611a1981600160008673ffffffffffffffffffffffffffffffffffffffff1673ffffffffffffffffffffffffffffffffffffffff168152602001908152602001600020611ee290919063ffffffff16565b50611a6b81600160008573ffffffffffffffffffffffffffffffffffffffff1673ffffffffffffffffffffffffffffffffffffffff168152602001908152602001600020611efc90919063ffffffff16565b50611a8281836002611f169092919063ffffffff16565b50808273ffffffffffffffffffffffffffffffffffffffff168473ffffffffffffffffffffffffffffffffffffffff167fddf252ad1be2c89b69c2b068fc378daa952ba7f163c4a11628f55a4df523b3ef60405160405180910390a4505050565b6000611af28360000183611f4b565b60001c905092915050565b6001816000016000828254019250508190555050565b600081600001549050919050565b600073ffffffffffffffffffffffffffffffffffffffff168273ffffffffffffffffffffffffffffffffffffffff161415611b91576040517f08c379a0000000000000000000000000000000000000000000000000000000008152600401611b8890613633565b60405180910390fd5b611b9a816116fb565b15611bda576040517f08c379a0000000000000000000000000000000000000000000000000000000008152600401611bd190613553565b60405180910390fd5b611be660008383611edd565b611c3781600160008573ffffffffffffffffffffffffffffffffffffffff1673ffffffffffffffffffffffffffffffffffffffff168152602001908152602001600020611efc90919063ffffffff16565b50611c4e81836002611f169092919063ffffffff16565b50808273ffffffffffffffffffffffffffffffffffffffff16600073ffffffffffffffffffffffffffffffffffffffff167fddf252ad1be2c89b69c2b068fc378daa952ba7f163c4a11628f55a4df523b3ef60405160405180910390a45050565b600080600080611cc28660000186611fb8565b915091508160001c8160001c9350935050509250929050565b6000611cee846000018460001b8461203b565b60001c90509392505050565b6000611d08826000016120cc565b9050919050565b611d1a8484846118cc565b611d26848484846120dd565b611d65576040517f08c379a0000000000000000000000000000000000000000000000000000000008152600401611d5c90613513565b60405180910390fd5b50505050565b60606000821415611db3576040518060400160405280600181526020017f30000000000000000000000000000000000000000000000000000000000000008152509050611ead565b600082905060005b60008214611ddd578080600101915050600a8281611dd557fe5b049150611dbb565b60608167ffffffffffffffff81118015611df657600080fd5b506040519080825280601f01601f191660200182016040528015611e295781602001600182028036833780820191505090505b50905060006001830390508593505b60008414611ea557600a8481611e4a57fe5b0660300160f81b82828060019003935081518110611e6457fe5b60200101907effffffffffffffffffffffffffffffffffffffffffffffffffffffffffffff1916908160001a905350600a8481611e9d57fe5b049350611e38565b819450505050505b919050565b6000611ec4836000018360001b612241565b905092915050565b600081600001805490509050919050565b505050565b6000611ef4836000018360001b612264565b905092915050565b6000611f0e836000018360001b61234c565b905092915050565b6000611f42846000018460001b8473ffffffffffffffffffffffffffffffffffffffff1660001b6123bc565b90509392505050565b600081836000018054905011611f96576040517f08c379a0000000000000000000000000000000000000000000000000000000008152600401611f8d906134f3565b60405180910390fd5b826000018281548110611fa557fe5b9060005260206000200154905092915050565b60008082846000018054905011612004576040517f08c379a0000000000000000000000000000000000000000000000000000000008152600401611ffb90613613565b60405180910390fd5b600084600001848154811061201557fe5b906000526020600020906002020190508060000154816001015492509250509250929050565b6000808460010160008581526020019081526020016000205490506000811415839061209d576040517f08c379a000000000000000000000000000000000000000000000000000000000815260040161209491906134d1565b60405180910390fd5b508460000160018203815481106120b057fe5b9060005260206000209060020201600101549150509392505050565b600081600001805490509050919050565b60006120fe8473ffffffffffffffffffffffffffffffffffffffff16612498565b61210b5760019050612239565b60606121d263150b7a0260e01b612120611718565b88878760405160240161213694939291906133e0565b604051602081830303815290604052907bffffffffffffffffffffffffffffffffffffffffffffffffffffffff19166020820180517bffffffffffffffffffffffffffffffffffffffffffffffffffffffff83818316178352505050506040518060600160405280603281526020016139c4603291398773ffffffffffffffffffffffffffffffffffffffff166124e39092919063ffffffff16565b90506000818060200190518101906121ea91906129bf565b905063150b7a0260e01b7bffffffffffffffffffffffffffffffffffffffffffffffffffffffff1916817bffffffffffffffffffffffffffffffffffffffffffffffffffffffff191614925050505b949350505050565b600080836001016000848152602001908152602001600020541415905092915050565b6000808360010160008481526020019081526020016000205490506000811461234057600060018203905060006001866000018054905003905060008660000182815481106122af57fe5b90600052602060002001549050808760000184815481106122cc57fe5b906000526020600020018190555060018301876001016000838152602001908152602001600020819055508660000180548061230457fe5b60019003818190600052602060002001600090559055866001016000878152602001908152602001600020600090556001945050505050612346565b60009150505b92915050565b600061235883836124fb565b6123b15782600001829080600181540180825580915050600190039060005260206000200160009091909190915055826000018054905083600101600084815260200190815260200160002081905550600190506123b6565b600090505b92915050565b600080846001016000858152602001908152602001600020549050600081141561246357846000016040518060400160405280868152602001858152509080600181540180825580915050600190039060005260206000209060020201600090919091909150600082015181600001556020820151816001015550508460000180549050856001016000868152602001908152602001600020819055506001915050612491565b8285600001600183038154811061247657fe5b90600052602060002090600202016001018190555060009150505b9392505050565b60008060007fc5d2460186f7233c927e7db2dcc703c0e500b653ca82273b7bfad8045d85a47060001b9050833f91508082141580156124da57506000801b8214155b92505050919050565b60606124f2848460008561251e565b90509392505050565b600080836001016000848152602001908152602001600020541415905092915050565b606061252985612498565b612568576040517f08c379a000000000000000000000000000000000000000000000000000000000815260040161255f90613713565b60405180910390fd5b600060608673ffffffffffffffffffffffffffffffffffffffff168587604051612592919061338a565b60006040518083038185875af1925050503d80600081146125cf576040519150601f19603f3d011682016040523d82523d6000602084013e6125d4565b606091505b509150915081156125e9578092505050612639565b6000815111156125fc5780518082602001fd5b836040517f08c379a000000000000000000000000000000000000000000000000000000000815260040161263091906134d1565b60405180910390fd5b949350505050565b828054600181600116156101000203166002900490600052602060002090601f016020900481019282601f1061268257805160ff19168380011785556126b0565b828001600101855582156126b0579182015b828111156126af578251825591602001919060010190612694565b5b5090506126bd91906126c1565b5090565b5b808211156126da5760008160009055506001016126c2565b5090565b6000813590506126ed81613967565b92915050565b6000813590506127028161397e565b92915050565b60008135905061271781613995565b92915050565b60008151905061272c81613995565b92915050565b600082601f83011261274357600080fd5b81356127566127518261377f565b61374e565b9150808252602083016020830185838301111561277257600080fd5b61277d838284613912565b50505092915050565b600082601f83011261279757600080fd5b81356127aa6127a5826137af565b61374e565b915080825260208301602083018583830111156127c657600080fd5b6127d1838284613912565b50505092915050565b6000813590506127e9816139ac565b92915050565b60006020828403121561280157600080fd5b600061280f848285016126de565b91505092915050565b6000806040838503121561282b57600080fd5b6000612839858286016126de565b925050602061284a858286016126de565b9150509250929050565b60008060006060848603121561286957600080fd5b6000612877868287016126de565b9350506020612888868287016126de565b9250506040612899868287016127da565b9150509250925092565b600080600080608085870312156128b957600080fd5b60006128c7878288016126de565b94505060206128d8878288016126de565b93505060406128e9878288016127da565b925050606085013567ffffffffffffffff81111561290657600080fd5b61291287828801612732565b91505092959194509250565b6000806040838503121561293157600080fd5b600061293f858286016126de565b9250506020612950858286016126f3565b9150509250929050565b6000806040838503121561296d57600080fd5b600061297b858286016126de565b925050602061298c858286016127da565b9150509250929050565b6000602082840312156129a857600080fd5b60006129b684828501612708565b91505092915050565b6000602082840312156129d157600080fd5b60006129df8482850161271d565b91505092915050565b600080600080608085870312156129fe57600080fd5b600085013567ffffffffffffffff811115612a1857600080fd5b612a2487828801612786565b945050602085013567ffffffffffffffff811115612a4157600080fd5b612a4d87828801612786565b935050604085013567ffffffffffffffff811115612a6a57600080fd5b612a7687828801612786565b9250506060612a87878288016127da565b91505092959194509250565b600060208284031215612aa557600080fd5b6000612ab3848285016127da565b91505092915050565b6000612ac88383612bdc565b905092915050565b612ad98161389e565b82525050565b612ae88161388c565b82525050565b6000612af982613804565b612b038185613832565b935083602082028501612b15856137df565b8060005b85811015612b515784840389528151612b328582612abc565b9450612b3d83613825565b925060208a01995050600181019050612b19565b50829750879550505050505092915050565b612b6c816138b0565b82525050565b6000612b7d8261380f565b612b878185613843565b9350612b97818560208601613921565b612ba081613956565b840191505092915050565b6000612bb68261380f565b612bc08185613854565b9350612bd0818560208601613921565b80840191505092915050565b6000612be78261381a565b612bf1818561385f565b9350612c01818560208601613921565b612c0a81613956565b840191505092915050565b6000612c208261381a565b612c2a8185613870565b9350612c3a818560208601613921565b612c4381613956565b840191505092915050565b6000612c598261381a565b612c638185613881565b9350612c73818560208601613921565b80840191505092915050565b600081546001811660008114612c9c5760018114612cc157612d05565b607f6002830416612cad8187613881565b955060ff1983168652808601935050612d05565b60028204612ccf8187613881565b9550612cda856137ef565b60005b82811015612cfc57815481890152600182019150602081019050612cdd565b82880195505050505b505092915050565b6000612d1a602283613870565b91507f456e756d657261626c655365743a20696e646578206f7574206f6620626f756e60008301527f64730000000000000000000000000000000000000000000000000000000000006020830152604082019050919050565b6000612d80603283613870565b91507f4552433732313a207472616e7366657220746f206e6f6e20455243373231526560008301527f63656976657220696d706c656d656e74657200000000000000000000000000006020830152604082019050919050565b6000612de6602683613870565b91507f4f776e61626c653a206e6577206f776e657220697320746865207a65726f206160008301527f64647265737300000000000000000000000000000000000000000000000000006020830152604082019050919050565b6000612e4c601c83613870565b91507f4552433732313a20746f6b656e20616c7265616479206d696e746564000000006000830152602082019050919050565b6000612e8c602483613870565b91507f4552433732313a207472616e7366657220746f20746865207a65726f2061646460008301527f72657373000000000000000000000000000000000000000000000000000000006020830152604082019050919050565b6000612ef2601983613870565b91507f4552433732313a20617070726f766520746f2063616c6c6572000000000000006000830152602082019050919050565b6000612f32602c83613870565b91507f4552433732313a206f70657261746f7220717565727920666f72206e6f6e657860008301527f697374656e7420746f6b656e00000000000000000000000000000000000000006020830152604082019050919050565b6000612f98603883613870565b91507f4552433732313a20617070726f76652063616c6c6572206973206e6f74206f7760008301527f6e6572206e6f7220617070726f76656420666f7220616c6c00000000000000006020830152604082019050919050565b6000612ffe602a83613870565b91507f4552433732313a2062616c616e636520717565727920666f7220746865207a6560008301527f726f2061646472657373000000000000000000000000000000000000000000006020830152604082019050919050565b6000613064602283613870565b91507f456e756d657261626c654d61703a20696e646578206f7574206f6620626f756e60008301527f64730000000000000000000000000000000000000000000000000000000000006020830152604082019050919050565b60006130ca602083613870565b91507f4552433732313a206d696e7420746f20746865207a65726f20616464726573736000830152602082019050919050565b600061310a602c83613870565b91507f4552433732313a20617070726f76656420717565727920666f72206e6f6e657860008301527f697374656e7420746f6b656e00000000000000000000000000000000000000006020830152604082019050919050565b6000613170602083613870565b91507f4f776e61626c653a2063616c6c6572206973206e6f7420746865206f776e65726000830152602082019050919050565b60006131b0602983613870565b91507f4552433732313a207472616e73666572206f6620746f6b656e2074686174206960008301527f73206e6f74206f776e00000000000000000000000000000000000000000000006020830152604082019050919050565b6000613216602f83613870565b91507f4552433732314d657461646174613a2055524920717565727920666f72206e6f60008301527f6e6578697374656e7420746f6b656e00000000000000000000000000000000006020830152604082019050919050565b600061327c602183613870565b91507f4552433732313a20617070726f76616c20746f2063757272656e74206f776e6560008301527f72000000000000000000000000000000000000000000000000000000000000006020830152604082019050919050565b60006132e2603183613870565b91507f4552433732313a207472616e736665722063616c6c6572206973206e6f74206f60008301527f776e6572206e6f7220617070726f7665640000000000000000000000000000006020830152604082019050919050565b6000613348601d83613870565b91507f416464726573733a2063616c6c20746f206e6f6e2d636f6e74726163740000006000830152602082019050919050565b61338481613908565b82525050565b60006133968284612bab565b915081905092915050565b60006133ad8285612c7f565b91506133b98284612c4e565b91508190509392505050565b60006020820190506133da6000830184612adf565b92915050565b60006080820190506133f56000830187612ad0565b6134026020830186612adf565b61340f604083018561337b565b81810360608301526134218184612b72565b905095945050505050565b600060a0820190506134416000830188612adf565b81810360208301526134538187612c15565b905081810360408301526134678186612c15565b9050818103606083015261347b8185612c15565b905061348a608083018461337b565b9695505050505050565b600060208201905081810360008301526134ae8184612aee565b905092915050565b60006020820190506134cb6000830184612b63565b92915050565b600060208201905081810360008301526134eb8184612c15565b905092915050565b6000602082019050818103600083015261350c81612d0d565b9050919050565b6000602082019050818103600083015261352c81612d73565b9050919050565b6000602082019050818103600083015261354c81612dd9565b9050919050565b6000602082019050818103600083015261356c81612e3f565b9050919050565b6000602082019050818103600083015261358c81612e7f565b9050919050565b600060208201905081810360008301526135ac81612ee5565b9050919050565b600060208201905081810360008301526135cc81612f25565b9050919050565b600060208201905081810360008301526135ec81612f8b565b9050919050565b6000602082019050818103600083015261360c81612ff1565b9050919050565b6000602082019050818103600083015261362c81613057565b9050919050565b6000602082019050818103600083015261364c816130bd565b9050919050565b6000602082019050818103600083015261366c816130fd565b9050919050565b6000602082019050818103600083015261368c81613163565b9050919050565b600060208201905081810360008301526136ac816131a3565b9050919050565b600060208201905081810360008301526136cc81613209565b9050919050565b600060208201905081810360008301526136ec8161326f565b9050919050565b6000602082019050818103600083015261370c816132d5565b9050919050565b6000602082019050818103600083015261372c8161333b565b9050919050565b6000602082019050613748600083018461337b565b92915050565b6000604051905081810181811067ffffffffffffffff8211171561377557613774613954565b5b8060405250919050565b600067ffffffffffffffff82111561379a57613799613954565b5b601f19601f8301169050602081019050919050565b600067ffffffffffffffff8211156137ca576137c9613954565b5b601f19601f8301169050602081019050919050565b6000819050602082019050919050565b60008190508160005260206000209050919050565b600081519050919050565b600081519050919050565b600081519050919050565b6000602082019050919050565b600082825260208201905092915050565b600082825260208201905092915050565b600081905092915050565b600082825260208201905092915050565b600082825260208201905092915050565b600081905092915050565b6000613897826138e8565b9050919050565b60006138a9826138e8565b9050919050565b60008115159050919050565b60007fffffffff0000000000000000000000000000000000000000000000000000000082169050919050565b600073ffffffffffffffffffffffffffffffffffffffff82169050919050565b6000819050919050565b82818337600083830152505050565b60005b8381101561393f578082015181840152602081019050613924565b8381111561394e576000848401525b50505050565bfe5b6000601f19601f8301169050919050565b6139708161388c565b811461397b57600080fd5b50565b613987816138b0565b811461399257600080fd5b50565b61399e816138bc565b81146139a957600080fd5b50565b6139b581613908565b81146139c057600080fd5b5056fe4552433732313a207472616e7366657220746f206e6f6e20455243373231526563656976657220696d706c656d656e7465724552433732313a206f776e657220717565727920666f72206e6f6e6578697374656e7420746f6b656ea2646970667358221220d5166a0453f9c077d7692e3f417dc50408d04f84b0956b492dbef7e133cd99a364736f6c63430007030033",
  "linkReferences": {},
  "deployedLinkReferences": {}
}